{
  "contractName": "EtherAds",
  "abi": [
    {
      "constant": false,
      "inputs": [
        {
          "name": "_to",
          "type": "address"
        },
        {
          "name": "_tokenId",
          "type": "uint256"
        }
      ],
      "name": "approve",
      "outputs": [],
      "payable": false,
      "stateMutability": "nonpayable",
      "type": "function"
    },
    {
      "constant": true,
      "inputs": [],
      "name": "getSymbol",
      "outputs": [
        {
          "name": "",
          "type": "string"
        }
      ],
      "payable": false,
      "stateMutability": "pure",
      "type": "function"
    },
    {
      "constant": true,
      "inputs": [],
      "name": "getName",
      "outputs": [
        {
          "name": "",
          "type": "string"
        }
      ],
      "payable": false,
      "stateMutability": "pure",
      "type": "function"
    },
    {
      "constant": true,
      "inputs": [],
      "name": "totalSupply",
      "outputs": [
        {
          "name": "",
          "type": "uint256"
        }
      ],
      "payable": false,
      "stateMutability": "view",
      "type": "function"
    },
    {
      "constant": true,
      "inputs": [],
      "name": "getObjectCount",
      "outputs": [
        {
          "name": "",
          "type": "uint256"
        }
      ],
      "payable": false,
      "stateMutability": "view",
      "type": "function"
    },
    {
      "constant": true,
      "inputs": [
        {
          "name": "_tokenId",
          "type": "uint256"
        }
      ],
      "name": "approvedFor",
      "outputs": [
        {
          "name": "",
          "type": "address"
        }
      ],
      "payable": false,
      "stateMutability": "view",
      "type": "function"
    },
    {
      "constant": true,
      "inputs": [
        {
          "name": "adId",
          "type": "uint256"
        }
      ],
      "name": "getAskingPrice",
      "outputs": [
        {
          "name": "",
          "type": "uint256"
        }
      ],
      "payable": false,
      "stateMutability": "view",
      "type": "function"
    },
    {
      "constant": false,
      "inputs": [
        {
          "name": "adId",
          "type": "uint256"
        },
        {
          "name": "url",
          "type": "string"
        },
        {
          "name": "img",
          "type": "string"
        }
      ],
      "name": "buyAd",
      "outputs": [],
      "payable": true,
      "stateMutability": "payable",
      "type": "function"
    },
    {
      "constant": true,
      "inputs": [
        {
          "name": "_owner",
          "type": "address"
        }
      ],
      "name": "tokensOf",
      "outputs": [
        {
          "name": "",
          "type": "uint256[]"
        }
      ],
      "payable": false,
      "stateMutability": "view",
      "type": "function"
    },
    {
      "constant": true,
      "inputs": [
        {
          "name": "_tokenId",
          "type": "uint256"
        }
      ],
      "name": "ownerOf",
      "outputs": [
        {
          "name": "",
          "type": "address"
        }
      ],
      "payable": false,
      "stateMutability": "view",
      "type": "function"
    },
    {
      "constant": true,
      "inputs": [
        {
          "name": "_owner",
          "type": "address"
        }
      ],
      "name": "balanceOf",
      "outputs": [
        {
          "name": "",
          "type": "uint256"
        }
      ],
      "payable": false,
      "stateMutability": "view",
      "type": "function"
    },
    {
      "constant": true,
      "inputs": [
        {
          "name": "adId",
          "type": "uint256"
        }
      ],
      "name": "getAd",
      "outputs": [
        {
          "name": "",
          "type": "string"
        },
        {
          "name": "",
          "type": "address"
        },
        {
          "name": "",
          "type": "uint256"
        },
        {
          "name": "",
          "type": "string"
        },
        {
          "name": "",
          "type": "string"
        },
        {
          "name": "",
          "type": "string"
        }
      ],
      "payable": false,
      "stateMutability": "view",
      "type": "function"
    },
    {
      "constant": true,
      "inputs": [],
      "name": "PRICE",
      "outputs": [
        {
          "name": "",
          "type": "uint256"
        }
      ],
      "payable": false,
      "stateMutability": "view",
      "type": "function"
    },
    {
      "constant": true,
      "inputs": [],
      "name": "owner",
      "outputs": [
        {
          "name": "",
          "type": "address"
        }
      ],
      "payable": false,
      "stateMutability": "view",
      "type": "function"
    },
    {
      "constant": false,
      "inputs": [
        {
          "name": "adId",
          "type": "uint256"
        },
        {
          "name": "name",
          "type": "string"
        },
        {
          "name": "url",
          "type": "string"
        },
        {
          "name": "description",
          "type": "string"
        },
        {
          "name": "imageurl",
          "type": "string"
        }
      ],
      "name": "mintObject",
      "outputs": [],
      "payable": true,
      "stateMutability": "payable",
      "type": "function"
    },
    {
      "constant": true,
      "inputs": [],
      "name": "objectCount",
      "outputs": [
        {
          "name": "",
          "type": "uint256"
        }
      ],
      "payable": false,
      "stateMutability": "view",
      "type": "function"
    },
    {
      "constant": true,
      "inputs": [],
      "name": "NAME",
      "outputs": [
        {
          "name": "",
          "type": "string"
        }
      ],
      "payable": false,
      "stateMutability": "view",
      "type": "function"
    },
    {
      "constant": false,
      "inputs": [
        {
          "name": "_to",
          "type": "address"
        },
        {
          "name": "_tokenId",
          "type": "uint256"
        }
      ],
      "name": "transfer",
      "outputs": [],
      "payable": false,
      "stateMutability": "nonpayable",
      "type": "function"
    },
    {
      "constant": false,
      "inputs": [
        {
          "name": "_tokenId",
          "type": "uint256"
        }
      ],
      "name": "takeOwnership",
      "outputs": [],
      "payable": false,
      "stateMutability": "nonpayable",
      "type": "function"
    },
    {
      "constant": true,
      "inputs": [
        {
          "name": "adId",
          "type": "uint256"
        }
      ],
      "name": "getCurrentPrice",
      "outputs": [
        {
          "name": "",
          "type": "uint256"
        }
      ],
      "payable": false,
      "stateMutability": "view",
      "type": "function"
    },
    {
      "constant": false,
      "inputs": [
        {
          "name": "newOwner",
          "type": "address"
        }
      ],
      "name": "transferOwnership",
      "outputs": [],
      "payable": false,
      "stateMutability": "nonpayable",
      "type": "function"
    },
    {
      "constant": true,
      "inputs": [],
      "name": "SYMBOL",
      "outputs": [
        {
          "name": "",
          "type": "string"
        }
      ],
      "payable": false,
      "stateMutability": "view",
      "type": "function"
    },
    {
      "inputs": [],
      "payable": false,
      "stateMutability": "nonpayable",
      "type": "constructor"
    },
    {
      "anonymous": false,
      "inputs": [
        {
          "indexed": true,
          "name": "previousOwner",
          "type": "address"
        },
        {
          "indexed": true,
          "name": "newOwner",
          "type": "address"
        }
      ],
      "name": "OwnershipTransferred",
      "type": "event"
    },
    {
      "anonymous": false,
      "inputs": [
        {
          "indexed": true,
          "name": "_from",
          "type": "address"
        },
        {
          "indexed": true,
          "name": "_to",
          "type": "address"
        },
        {
          "indexed": false,
          "name": "_tokenId",
          "type": "uint256"
        }
      ],
      "name": "Transfer",
      "type": "event"
    },
    {
      "anonymous": false,
      "inputs": [
        {
          "indexed": true,
          "name": "_owner",
          "type": "address"
        },
        {
          "indexed": true,
          "name": "_approved",
          "type": "address"
        },
        {
          "indexed": false,
          "name": "_tokenId",
          "type": "uint256"
        }
      ],
      "name": "Approval",
      "type": "event"
    }
  ],
  "bytecode": "0x6060604052600060065534156200001557600080fd5b33600560006101000a81548173ffffffffffffffffffffffffffffffffffffffff021916908373ffffffffffffffffffffffffffffffffffffffff1602179055506200019b60016040805190810160405280600681526020017f434153494e4f00000000000000000000000000000000000000000000000000008152506040805190810160405280601681526020017f687474703a2f2f7777772e65746865726164732e636f000000000000000000008152506040805190810160405280600681526020017f636173696e6f0000000000000000000000000000000000000000000000000000815250608060405190810160405280604381526020017f68747470733a2f2f7777772e657468657265756d2e6f72672f696d616765732f81526020017f6c6f676f732f455448455245554d2d49434f4e5f426c61636b5f736d616c6c2e81526020017f706e67000000000000000000000000000000000000000000000000000000000081525062000d0e64010000000002620013c7176401000000009004565b620002e060026040805190810160405280600381526020017f49434f00000000000000000000000000000000000000000000000000000000008152506040805190810160405280601681526020017f687474703a2f2f7777772e65746865726164732e636f000000000000000000008152506040805190810160405280600381526020017f69636f0000000000000000000000000000000000000000000000000000000000815250608060405190810160405280604381526020017f68747470733a2f2f7777772e657468657265756d2e6f72672f696d616765732f81526020017f6c6f676f732f455448455245554d2d49434f4e5f426c61636b5f736d616c6c2e81526020017f706e67000000000000000000000000000000000000000000000000000000000081525062000d0e64010000000002620013c7176401000000009004565b6200042560036040805190810160405280600881526020017f45584348414e47450000000000000000000000000000000000000000000000008152506040805190810160405280601681526020017f687474703a2f2f7777772e65746865726164732e636f000000000000000000008152506040805190810160405280600881526020017f65786368616e6765000000000000000000000000000000000000000000000000815250608060405190810160405280604381526020017f68747470733a2f2f7777772e657468657265756d2e6f72672f696d616765732f81526020017f6c6f676f732f455448455245554d2d49434f4e5f426c61636b5f736d616c6c2e81526020017f706e67000000000000000000000000000000000000000000000000000000000081525062000d0e64010000000002620013c7176401000000009004565b6200056a60046040805190810160405280600781526020017f424954434f494e000000000000000000000000000000000000000000000000008152506040805190810160405280601681526020017f687474703a2f2f7777772e65746865726164732e636f000000000000000000008152506040805190810160405280600781526020017f626974636f696e00000000000000000000000000000000000000000000000000815250608060405190810160405280604381526020017f68747470733a2f2f7777772e657468657265756d2e6f72672f696d616765732f81526020017f6c6f676f732f455448455245554d2d49434f4e5f426c61636b5f736d616c6c2e81526020017f706e67000000000000000000000000000000000000000000000000000000000081525062000d0e64010000000002620013c7176401000000009004565b620006af60056040805190810160405280600881526020017f455448455245554d0000000000000000000000000000000000000000000000008152506040805190810160405280601681526020017f687474703a2f2f7777772e65746865726164732e636f000000000000000000008152506040805190810160405280600881526020017f657468657265756d000000000000000000000000000000000000000000000000815250608060405190810160405280604381526020017f68747470733a2f2f7777772e657468657265756d2e6f72672f696d616765732f81526020017f6c6f676f732f455448455245554d2d49434f4e5f426c61636b5f736d616c6c2e81526020017f706e67000000000000000000000000000000000000000000000000000000000081525062000d0e64010000000002620013c7176401000000009004565b620007f460066040805190810160405280600781526020017f41554354494f4e000000000000000000000000000000000000000000000000008152506040805190810160405280601681526020017f687474703a2f2f7777772e65746865726164732e636f000000000000000000008152506040805190810160405280600781526020017f61756374696f6e00000000000000000000000000000000000000000000000000815250608060405190810160405280604381526020017f68747470733a2f2f7777772e657468657265756d2e6f72672f696d616765732f81526020017f6c6f676f732f455448455245554d2d49434f4e5f426c61636b5f736d616c6c2e81526020017f706e67000000000000000000000000000000000000000000000000000000000081525062000d0e64010000000002620013c7176401000000009004565b6200093960076040805190810160405280600681526020017f57414c4c455400000000000000000000000000000000000000000000000000008152506040805190810160405280601681526020017f687474703a2f2f7777772e65746865726164732e636f000000000000000000008152506040805190810160405280600681526020017f77616c6c65740000000000000000000000000000000000000000000000000000815250608060405190810160405280604381526020017f68747470733a2f2f7777772e657468657265756d2e6f72672f696d616765732f81526020017f6c6f676f732f455448455245554d2d49434f4e5f426c61636b5f736d616c6c2e81526020017f706e67000000000000000000000000000000000000000000000000000000000081525062000d0e64010000000002620013c7176401000000009004565b62000a7e60086040805190810160405280600681526020017f43525950544f00000000000000000000000000000000000000000000000000008152506040805190810160405280601681526020017f687474703a2f2f7777772e65746865726164732e636f000000000000000000008152506040805190810160405280600681526020017f63727970746f0000000000000000000000000000000000000000000000000000815250608060405190810160405280604381526020017f68747470733a2f2f7777772e657468657265756d2e6f72672f696d616765732f81526020017f6c6f676f732f455448455245554d2d49434f4e5f426c61636b5f736d616c6c2e81526020017f706e67000000000000000000000000000000000000000000000000000000000081525062000d0e64010000000002620013c7176401000000009004565b62000bc360096040805190810160405280600581526020017f47414d45530000000000000000000000000000000000000000000000000000008152506040805190810160405280601681526020017f687474703a2f2f7777772e65746865726164732e636f000000000000000000008152506040805190810160405280600581526020017f67616d6573000000000000000000000000000000000000000000000000000000815250608060405190810160405280604381526020017f68747470733a2f2f7777772e657468657265756d2e6f72672f696d616765732f81526020017f6c6f676f732f455448455245554d2d49434f4e5f426c61636b5f736d616c6c2e81526020017f706e67000000000000000000000000000000000000000000000000000000000081525062000d0e64010000000002620013c7176401000000009004565b62000d08600a6040805190810160405280600681526020017f544f4b454e5300000000000000000000000000000000000000000000000000008152506040805190810160405280601681526020017f687474703a2f2f7777772e65746865726164732e636f000000000000000000008152506040805190810160405280600681526020017f746f6b656e730000000000000000000000000000000000000000000000000000815250608060405190810160405280604381526020017f68747470733a2f2f7777772e657468657265756d2e6f72672f696d616765732f81526020017f6c6f676f732f455448455245554d2d49434f4e5f426c61636b5f736d616c6c2e81526020017f706e67000000000000000000000000000000000000000000000000000000000081525062000d0e64010000000002620013c7176401000000009004565b620011f9565b600560009054906101000a900473ffffffffffffffffffffffffffffffffffffffff1673ffffffffffffffffffffffffffffffffffffffff163373ffffffffffffffffffffffffffffffffffffffff1614151562000d6b57600080fd5b62000d8b338662000e6b64010000000002620018de176401000000009004565b6006600081548092919060010191905055508360086000878152602001908152602001600020908051906020019062000dc69291906200111b565b508260096000878152602001908152602001600020908051906020019062000df09291906200111b565b506601c6bf52634000600760008781526020019081526020016000208190555081600a6000878152602001908152602001600020908051906020019062000e399291906200111b565b5080600b6000878152602001908152602001600020908051906020019062000e639291906200111b565b505050505050565b600073ffffffffffffffffffffffffffffffffffffffff168273ffffffffffffffffffffffffffffffffffffffff161415151562000ea857600080fd5b62000ec8828262000f1c6401000000000262001d2a176401000000009004565b8173ffffffffffffffffffffffffffffffffffffffff1660007fddf252ad1be2c89b69c2b068fc378daa952ba7f163c4a11628f55a4df523b3ef836040518082815260200191505060405180910390a35050565b60008073ffffffffffffffffffffffffffffffffffffffff166001600084815260200190815260200160002060009054906101000a900473ffffffffffffffffffffffffffffffffffffffff1673ffffffffffffffffffffffffffffffffffffffff1614151562000f8c57600080fd5b826001600084815260200190815260200160002060006101000a81548173ffffffffffffffffffffffffffffffffffffffff021916908373ffffffffffffffffffffffffffffffffffffffff16021790555062000ffd83620010b06401000000000262000ffe176401000000009004565b9050600360008473ffffffffffffffffffffffffffffffffffffffff1673ffffffffffffffffffffffffffffffffffffffff1681526020019081526020016000208054806001018281620010529190620011a2565b916000526020600020900160008490919091505550806004600084815260200190815260200160002081905550620010a56001600054620010fc6401000000000262001eae179091906401000000009004565b600081905550505050565b6000600360008373ffffffffffffffffffffffffffffffffffffffff1673ffffffffffffffffffffffffffffffffffffffff168152602001908152602001600020805490509050919050565b60008082840190508381101515156200111157fe5b8091505092915050565b828054600181600116156101000203166002900490600052602060002090601f016020900481019282601f106200115e57805160ff19168380011785556200118f565b828001600101855582156200118f579182015b828111156200118e57825182559160200191906001019062001171565b5b5090506200119e9190620011d1565b5090565b815481835581811511620011cc57818360005260206000209182019101620011cb9190620011d1565b5b505050565b620011f691905b80821115620011f2576000816000905550600101620011d8565b5090565b90565b61201d80620012096000396000f300606060405260043610610128576000357c0100000000000000000000000000000000000000000000000000000000900463ffffffff168063095ea7b31461012d578063150704011461016f57806317d7de7c146101fd57806318160ddd1461028b5780631a848cfb146102b45780632a6dd48f146102dd578063451ba24c146103405780634f26ef80146103775780635a3f2672146104155780636352211e146104a357806370a08231146105065780637ede1c07146105535780638d859f3e1461076d5780638da5cb5b14610796578063902e74f2146107eb57806396c5892c1461090f578063a3f4df7e14610938578063a9059cbb146109c6578063b2e6ceeb14610a08578063c55d0f5614610a2b578063f2fde38b14610a62578063f76f8d7814610a9b575b600080fd5b341561013857600080fd5b61016d600480803573ffffffffffffffffffffffffffffffffffffffff16906020019091908035906020019091905050610b29565b005b341561017a57600080fd5b610182610cbc565b6040518080602001828103825283818151815260200191508051906020019080838360005b838110156101c25780820151818401526020810190506101a7565b50505050905090810190601f1680156101ef5780820380516001836020036101000a031916815260200191505b509250505060405180910390f35b341561020857600080fd5b610210610cff565b6040518080602001828103825283818151815260200191508051906020019080838360005b83811015610250578082015181840152602081019050610235565b50505050905090810190601f16801561027d5780820380516001836020036101000a031916815260200191505b509250505060405180910390f35b341561029657600080fd5b61029e610d42565b6040518082815260200191505060405180910390f35b34156102bf57600080fd5b6102c7610d4b565b6040518082815260200191505060405180910390f35b34156102e857600080fd5b6102fe6004808035906020019091905050610d55565b604051808273ffffffffffffffffffffffffffffffffffffffff1673ffffffffffffffffffffffffffffffffffffffff16815260200191505060405180910390f35b341561034b57600080fd5b6103616004808035906020019091905050610d92565b6040518082815260200191505060405180910390f35b610413600480803590602001909190803590602001908201803590602001908080601f0160208091040260200160405190810160405280939291908181526020018383808284378201915050505050509190803590602001908201803590602001908080601f01602080910402602001604051908101604052809392919081815260200183838082843782019150505050505091905050610ddc565b005b341561042057600080fd5b61044c600480803573ffffffffffffffffffffffffffffffffffffffff16906020019091905050610ee3565b6040518080602001828103825283818151815260200191508051906020019060200280838360005b8381101561048f578082015181840152602081019050610474565b505050509050019250505060405180910390f35b34156104ae57600080fd5b6104c46004808035906020019091905050610f80565b604051808273ffffffffffffffffffffffffffffffffffffffff1673ffffffffffffffffffffffffffffffffffffffff16815260200191505060405180910390f35b341561051157600080fd5b61053d600480803573ffffffffffffffffffffffffffffffffffffffff16906020019091905050610ffe565b6040518082815260200191505060405180910390f35b341561055e57600080fd5b610574600480803590602001909190505061104a565b60405180806020018773ffffffffffffffffffffffffffffffffffffffff1673ffffffffffffffffffffffffffffffffffffffff16815260200186815260200180602001806020018060200185810385528b818151815260200191508051906020019080838360005b838110156105f85780820151818401526020810190506105dd565b50505050905090810190601f1680156106255780820380516001836020036101000a031916815260200191505b50858103845288818151815260200191508051906020019080838360005b8381101561065e578082015181840152602081019050610643565b50505050905090810190601f16801561068b5780820380516001836020036101000a031916815260200191505b50858103835287818151815260200191508051906020019080838360005b838110156106c45780820151818401526020810190506106a9565b50505050905090810190601f1680156106f15780820380516001836020036101000a031916815260200191505b50858103825286818151815260200191508051906020019080838360005b8381101561072a57808201518184015260208101905061070f565b50505050905090810190601f1680156107575780820380516001836020036101000a031916815260200191505b509a505050505050505050505060405180910390f35b341561077857600080fd5b610780611396565b6040518082815260200191505060405180910390f35b34156107a157600080fd5b6107a96113a1565b604051808273ffffffffffffffffffffffffffffffffffffffff1673ffffffffffffffffffffffffffffffffffffffff16815260200191505060405180910390f35b61090d600480803590602001909190803590602001908201803590602001908080601f0160208091040260200160405190810160405280939291908181526020018383808284378201915050505050509190803590602001908201803590602001908080601f0160208091040260200160405190810160405280939291908181526020018383808284378201915050505050509190803590602001908201803590602001908080601f0160208091040260200160405190810160405280939291908181526020018383808284378201915050505050509190803590602001908201803590602001908080601f016020809104026020016040519081016040528093929190818152602001838380828437820191505050505050919050506113c7565b005b341561091a57600080fd5b610922611505565b6040518082815260200191505060405180910390f35b341561094357600080fd5b61094b61150b565b6040518080602001828103825283818151815260200191508051906020019080838360005b8381101561098b578082015181840152602081019050610970565b50505050905090810190601f1680156109b85780820380516001836020036101000a031916815260200191505b509250505060405180910390f35b34156109d157600080fd5b610a06600480803573ffffffffffffffffffffffffffffffffffffffff16906020019091908035906020019091905050611544565b005b3415610a1357600080fd5b610a296004808035906020019091905050611597565b005b3415610a3657600080fd5b610a4c60048080359060200190919050506115c2565b6040518082815260200191505060405180910390f35b3415610a6d57600080fd5b610a99600480803573ffffffffffffffffffffffffffffffffffffffff16906020019091905050611604565b005b3415610aa657600080fd5b610aae61175c565b6040518080602001828103825283818151815260200191508051906020019080838360005b83811015610aee578082015181840152602081019050610ad3565b50505050905090810190601f168015610b1b5780820380516001836020036101000a031916815260200191505b509250505060405180910390f35b6000813373ffffffffffffffffffffffffffffffffffffffff16610b4c82610f80565b73ffffffffffffffffffffffffffffffffffffffff16141515610b6e57600080fd5b610b7783610f80565b91508173ffffffffffffffffffffffffffffffffffffffff168473ffffffffffffffffffffffffffffffffffffffff1614151515610bb457600080fd5b6000610bbf84610d55565b73ffffffffffffffffffffffffffffffffffffffff16141580610bf9575060008473ffffffffffffffffffffffffffffffffffffffff1614155b15610cb657836002600085815260200190815260200160002060006101000a81548173ffffffffffffffffffffffffffffffffffffffff021916908373ffffffffffffffffffffffffffffffffffffffff1602179055508373ffffffffffffffffffffffffffffffffffffffff168273ffffffffffffffffffffffffffffffffffffffff167f8c5be1e5ebec7d5bd14f71427d1e84f3dd0314c0f7b2291e5b200ac8c7c3b925856040518082815260200191505060405180910390a35b50505050565b610cc4611ecc565b6040805190810160405280600381526020017f4541440000000000000000000000000000000000000000000000000000000000815250905090565b610d07611ecc565b6040805190810160405280600681526020017f4574684164730000000000000000000000000000000000000000000000000000815250905090565b60008054905090565b6000600654905090565b60006002600083815260200190815260200160002060009054906101000a900473ffffffffffffffffffffffffffffffffffffffff169050919050565b600080826000600760008381526020019081526020016000205414151515610db957600080fd5b600760008581526020019081526020016000205491506002820292505050919050565b600080846000600760008381526020019081526020016000205414151515610e0357600080fd5b610e0c86610d92565b9250823410151515610e1d57600080fd5b610e2686610f80565b9150610e33823388611795565b82600760008881526020019081526020016000208190555084600960008881526020019081526020016000209080519060200190610e72929190611ee0565b5083600b60008881526020019081526020016000209080519060200190610e9a929190611ee0565b508173ffffffffffffffffffffffffffffffffffffffff166108fc349081150290604051600060405180830381858888f193505050501515610edb57600080fd5b505050505050565b610eeb611f60565b600360008373ffffffffffffffffffffffffffffffffffffffff1673ffffffffffffffffffffffffffffffffffffffff168152602001908152602001600020805480602002602001604051908101604052809291908181526020018280548015610f7457602002820191906000526020600020905b815481526020019060010190808311610f60575b50505050509050919050565b6000806001600084815260200190815260200160002060009054906101000a900473ffffffffffffffffffffffffffffffffffffffff169050600073ffffffffffffffffffffffffffffffffffffffff168173ffffffffffffffffffffffffffffffffffffffff1614151515610ff557600080fd5b80915050919050565b6000600360008373ffffffffffffffffffffffffffffffffffffffff1673ffffffffffffffffffffffffffffffffffffffff168152602001908152602001600020805490509050919050565b611052611ecc565b60008061105d611ecc565b611065611ecc565b61106d611ecc565b6000806000806000808c600060076000838152602001908152602001600020541415151561109a57600080fd5b600860008f815260200190815260200160002096506110b88e610f80565b95506110c38e610d92565b9450600960008f81526020019081526020016000209350600a60008f81526020019081526020016000209250600b60008f81526020019081526020016000209150868686868686858054600181600116156101000203166002900480601f01602080910402602001604051908101604052809291908181526020018280546001816001161561010002031660029004801561119f5780601f106111745761010080835404028352916020019161119f565b820191906000526020600020905b81548152906001019060200180831161118257829003601f168201915b50505050509550828054600181600116156101000203166002900480601f01602080910402602001604051908101604052809291908181526020018280546001816001161561010002031660029004801561123b5780601f106112105761010080835404028352916020019161123b565b820191906000526020600020905b81548152906001019060200180831161121e57829003601f168201915b50505050509250818054600181600116156101000203166002900480601f0160208091040260200160405190810160405280929190818152602001828054600181600116156101000203166002900480156112d75780601f106112ac576101008083540402835291602001916112d7565b820191906000526020600020905b8154815290600101906020018083116112ba57829003601f168201915b50505050509150808054600181600116156101000203166002900480601f0160208091040260200160405190810160405280929190818152602001828054600181600116156101000203166002900480156113735780601f1061134857610100808354040283529160200191611373565b820191906000526020600020905b81548152906001019060200180831161135657829003601f168201915b505050505090509c509c509c509c509c509c505050505050505091939550919395565b6601c6bf5263400081565b600560009054906101000a900473ffffffffffffffffffffffffffffffffffffffff1681565b600560009054906101000a900473ffffffffffffffffffffffffffffffffffffffff1673ffffffffffffffffffffffffffffffffffffffff163373ffffffffffffffffffffffffffffffffffffffff1614151561142357600080fd5b61142d33866118de565b60066000815480929190600101919050555083600860008781526020019081526020016000209080519060200190611466929190611ee0565b508260096000878152602001908152602001600020908051906020019061148e929190611ee0565b506601c6bf52634000600760008781526020019081526020016000208190555081600a600087815260200190815260200160002090805190602001906114d5929190611ee0565b5080600b600087815260200190815260200160002090805190602001906114fd929190611ee0565b505050505050565b60065481565b6040805190810160405280600681526020017f457468416473000000000000000000000000000000000000000000000000000081525081565b803373ffffffffffffffffffffffffffffffffffffffff1661156582610f80565b73ffffffffffffffffffffffffffffffffffffffff1614151561158757600080fd5b611592338484611795565b505050565b6115a13382611978565b15156115ac57600080fd5b6115bf6115b882610f80565b3383611795565b50565b60008160006007600083815260200190815260200160002054141515156115e857600080fd5b6007600084815260200190815260200160002054915050919050565b600560009054906101000a900473ffffffffffffffffffffffffffffffffffffffff1673ffffffffffffffffffffffffffffffffffffffff163373ffffffffffffffffffffffffffffffffffffffff1614151561166057600080fd5b600073ffffffffffffffffffffffffffffffffffffffff168173ffffffffffffffffffffffffffffffffffffffff161415151561169c57600080fd5b8073ffffffffffffffffffffffffffffffffffffffff16600560009054906101000a900473ffffffffffffffffffffffffffffffffffffffff1673ffffffffffffffffffffffffffffffffffffffff167f8be0079c531659141344cd1fd0a4f28419497f9722a3daafe3b4186f6b6457e060405160405180910390a380600560006101000a81548173ffffffffffffffffffffffffffffffffffffffff021916908373ffffffffffffffffffffffffffffffffffffffff16021790555050565b6040805190810160405280600381526020017f454144000000000000000000000000000000000000000000000000000000000081525081565b600073ffffffffffffffffffffffffffffffffffffffff168273ffffffffffffffffffffffffffffffffffffffff16141515156117d157600080fd5b6117da81610f80565b73ffffffffffffffffffffffffffffffffffffffff168273ffffffffffffffffffffffffffffffffffffffff161415151561181457600080fd5b8273ffffffffffffffffffffffffffffffffffffffff1661183482610f80565b73ffffffffffffffffffffffffffffffffffffffff1614151561185657600080fd5b61186083826119b9565b61186a8382611aa2565b6118748282611d2a565b8173ffffffffffffffffffffffffffffffffffffffff168373ffffffffffffffffffffffffffffffffffffffff167fddf252ad1be2c89b69c2b068fc378daa952ba7f163c4a11628f55a4df523b3ef836040518082815260200191505060405180910390a3505050565b600073ffffffffffffffffffffffffffffffffffffffff168273ffffffffffffffffffffffffffffffffffffffff161415151561191a57600080fd5b6119248282611d2a565b8173ffffffffffffffffffffffffffffffffffffffff1660007fddf252ad1be2c89b69c2b068fc378daa952ba7f163c4a11628f55a4df523b3ef836040518082815260200191505060405180910390a35050565b60008273ffffffffffffffffffffffffffffffffffffffff1661199a83610d55565b73ffffffffffffffffffffffffffffffffffffffff1614905092915050565b8173ffffffffffffffffffffffffffffffffffffffff166119d982610f80565b73ffffffffffffffffffffffffffffffffffffffff161415156119fb57600080fd5b60006002600083815260200190815260200160002060006101000a81548173ffffffffffffffffffffffffffffffffffffffff021916908373ffffffffffffffffffffffffffffffffffffffff16021790555060008273ffffffffffffffffffffffffffffffffffffffff167f8c5be1e5ebec7d5bd14f71427d1e84f3dd0314c0f7b2291e5b200ac8c7c3b925836040518082815260200191505060405180910390a35050565b60008060008473ffffffffffffffffffffffffffffffffffffffff16611ac785610f80565b73ffffffffffffffffffffffffffffffffffffffff16141515611ae957600080fd5b60046000858152602001908152602001600020549250611b1b6001611b0d87610ffe565b611e9590919063ffffffff16565b9150600360008673ffffffffffffffffffffffffffffffffffffffff1673ffffffffffffffffffffffffffffffffffffffff16815260200190815260200160002082815481101515611b6957fe5b906000526020600020900154905060006001600086815260200190815260200160002060006101000a81548173ffffffffffffffffffffffffffffffffffffffff021916908373ffffffffffffffffffffffffffffffffffffffff16021790555080600360008773ffffffffffffffffffffffffffffffffffffffff1673ffffffffffffffffffffffffffffffffffffffff16815260200190815260200160002084815481101515611c1757fe5b9060005260206000209001819055506000600360008773ffffffffffffffffffffffffffffffffffffffff1673ffffffffffffffffffffffffffffffffffffffff16815260200190815260200160002083815481101515611c7457fe5b906000526020600020900181905550600360008673ffffffffffffffffffffffffffffffffffffffff1673ffffffffffffffffffffffffffffffffffffffff168152602001908152602001600020805480919060019003611cd59190611f74565b5060006004600086815260200190815260200160002081905550826004600083815260200190815260200160002081905550611d1d6001600054611e9590919063ffffffff16565b6000819055505050505050565b60008073ffffffffffffffffffffffffffffffffffffffff166001600084815260200190815260200160002060009054906101000a900473ffffffffffffffffffffffffffffffffffffffff1673ffffffffffffffffffffffffffffffffffffffff16141515611d9957600080fd5b826001600084815260200190815260200160002060006101000a81548173ffffffffffffffffffffffffffffffffffffffff021916908373ffffffffffffffffffffffffffffffffffffffff160217905550611df483610ffe565b9050600360008473ffffffffffffffffffffffffffffffffffffffff1673ffffffffffffffffffffffffffffffffffffffff1681526020019081526020016000208054806001018281611e479190611fa0565b916000526020600020900160008490919091505550806004600084815260200190815260200160002081905550611e8a6001600054611eae90919063ffffffff16565b600081905550505050565b6000828211151515611ea357fe5b818303905092915050565b6000808284019050838110151515611ec257fe5b8091505092915050565b602060405190810160405280600081525090565b828054600181600116156101000203166002900490600052602060002090601f016020900481019282601f10611f2157805160ff1916838001178555611f4f565b82800160010185558215611f4f579182015b82811115611f4e578251825591602001919060010190611f33565b5b509050611f5c9190611fcc565b5090565b602060405190810160405280600081525090565b815481835581811511611f9b57818360005260206000209182019101611f9a9190611fcc565b5b505050565b815481835581811511611fc757818360005260206000209182019101611fc69190611fcc565b5b505050565b611fee91905b80821115611fea576000816000905550600101611fd2565b5090565b905600a165627a7a7230582041c82843cd6faaa9b1a621f8a6ba999e5274f7166d098990d6d3b9d516f84b6c0029",
  "source": "pragma solidity ^0.4.18;\n\nimport 'zeppelin-solidity/contracts/token/ERC721/ERC721Token.sol';\nimport 'zeppelin-solidity/contracts/ownership/Ownable.sol';\n\ncontract EtherAds is ERC721Token, Ownable {\n  string constant public NAME = \"EthAds\";\n  string constant public SYMBOL = \"EAD\";\n  uint256 constant public PRICE = 0.0005 ether;\n  uint256 public objectCount = 0;\n\n  mapping(uint256 => uint256) tokenToPriceMap;\n  mapping(uint256 => string) tokenToNameMap;\n  mapping(uint256 => string) tokenToUrlMap;\n  mapping(uint256 => string) tokenToDescriptionMap;\n  mapping(uint256 => string) tokenToImageUrlMap;\n\n  Ad[] ads;\n\n  struct Ad {\n    string name;\n    string url;\n    string description;\n    string imageurl;\n  }\n\n  function EtherAds() public {\n    mintObject(1, \"CASINO\", \"http://www.etherads.co\", \"casino\", \"https://www.ethereum.org/images/logos/ETHEREUM-ICON_Black_small.png\");\n    mintObject(2, \"ICO\", \"http://www.etherads.co\", \"ico\", \"https://www.ethereum.org/images/logos/ETHEREUM-ICON_Black_small.png\");\n    mintObject(3, \"EXCHANGE\", \"http://www.etherads.co\", \"exchange\", \"https://www.ethereum.org/images/logos/ETHEREUM-ICON_Black_small.png\");\n    mintObject(4, \"BITCOIN\", \"http://www.etherads.co\", \"bitcoin\", \"https://www.ethereum.org/images/logos/ETHEREUM-ICON_Black_small.png\");\n    mintObject(5, \"ETHEREUM\", \"http://www.etherads.co\", \"ethereum\", \"https://www.ethereum.org/images/logos/ETHEREUM-ICON_Black_small.png\");\n    mintObject(6, \"AUCTION\", \"http://www.etherads.co\", \"auction\", \"https://www.ethereum.org/images/logos/ETHEREUM-ICON_Black_small.png\");\n    mintObject(7, \"WALLET\", \"http://www.etherads.co\", \"wallet\", \"https://www.ethereum.org/images/logos/ETHEREUM-ICON_Black_small.png\");\n    mintObject(8, \"CRYPTO\", \"http://www.etherads.co\", \"crypto\", \"https://www.ethereum.org/images/logos/ETHEREUM-ICON_Black_small.png\");\n    mintObject(9, \"GAMES\", \"http://www.etherads.co\", \"games\", \"https://www.ethereum.org/images/logos/ETHEREUM-ICON_Black_small.png\");\n    mintObject(10, \"TOKENS\", \"http://www.etherads.co\", \"tokens\", \"https://www.ethereum.org/images/logos/ETHEREUM-ICON_Black_small.png\");\n  }\n\n  function getName() public pure returns(string) {\n    return NAME;\n  }\n\n  function getSymbol() public pure returns(string) {\n    return SYMBOL;\n  }\n\n  function getObjectCount() public view returns (uint256) {\n    return objectCount;\n  }\n\n  function mintObject(uint256 adId, string name, string url, string description, string imageurl) public payable onlyOwner() {\n    _mint(msg.sender, adId);\n    objectCount++;\n    tokenToNameMap[adId] = name;\n    tokenToUrlMap[adId] = url;\n    tokenToPriceMap[adId] = PRICE;\n    tokenToDescriptionMap[adId] = description;\n    tokenToImageUrlMap[adId] = imageurl;\n  }\n\n  function buyAd(uint adId, string url, string img) public payable onlyMintedTokens(adId) {\n    //require enough ether\n    uint256 askingPrice = getAskingPrice(adId);\n    require(msg.value >= askingPrice);\n\n    //transfer ad ownership\n    address previousOwner = ownerOf(adId);\n    clearApprovalAndTransfer(previousOwner, msg.sender, adId);\n\n    //update price\n    tokenToPriceMap[adId] = askingPrice;\n    tokenToUrlMap[adId] = (url);\n    tokenToImageUrlMap[adId] = (img);\n\n    //TODO: take dev cut\n\n\n    //send ether to previous owner\n    previousOwner.transfer(msg.value);\n  }\n\n  function getCurrentPrice(uint256 adId) public view onlyMintedTokens(adId) returns(uint256) {\n    return tokenToPriceMap[adId];\n  }\n\n  function getAskingPrice(uint256 adId) public view onlyMintedTokens(adId) returns(uint256) {\n    uint256 lastPrice = tokenToPriceMap[adId];\n//    if (lastPrice <= 0.04 ether) {\n      return lastPrice * 2;\n//    }\n//    if (lastPrice <= 0.25 ether) {\n//      return lastPrice * 2 ;\n//    }\n//    if (lastPrice <= 0.50 ether) {\n//      return lastPrice * 2;\n//    }\n//    if (lastPrice > 0.50 ether) {\n//      return lastPrice * 2;\n//   }\n//    return lastPrice;\n  }\n\n  function getAd(uint256 adId) public view onlyMintedTokens(adId) returns(string, address, uint256, string, string, string) {\n    string name = tokenToNameMap[adId];\n    address owner = ownerOf(adId);\n    uint256 askingPrice = getAskingPrice(adId);\n    string url = tokenToUrlMap[adId];\n    string description = tokenToDescriptionMap[adId];\n    string imageurl = tokenToImageUrlMap[adId];\n    return (name, owner, askingPrice, url, description, imageurl);\n  }\n\n  modifier onlyMintedTokens(uint256 adId) {\n    require(tokenToPriceMap[adId] != 0);\n    _;\n  }\n}\n",
  "sourcePath": "/home/norm/EtherAds/contracts/EtherAds.sol",
  "compiler": {
    "name": "solc",
    "version": "0.4.18+commit.9cf6e910.Emscripten.clang"
  },
  "schemaVersion": "1.0.1",
  "updatedAt": "2018-03-03T12:24:07.037Z"
}