{
  "contractName": "EtherAds",
  "abi": [
    {
      "constant": false,
      "inputs": [
        {
          "name": "_to",
          "type": "address"
        },
        {
          "name": "_tokenId",
          "type": "uint256"
        }
      ],
      "name": "approve",
      "outputs": [],
      "payable": false,
      "stateMutability": "nonpayable",
      "type": "function"
    },
    {
      "constant": true,
      "inputs": [],
      "name": "getDev",
      "outputs": [
        {
          "name": "",
          "type": "address"
        }
      ],
      "payable": false,
      "stateMutability": "pure",
      "type": "function"
    },
    {
      "constant": true,
      "inputs": [],
      "name": "getSymbol",
      "outputs": [
        {
          "name": "",
          "type": "string"
        }
      ],
      "payable": false,
      "stateMutability": "pure",
      "type": "function"
    },
    {
      "constant": true,
      "inputs": [],
      "name": "getName",
      "outputs": [
        {
          "name": "",
          "type": "string"
        }
      ],
      "payable": false,
      "stateMutability": "pure",
      "type": "function"
    },
    {
      "constant": true,
      "inputs": [],
      "name": "totalSupply",
      "outputs": [
        {
          "name": "",
          "type": "uint256"
        }
      ],
      "payable": false,
      "stateMutability": "view",
      "type": "function"
    },
    {
      "constant": true,
      "inputs": [],
      "name": "getObjectCount",
      "outputs": [
        {
          "name": "",
          "type": "uint256"
        }
      ],
      "payable": false,
      "stateMutability": "view",
      "type": "function"
    },
    {
      "constant": true,
      "inputs": [
        {
          "name": "_tokenId",
          "type": "uint256"
        }
      ],
      "name": "approvedFor",
      "outputs": [
        {
          "name": "",
          "type": "address"
        }
      ],
      "payable": false,
      "stateMutability": "view",
      "type": "function"
    },
    {
      "constant": true,
      "inputs": [
        {
          "name": "adId",
          "type": "uint256"
        }
      ],
      "name": "getAskingPrice",
      "outputs": [
        {
          "name": "",
          "type": "uint256"
        }
      ],
      "payable": false,
      "stateMutability": "view",
      "type": "function"
    },
    {
      "constant": false,
      "inputs": [
        {
          "name": "adId",
          "type": "uint256"
        },
        {
          "name": "url",
          "type": "string"
        },
        {
          "name": "img",
          "type": "string"
        }
      ],
      "name": "buyAd",
      "outputs": [],
      "payable": true,
      "stateMutability": "payable",
      "type": "function"
    },
    {
      "constant": true,
      "inputs": [
        {
          "name": "_owner",
          "type": "address"
        }
      ],
      "name": "tokensOf",
      "outputs": [
        {
          "name": "",
          "type": "uint256[]"
        }
      ],
      "payable": false,
      "stateMutability": "view",
      "type": "function"
    },
    {
      "constant": true,
      "inputs": [
        {
          "name": "_tokenId",
          "type": "uint256"
        }
      ],
      "name": "ownerOf",
      "outputs": [
        {
          "name": "",
          "type": "address"
        }
      ],
      "payable": false,
      "stateMutability": "view",
      "type": "function"
    },
    {
      "constant": true,
      "inputs": [
        {
          "name": "_owner",
          "type": "address"
        }
      ],
      "name": "balanceOf",
      "outputs": [
        {
          "name": "",
          "type": "uint256"
        }
      ],
      "payable": false,
      "stateMutability": "view",
      "type": "function"
    },
    {
      "constant": false,
      "inputs": [],
      "name": "withdrawEther",
      "outputs": [],
      "payable": false,
      "stateMutability": "nonpayable",
      "type": "function"
    },
    {
      "constant": true,
      "inputs": [
        {
          "name": "adId",
          "type": "uint256"
        }
      ],
      "name": "getAd",
      "outputs": [
        {
          "name": "",
          "type": "string"
        },
        {
          "name": "",
          "type": "address"
        },
        {
          "name": "",
          "type": "uint256"
        },
        {
          "name": "",
          "type": "string"
        },
        {
          "name": "",
          "type": "string"
        },
        {
          "name": "",
          "type": "string"
        }
      ],
      "payable": false,
      "stateMutability": "view",
      "type": "function"
    },
    {
      "constant": true,
      "inputs": [],
      "name": "PRICE",
      "outputs": [
        {
          "name": "",
          "type": "uint256"
        }
      ],
      "payable": false,
      "stateMutability": "view",
      "type": "function"
    },
    {
      "constant": true,
      "inputs": [],
      "name": "owner",
      "outputs": [
        {
          "name": "",
          "type": "address"
        }
      ],
      "payable": false,
      "stateMutability": "view",
      "type": "function"
    },
    {
      "constant": false,
      "inputs": [
        {
          "name": "adId",
          "type": "uint256"
        },
        {
          "name": "name",
          "type": "string"
        },
        {
          "name": "url",
          "type": "string"
        },
        {
          "name": "description",
          "type": "string"
        },
        {
          "name": "imageurl",
          "type": "string"
        }
      ],
      "name": "mintObject",
      "outputs": [],
      "payable": true,
      "stateMutability": "payable",
      "type": "function"
    },
    {
      "constant": true,
      "inputs": [],
      "name": "objectCount",
      "outputs": [
        {
          "name": "",
          "type": "uint256"
        }
      ],
      "payable": false,
      "stateMutability": "view",
      "type": "function"
    },
    {
      "constant": true,
      "inputs": [],
      "name": "NAME",
      "outputs": [
        {
          "name": "",
          "type": "string"
        }
      ],
      "payable": false,
      "stateMutability": "view",
      "type": "function"
    },
    {
      "constant": false,
      "inputs": [
        {
          "name": "_to",
          "type": "address"
        },
        {
          "name": "_tokenId",
          "type": "uint256"
        }
      ],
      "name": "transfer",
      "outputs": [],
      "payable": false,
      "stateMutability": "nonpayable",
      "type": "function"
    },
    {
      "constant": false,
      "inputs": [
        {
          "name": "_tokenId",
          "type": "uint256"
        }
      ],
      "name": "takeOwnership",
      "outputs": [],
      "payable": false,
      "stateMutability": "nonpayable",
      "type": "function"
    },
    {
      "constant": true,
      "inputs": [
        {
          "name": "adId",
          "type": "uint256"
        }
      ],
      "name": "getPoCut",
      "outputs": [
        {
          "name": "",
          "type": "uint256"
        }
      ],
      "payable": false,
      "stateMutability": "view",
      "type": "function"
    },
    {
      "constant": true,
      "inputs": [],
      "name": "DEV",
      "outputs": [
        {
          "name": "",
          "type": "address"
        }
      ],
      "payable": false,
      "stateMutability": "view",
      "type": "function"
    },
    {
      "constant": true,
      "inputs": [
        {
          "name": "adId",
          "type": "uint256"
        }
      ],
      "name": "getCurrentPrice",
      "outputs": [
        {
          "name": "",
          "type": "uint256"
        }
      ],
      "payable": false,
      "stateMutability": "view",
      "type": "function"
    },
    {
      "constant": true,
      "inputs": [
        {
          "name": "adId",
          "type": "uint256"
        }
      ],
      "name": "getDevCut",
      "outputs": [
        {
          "name": "",
          "type": "uint256"
        }
      ],
      "payable": false,
      "stateMutability": "view",
      "type": "function"
    },
    {
      "constant": false,
      "inputs": [
        {
          "name": "newOwner",
          "type": "address"
        }
      ],
      "name": "transferOwnership",
      "outputs": [],
      "payable": false,
      "stateMutability": "nonpayable",
      "type": "function"
    },
    {
      "constant": true,
      "inputs": [],
      "name": "SYMBOL",
      "outputs": [
        {
          "name": "",
          "type": "string"
        }
      ],
      "payable": false,
      "stateMutability": "view",
      "type": "function"
    },
    {
      "inputs": [],
      "payable": false,
      "stateMutability": "nonpayable",
      "type": "constructor"
    },
    {
      "anonymous": false,
      "inputs": [
        {
          "indexed": true,
          "name": "previousOwner",
          "type": "address"
        },
        {
          "indexed": true,
          "name": "newOwner",
          "type": "address"
        }
      ],
      "name": "OwnershipTransferred",
      "type": "event"
    },
    {
      "anonymous": false,
      "inputs": [
        {
          "indexed": true,
          "name": "_from",
          "type": "address"
        },
        {
          "indexed": true,
          "name": "_to",
          "type": "address"
        },
        {
          "indexed": false,
          "name": "_tokenId",
          "type": "uint256"
        }
      ],
      "name": "Transfer",
      "type": "event"
    },
    {
      "anonymous": false,
      "inputs": [
        {
          "indexed": true,
          "name": "_owner",
          "type": "address"
        },
        {
          "indexed": true,
          "name": "_approved",
          "type": "address"
        },
        {
          "indexed": false,
          "name": "_tokenId",
          "type": "uint256"
        }
      ],
      "name": "Approval",
      "type": "event"
    }
  ],
  "bytecode": "0x6060604052600060065534156200001557600080fd5b33600560006101000a81548173ffffffffffffffffffffffffffffffffffffffff021916908373ffffffffffffffffffffffffffffffffffffffff1602179055506200019b60016040805190810160405280600681526020017f434153494e4f00000000000000000000000000000000000000000000000000008152506040805190810160405280601681526020017f687474703a2f2f7777772e65746865726164732e636f000000000000000000008152506040805190810160405280600681526020017f636173696e6f0000000000000000000000000000000000000000000000000000815250608060405190810160405280604381526020017f68747470733a2f2f7777772e657468657265756d2e6f72672f696d616765732f81526020017f6c6f676f732f455448455245554d2d49434f4e5f426c61636b5f736d616c6c2e81526020017f706e67000000000000000000000000000000000000000000000000000000000081525062000d0e6401000000000262001646176401000000009004565b620002e060026040805190810160405280600381526020017f49434f00000000000000000000000000000000000000000000000000000000008152506040805190810160405280601681526020017f687474703a2f2f7777772e65746865726164732e636f000000000000000000008152506040805190810160405280600381526020017f69636f0000000000000000000000000000000000000000000000000000000000815250608060405190810160405280604381526020017f68747470733a2f2f7777772e657468657265756d2e6f72672f696d616765732f81526020017f6c6f676f732f455448455245554d2d49434f4e5f426c61636b5f736d616c6c2e81526020017f706e67000000000000000000000000000000000000000000000000000000000081525062000d0e6401000000000262001646176401000000009004565b6200042560036040805190810160405280600881526020017f45584348414e47450000000000000000000000000000000000000000000000008152506040805190810160405280601681526020017f687474703a2f2f7777772e65746865726164732e636f000000000000000000008152506040805190810160405280600881526020017f65786368616e6765000000000000000000000000000000000000000000000000815250608060405190810160405280604381526020017f68747470733a2f2f7777772e657468657265756d2e6f72672f696d616765732f81526020017f6c6f676f732f455448455245554d2d49434f4e5f426c61636b5f736d616c6c2e81526020017f706e67000000000000000000000000000000000000000000000000000000000081525062000d0e6401000000000262001646176401000000009004565b6200056a60046040805190810160405280600781526020017f424954434f494e000000000000000000000000000000000000000000000000008152506040805190810160405280601681526020017f687474703a2f2f7777772e65746865726164732e636f000000000000000000008152506040805190810160405280600781526020017f626974636f696e00000000000000000000000000000000000000000000000000815250608060405190810160405280604381526020017f68747470733a2f2f7777772e657468657265756d2e6f72672f696d616765732f81526020017f6c6f676f732f455448455245554d2d49434f4e5f426c61636b5f736d616c6c2e81526020017f706e67000000000000000000000000000000000000000000000000000000000081525062000d0e6401000000000262001646176401000000009004565b620006af60056040805190810160405280600881526020017f455448455245554d0000000000000000000000000000000000000000000000008152506040805190810160405280601681526020017f687474703a2f2f7777772e65746865726164732e636f000000000000000000008152506040805190810160405280600881526020017f657468657265756d000000000000000000000000000000000000000000000000815250608060405190810160405280604381526020017f68747470733a2f2f7777772e657468657265756d2e6f72672f696d616765732f81526020017f6c6f676f732f455448455245554d2d49434f4e5f426c61636b5f736d616c6c2e81526020017f706e67000000000000000000000000000000000000000000000000000000000081525062000d0e6401000000000262001646176401000000009004565b620007f460066040805190810160405280600781526020017f41554354494f4e000000000000000000000000000000000000000000000000008152506040805190810160405280601681526020017f687474703a2f2f7777772e65746865726164732e636f000000000000000000008152506040805190810160405280600781526020017f61756374696f6e00000000000000000000000000000000000000000000000000815250608060405190810160405280604381526020017f68747470733a2f2f7777772e657468657265756d2e6f72672f696d616765732f81526020017f6c6f676f732f455448455245554d2d49434f4e5f426c61636b5f736d616c6c2e81526020017f706e67000000000000000000000000000000000000000000000000000000000081525062000d0e6401000000000262001646176401000000009004565b6200093960076040805190810160405280600681526020017f57414c4c455400000000000000000000000000000000000000000000000000008152506040805190810160405280601681526020017f687474703a2f2f7777772e65746865726164732e636f000000000000000000008152506040805190810160405280600681526020017f77616c6c65740000000000000000000000000000000000000000000000000000815250608060405190810160405280604381526020017f68747470733a2f2f7777772e657468657265756d2e6f72672f696d616765732f81526020017f6c6f676f732f455448455245554d2d49434f4e5f426c61636b5f736d616c6c2e81526020017f706e67000000000000000000000000000000000000000000000000000000000081525062000d0e6401000000000262001646176401000000009004565b62000a7e60086040805190810160405280600681526020017f43525950544f00000000000000000000000000000000000000000000000000008152506040805190810160405280601681526020017f687474703a2f2f7777772e65746865726164732e636f000000000000000000008152506040805190810160405280600681526020017f63727970746f0000000000000000000000000000000000000000000000000000815250608060405190810160405280604381526020017f68747470733a2f2f7777772e657468657265756d2e6f72672f696d616765732f81526020017f6c6f676f732f455448455245554d2d49434f4e5f426c61636b5f736d616c6c2e81526020017f706e67000000000000000000000000000000000000000000000000000000000081525062000d0e6401000000000262001646176401000000009004565b62000bc360096040805190810160405280600581526020017f47414d45530000000000000000000000000000000000000000000000000000008152506040805190810160405280601681526020017f687474703a2f2f7777772e65746865726164732e636f000000000000000000008152506040805190810160405280600581526020017f67616d6573000000000000000000000000000000000000000000000000000000815250608060405190810160405280604381526020017f68747470733a2f2f7777772e657468657265756d2e6f72672f696d616765732f81526020017f6c6f676f732f455448455245554d2d49434f4e5f426c61636b5f736d616c6c2e81526020017f706e67000000000000000000000000000000000000000000000000000000000081525062000d0e6401000000000262001646176401000000009004565b62000d08600a6040805190810160405280600681526020017f544f4b454e5300000000000000000000000000000000000000000000000000008152506040805190810160405280601681526020017f687474703a2f2f7777772e65746865726164732e636f000000000000000000008152506040805190810160405280600681526020017f746f6b656e730000000000000000000000000000000000000000000000000000815250608060405190810160405280604381526020017f68747470733a2f2f7777772e657468657265756d2e6f72672f696d616765732f81526020017f6c6f676f732f455448455245554d2d49434f4e5f426c61636b5f736d616c6c2e81526020017f706e67000000000000000000000000000000000000000000000000000000000081525062000d0e6401000000000262001646176401000000009004565b620011f9565b600560009054906101000a900473ffffffffffffffffffffffffffffffffffffffff1673ffffffffffffffffffffffffffffffffffffffff163373ffffffffffffffffffffffffffffffffffffffff1614151562000d6b57600080fd5b62000d8b338662000e6b6401000000000262001c21176401000000009004565b6006600081548092919060010191905055508360086000878152602001908152602001600020908051906020019062000dc69291906200111b565b508260096000878152602001908152602001600020908051906020019062000df09291906200111b565b506601c6bf52634000600760008781526020019081526020016000208190555081600a6000878152602001908152602001600020908051906020019062000e399291906200111b565b5080600b6000878152602001908152602001600020908051906020019062000e639291906200111b565b505050505050565b600073ffffffffffffffffffffffffffffffffffffffff168273ffffffffffffffffffffffffffffffffffffffff161415151562000ea857600080fd5b62000ec8828262000f1c640100000000026200206d176401000000009004565b8173ffffffffffffffffffffffffffffffffffffffff1660007fddf252ad1be2c89b69c2b068fc378daa952ba7f163c4a11628f55a4df523b3ef836040518082815260200191505060405180910390a35050565b60008073ffffffffffffffffffffffffffffffffffffffff166001600084815260200190815260200160002060009054906101000a900473ffffffffffffffffffffffffffffffffffffffff1673ffffffffffffffffffffffffffffffffffffffff1614151562000f8c57600080fd5b826001600084815260200190815260200160002060006101000a81548173ffffffffffffffffffffffffffffffffffffffff021916908373ffffffffffffffffffffffffffffffffffffffff16021790555062000ffd83620010b064010000000002620011a6176401000000009004565b9050600360008473ffffffffffffffffffffffffffffffffffffffff1673ffffffffffffffffffffffffffffffffffffffff1681526020019081526020016000208054806001018281620010529190620011a2565b916000526020600020900160008490919091505550806004600084815260200190815260200160002081905550620010a56001600054620010fc64010000000002620021f1179091906401000000009004565b600081905550505050565b6000600360008373ffffffffffffffffffffffffffffffffffffffff1673ffffffffffffffffffffffffffffffffffffffff168152602001908152602001600020805490509050919050565b60008082840190508381101515156200111157fe5b8091505092915050565b828054600181600116156101000203166002900490600052602060002090601f016020900481019282601f106200115e57805160ff19168380011785556200118f565b828001600101855582156200118f579182015b828111156200118e57825182559160200191906001019062001171565b5b5090506200119e9190620011d1565b5090565b815481835581811511620011cc57818360005260206000209182019101620011cb9190620011d1565b5b505050565b620011f691905b80821115620011f2576000816000905550600101620011d8565b5090565b90565b61236080620012096000396000f30060606040526004361061015f576000357c0100000000000000000000000000000000000000000000000000000000900463ffffffff168063095ea7b31461016457806309bb9267146101a657806315070401146101fb57806317d7de7c1461028957806318160ddd146103175780631a848cfb146103405780632a6dd48f14610369578063451ba24c146103cc5780634f26ef80146104035780635a3f2672146104a15780636352211e1461052f57806370a08231146105925780637362377b146105df5780637ede1c07146105f45780638d859f3e1461080e5780638da5cb5b14610837578063902e74f21461088c57806396c5892c146109b0578063a3f4df7e146109d9578063a9059cbb14610a67578063b2e6ceeb14610aa9578063c0dbed6d14610acc578063c1eb5ddd14610b03578063c55d0f5614610b58578063ec0d487b14610b8f578063f2fde38b14610bc6578063f76f8d7814610bff575b600080fd5b341561016f57600080fd5b6101a4600480803573ffffffffffffffffffffffffffffffffffffffff16906020019091908035906020019091905050610c8d565b005b34156101b157600080fd5b6101b9610e20565b604051808273ffffffffffffffffffffffffffffffffffffffff1673ffffffffffffffffffffffffffffffffffffffff16815260200191505060405180910390f35b341561020657600080fd5b61020e610e3c565b6040518080602001828103825283818151815260200191508051906020019080838360005b8381101561024e578082015181840152602081019050610233565b50505050905090810190601f16801561027b5780820380516001836020036101000a031916815260200191505b509250505060405180910390f35b341561029457600080fd5b61029c610e7f565b6040518080602001828103825283818151815260200191508051906020019080838360005b838110156102dc5780820151818401526020810190506102c1565b50505050905090810190601f1680156103095780820380516001836020036101000a031916815260200191505b509250505060405180910390f35b341561032257600080fd5b61032a610ec2565b6040518082815260200191505060405180910390f35b341561034b57600080fd5b610353610ecb565b6040518082815260200191505060405180910390f35b341561037457600080fd5b61038a6004808035906020019091905050610ed5565b604051808273ffffffffffffffffffffffffffffffffffffffff1673ffffffffffffffffffffffffffffffffffffffff16815260200191505060405180910390f35b34156103d757600080fd5b6103ed6004808035906020019091905050610f12565b6040518082815260200191505060405180910390f35b61049f600480803590602001909190803590602001908201803590602001908080601f0160208091040260200160405190810160405280939291908181526020018383808284378201915050505050509190803590602001908201803590602001908080601f01602080910402602001604051908101604052809392919081815260200183838082843782019150505050505091905050610f5c565b005b34156104ac57600080fd5b6104d8600480803573ffffffffffffffffffffffffffffffffffffffff1690602001909190505061108b565b6040518080602001828103825283818151815260200191508051906020019060200280838360005b8381101561051b578082015181840152602081019050610500565b505050509050019250505060405180910390f35b341561053a57600080fd5b6105506004808035906020019091905050611128565b604051808273ffffffffffffffffffffffffffffffffffffffff1673ffffffffffffffffffffffffffffffffffffffff16815260200191505060405180910390f35b341561059d57600080fd5b6105c9600480803573ffffffffffffffffffffffffffffffffffffffff169060200190919050506111a6565b6040518082815260200191505060405180910390f35b34156105ea57600080fd5b6105f26111f2565b005b34156105ff57600080fd5b61061560048080359060200190919050506112c9565b60405180806020018773ffffffffffffffffffffffffffffffffffffffff1673ffffffffffffffffffffffffffffffffffffffff16815260200186815260200180602001806020018060200185810385528b818151815260200191508051906020019080838360005b8381101561069957808201518184015260208101905061067e565b50505050905090810190601f1680156106c65780820380516001836020036101000a031916815260200191505b50858103845288818151815260200191508051906020019080838360005b838110156106ff5780820151818401526020810190506106e4565b50505050905090810190601f16801561072c5780820380516001836020036101000a031916815260200191505b50858103835287818151815260200191508051906020019080838360005b8381101561076557808201518184015260208101905061074a565b50505050905090810190601f1680156107925780820380516001836020036101000a031916815260200191505b50858103825286818151815260200191508051906020019080838360005b838110156107cb5780820151818401526020810190506107b0565b50505050905090810190601f1680156107f85780820380516001836020036101000a031916815260200191505b509a505050505050505050505060405180910390f35b341561081957600080fd5b610821611615565b6040518082815260200191505060405180910390f35b341561084257600080fd5b61084a611620565b604051808273ffffffffffffffffffffffffffffffffffffffff1673ffffffffffffffffffffffffffffffffffffffff16815260200191505060405180910390f35b6109ae600480803590602001909190803590602001908201803590602001908080601f0160208091040260200160405190810160405280939291908181526020018383808284378201915050505050509190803590602001908201803590602001908080601f0160208091040260200160405190810160405280939291908181526020018383808284378201915050505050509190803590602001908201803590602001908080601f0160208091040260200160405190810160405280939291908181526020018383808284378201915050505050509190803590602001908201803590602001908080601f01602080910402602001604051908101604052809392919081815260200183838082843782019150505050505091905050611646565b005b34156109bb57600080fd5b6109c3611784565b6040518082815260200191505060405180910390f35b34156109e457600080fd5b6109ec61178a565b6040518080602001828103825283818151815260200191508051906020019080838360005b83811015610a2c578082015181840152602081019050610a11565b50505050905090810190601f168015610a595780820380516001836020036101000a031916815260200191505b509250505060405180910390f35b3415610a7257600080fd5b610aa7600480803573ffffffffffffffffffffffffffffffffffffffff169060200190919080359060200190919050506117c3565b005b3415610ab457600080fd5b610aca6004808035906020019091905050611816565b005b3415610ad757600080fd5b610aed6004808035906020019091905050611841565b6040518082815260200191505060405180910390f35b3415610b0e57600080fd5b610b16611897565b604051808273ffffffffffffffffffffffffffffffffffffffff1673ffffffffffffffffffffffffffffffffffffffff16815260200191505060405180910390f35b3415610b6357600080fd5b610b7960048080359060200190919050506118af565b6040518082815260200191505060405180910390f35b3415610b9a57600080fd5b610bb060048080359060200190919050506118f1565b6040518082815260200191505060405180910390f35b3415610bd157600080fd5b610bfd600480803573ffffffffffffffffffffffffffffffffffffffff16906020019091905050611947565b005b3415610c0a57600080fd5b610c12611a9f565b6040518080602001828103825283818151815260200191508051906020019080838360005b83811015610c52578082015181840152602081019050610c37565b50505050905090810190601f168015610c7f5780820380516001836020036101000a031916815260200191505b509250505060405180910390f35b6000813373ffffffffffffffffffffffffffffffffffffffff16610cb082611128565b73ffffffffffffffffffffffffffffffffffffffff16141515610cd257600080fd5b610cdb83611128565b91508173ffffffffffffffffffffffffffffffffffffffff168473ffffffffffffffffffffffffffffffffffffffff1614151515610d1857600080fd5b6000610d2384610ed5565b73ffffffffffffffffffffffffffffffffffffffff16141580610d5d575060008473ffffffffffffffffffffffffffffffffffffffff1614155b15610e1a57836002600085815260200190815260200160002060006101000a81548173ffffffffffffffffffffffffffffffffffffffff021916908373ffffffffffffffffffffffffffffffffffffffff1602179055508373ffffffffffffffffffffffffffffffffffffffff168273ffffffffffffffffffffffffffffffffffffffff167f8c5be1e5ebec7d5bd14f71427d1e84f3dd0314c0f7b2291e5b200ac8c7c3b925856040518082815260200191505060405180910390a35b50505050565b600073a867f9035a5e48e40bb10c82e599aa05217ab370905090565b610e4461220f565b6040805190810160405280600381526020017f4541440000000000000000000000000000000000000000000000000000000000815250905090565b610e8761220f565b6040805190810160405280600681526020017f4574684164730000000000000000000000000000000000000000000000000000815250905090565b60008054905090565b6000600654905090565b60006002600083815260200190815260200160002060009054906101000a900473ffffffffffffffffffffffffffffffffffffffff169050919050565b600080826000600760008381526020019081526020016000205414151515610f3957600080fd5b600760008581526020019081526020016000205491506002820292505050919050565b6000806000806000876000600760008381526020019081526020016000205414151515610f8857600080fd5b610f9189610f12565b9550853410151515610fa257600080fd5b610fab89611128565b9450610fb5610e20565b9350610fc285338b611ad8565b85600760008b81526020019081526020016000208190555087600960008b81526020019081526020016000209080519060200190611001929190612223565b5086600b60008b81526020019081526020016000209080519060200190611029929190612223565b50611033896118f1565b925061103e89611841565b91508473ffffffffffffffffffffffffffffffffffffffff166108fc839081150290604051600060405180830381858888f19350505050151561108057600080fd5b505050505050505050565b6110936122a3565b600360008373ffffffffffffffffffffffffffffffffffffffff1673ffffffffffffffffffffffffffffffffffffffff16815260200190815260200160002080548060200260200160405190810160405280929190818152602001828054801561111c57602002820191906000526020600020905b815481526020019060010190808311611108575b50505050509050919050565b6000806001600084815260200190815260200160002060009054906101000a900473ffffffffffffffffffffffffffffffffffffffff169050600073ffffffffffffffffffffffffffffffffffffffff168173ffffffffffffffffffffffffffffffffffffffff161415151561119d57600080fd5b80915050919050565b6000600360008373ffffffffffffffffffffffffffffffffffffffff1673ffffffffffffffffffffffffffffffffffffffff168152602001908152602001600020805490509050919050565b600560009054906101000a900473ffffffffffffffffffffffffffffffffffffffff1673ffffffffffffffffffffffffffffffffffffffff163373ffffffffffffffffffffffffffffffffffffffff1614151561124e57600080fd5b600560009054906101000a900473ffffffffffffffffffffffffffffffffffffffff1673ffffffffffffffffffffffffffffffffffffffff166108fc3073ffffffffffffffffffffffffffffffffffffffff16319081150290604051600060405180830381858888f1935050505015156112c757600080fd5b565b6112d161220f565b6000806112dc61220f565b6112e461220f565b6112ec61220f565b6000806000806000808c600060076000838152602001908152602001600020541415151561131957600080fd5b600860008f815260200190815260200160002096506113378e611128565b95506113428e610f12565b9450600960008f81526020019081526020016000209350600a60008f81526020019081526020016000209250600b60008f81526020019081526020016000209150868686868686858054600181600116156101000203166002900480601f01602080910402602001604051908101604052809291908181526020018280546001816001161561010002031660029004801561141e5780601f106113f35761010080835404028352916020019161141e565b820191906000526020600020905b81548152906001019060200180831161140157829003601f168201915b50505050509550828054600181600116156101000203166002900480601f0160208091040260200160405190810160405280929190818152602001828054600181600116156101000203166002900480156114ba5780601f1061148f576101008083540402835291602001916114ba565b820191906000526020600020905b81548152906001019060200180831161149d57829003601f168201915b50505050509250818054600181600116156101000203166002900480601f0160208091040260200160405190810160405280929190818152602001828054600181600116156101000203166002900480156115565780601f1061152b57610100808354040283529160200191611556565b820191906000526020600020905b81548152906001019060200180831161153957829003601f168201915b50505050509150808054600181600116156101000203166002900480601f0160208091040260200160405190810160405280929190818152602001828054600181600116156101000203166002900480156115f25780601f106115c7576101008083540402835291602001916115f2565b820191906000526020600020905b8154815290600101906020018083116115d557829003601f168201915b505050505090509c509c509c509c509c509c505050505050505091939550919395565b6601c6bf5263400081565b600560009054906101000a900473ffffffffffffffffffffffffffffffffffffffff1681565b600560009054906101000a900473ffffffffffffffffffffffffffffffffffffffff1673ffffffffffffffffffffffffffffffffffffffff163373ffffffffffffffffffffffffffffffffffffffff161415156116a257600080fd5b6116ac3386611c21565b600660008154809291906001019190505550836008600087815260200190815260200160002090805190602001906116e5929190612223565b508260096000878152602001908152602001600020908051906020019061170d929190612223565b506601c6bf52634000600760008781526020019081526020016000208190555081600a60008781526020019081526020016000209080519060200190611754929190612223565b5080600b6000878152602001908152602001600020908051906020019061177c929190612223565b505050505050565b60065481565b6040805190810160405280600681526020017f457468416473000000000000000000000000000000000000000000000000000081525081565b803373ffffffffffffffffffffffffffffffffffffffff166117e482611128565b73ffffffffffffffffffffffffffffffffffffffff1614151561180657600080fd5b611811338484611ad8565b505050565b6118203382611cbb565b151561182b57600080fd5b61183e61183782611128565b3383611ad8565b50565b60008082600060076000838152602001908152602001600020541415151561186857600080fd5b6007600085815260200190815260200160002054915060646043830281151561188d57fe5b0492505050919050565b73a867f9035a5e48e40bb10c82e599aa05217ab37081565b60008160006007600083815260200190815260200160002054141515156118d557600080fd5b6007600084815260200190815260200160002054915050919050565b60008082600060076000838152602001908152602001600020541415151561191857600080fd5b6007600085815260200190815260200160002054915060646021830281151561193d57fe5b0492505050919050565b600560009054906101000a900473ffffffffffffffffffffffffffffffffffffffff1673ffffffffffffffffffffffffffffffffffffffff163373ffffffffffffffffffffffffffffffffffffffff161415156119a357600080fd5b600073ffffffffffffffffffffffffffffffffffffffff168173ffffffffffffffffffffffffffffffffffffffff16141515156119df57600080fd5b8073ffffffffffffffffffffffffffffffffffffffff16600560009054906101000a900473ffffffffffffffffffffffffffffffffffffffff1673ffffffffffffffffffffffffffffffffffffffff167f8be0079c531659141344cd1fd0a4f28419497f9722a3daafe3b4186f6b6457e060405160405180910390a380600560006101000a81548173ffffffffffffffffffffffffffffffffffffffff021916908373ffffffffffffffffffffffffffffffffffffffff16021790555050565b6040805190810160405280600381526020017f454144000000000000000000000000000000000000000000000000000000000081525081565b600073ffffffffffffffffffffffffffffffffffffffff168273ffffffffffffffffffffffffffffffffffffffff1614151515611b1457600080fd5b611b1d81611128565b73ffffffffffffffffffffffffffffffffffffffff168273ffffffffffffffffffffffffffffffffffffffff1614151515611b5757600080fd5b8273ffffffffffffffffffffffffffffffffffffffff16611b7782611128565b73ffffffffffffffffffffffffffffffffffffffff16141515611b9957600080fd5b611ba38382611cfc565b611bad8382611de5565b611bb7828261206d565b8173ffffffffffffffffffffffffffffffffffffffff168373ffffffffffffffffffffffffffffffffffffffff167fddf252ad1be2c89b69c2b068fc378daa952ba7f163c4a11628f55a4df523b3ef836040518082815260200191505060405180910390a3505050565b600073ffffffffffffffffffffffffffffffffffffffff168273ffffffffffffffffffffffffffffffffffffffff1614151515611c5d57600080fd5b611c67828261206d565b8173ffffffffffffffffffffffffffffffffffffffff1660007fddf252ad1be2c89b69c2b068fc378daa952ba7f163c4a11628f55a4df523b3ef836040518082815260200191505060405180910390a35050565b60008273ffffffffffffffffffffffffffffffffffffffff16611cdd83610ed5565b73ffffffffffffffffffffffffffffffffffffffff1614905092915050565b8173ffffffffffffffffffffffffffffffffffffffff16611d1c82611128565b73ffffffffffffffffffffffffffffffffffffffff16141515611d3e57600080fd5b60006002600083815260200190815260200160002060006101000a81548173ffffffffffffffffffffffffffffffffffffffff021916908373ffffffffffffffffffffffffffffffffffffffff16021790555060008273ffffffffffffffffffffffffffffffffffffffff167f8c5be1e5ebec7d5bd14f71427d1e84f3dd0314c0f7b2291e5b200ac8c7c3b925836040518082815260200191505060405180910390a35050565b60008060008473ffffffffffffffffffffffffffffffffffffffff16611e0a85611128565b73ffffffffffffffffffffffffffffffffffffffff16141515611e2c57600080fd5b60046000858152602001908152602001600020549250611e5e6001611e50876111a6565b6121d890919063ffffffff16565b9150600360008673ffffffffffffffffffffffffffffffffffffffff1673ffffffffffffffffffffffffffffffffffffffff16815260200190815260200160002082815481101515611eac57fe5b906000526020600020900154905060006001600086815260200190815260200160002060006101000a81548173ffffffffffffffffffffffffffffffffffffffff021916908373ffffffffffffffffffffffffffffffffffffffff16021790555080600360008773ffffffffffffffffffffffffffffffffffffffff1673ffffffffffffffffffffffffffffffffffffffff16815260200190815260200160002084815481101515611f5a57fe5b9060005260206000209001819055506000600360008773ffffffffffffffffffffffffffffffffffffffff1673ffffffffffffffffffffffffffffffffffffffff16815260200190815260200160002083815481101515611fb757fe5b906000526020600020900181905550600360008673ffffffffffffffffffffffffffffffffffffffff1673ffffffffffffffffffffffffffffffffffffffff16815260200190815260200160002080548091906001900361201891906122b7565b506000600460008681526020019081526020016000208190555082600460008381526020019081526020016000208190555061206060016000546121d890919063ffffffff16565b6000819055505050505050565b60008073ffffffffffffffffffffffffffffffffffffffff166001600084815260200190815260200160002060009054906101000a900473ffffffffffffffffffffffffffffffffffffffff1673ffffffffffffffffffffffffffffffffffffffff161415156120dc57600080fd5b826001600084815260200190815260200160002060006101000a81548173ffffffffffffffffffffffffffffffffffffffff021916908373ffffffffffffffffffffffffffffffffffffffff160217905550612137836111a6565b9050600360008473ffffffffffffffffffffffffffffffffffffffff1673ffffffffffffffffffffffffffffffffffffffff168152602001908152602001600020805480600101828161218a91906122e3565b9160005260206000209001600084909190915055508060046000848152602001908152602001600020819055506121cd60016000546121f190919063ffffffff16565b600081905550505050565b60008282111515156121e657fe5b818303905092915050565b600080828401905083811015151561220557fe5b8091505092915050565b602060405190810160405280600081525090565b828054600181600116156101000203166002900490600052602060002090601f016020900481019282601f1061226457805160ff1916838001178555612292565b82800160010185558215612292579182015b82811115612291578251825591602001919060010190612276565b5b50905061229f919061230f565b5090565b602060405190810160405280600081525090565b8154818355818115116122de578183600052602060002091820191016122dd919061230f565b5b505050565b81548183558181151161230a57818360005260206000209182019101612309919061230f565b5b505050565b61233191905b8082111561232d576000816000905550600101612315565b5090565b905600a165627a7a7230582037b6c2e7eb988ee91e8ccfdc484599bcbb40bbce3a627aef7bfcfe959ca0729e0029",
  "source": "pragma solidity ^0.4.18;\n\nimport 'zeppelin-solidity/contracts/token/ERC721/ERC721Token.sol';\nimport 'zeppelin-solidity/contracts/ownership/Ownable.sol';\n\ncontract EtherAds is ERC721Token, Ownable {\n  string constant public NAME = \"EthAds\";\n  string constant public SYMBOL = \"EAD\";\n  address constant public DEV = 0xa867f9035A5e48E40bB10C82e599aA05217ab370;\n  uint256 constant public PRICE = 0.0005 ether;\n  uint256 public objectCount = 0;\n\n  mapping(uint256 => uint256) tokenToPriceMap;\n  mapping(uint256 => string) tokenToNameMap;\n  mapping(uint256 => string) tokenToUrlMap;\n  mapping(uint256 => string) tokenToDescriptionMap;\n  mapping(uint256 => string) tokenToImageUrlMap;\n  mapping(uint256 => string) tokenToDevMap;\n\n  Ad[] ads;\n\n  struct Ad {\n    string name;\n    string url;\n    string description;\n    string imageurl;\n    string dev; \n  }\n\n  function EtherAds() public {\n    mintObject(1, \"CASINO\", \"http://www.etherads.co\", \"casino\", \"https://www.ethereum.org/images/logos/ETHEREUM-ICON_Black_small.png\");\n    mintObject(2, \"ICO\", \"http://www.etherads.co\", \"ico\", \"https://www.ethereum.org/images/logos/ETHEREUM-ICON_Black_small.png\");\n    mintObject(3, \"EXCHANGE\", \"http://www.etherads.co\", \"exchange\", \"https://www.ethereum.org/images/logos/ETHEREUM-ICON_Black_small.png\");\n    mintObject(4, \"BITCOIN\", \"http://www.etherads.co\", \"bitcoin\", \"https://www.ethereum.org/images/logos/ETHEREUM-ICON_Black_small.png\");\n    mintObject(5, \"ETHEREUM\", \"http://www.etherads.co\", \"ethereum\", \"https://www.ethereum.org/images/logos/ETHEREUM-ICON_Black_small.png\");\n    mintObject(6, \"AUCTION\", \"http://www.etherads.co\", \"auction\", \"https://www.ethereum.org/images/logos/ETHEREUM-ICON_Black_small.png\");\n    mintObject(7, \"WALLET\", \"http://www.etherads.co\", \"wallet\", \"https://www.ethereum.org/images/logos/ETHEREUM-ICON_Black_small.png\");\n    mintObject(8, \"CRYPTO\", \"http://www.etherads.co\", \"crypto\", \"https://www.ethereum.org/images/logos/ETHEREUM-ICON_Black_small.png\");\n    mintObject(9, \"GAMES\", \"http://www.etherads.co\", \"games\", \"https://www.ethereum.org/images/logos/ETHEREUM-ICON_Black_small.png\");\n    mintObject(10, \"TOKENS\", \"http://www.etherads.co\", \"tokens\", \"https://www.ethereum.org/images/logos/ETHEREUM-ICON_Black_small.png\");\n  }\n\n  function getName() public pure returns(string) {\n    return NAME;\n  }\n\n  function getSymbol() public pure returns(string) {\n    return SYMBOL;\n  }\n\n  function getDev() public pure returns(address) {\n    return DEV;\n  }\n\n  function getObjectCount() public view returns (uint256) {\n    return objectCount;\n  }\n\n  function mintObject(uint256 adId, string name, string url, string description, string imageurl) public payable onlyOwner() {\n    _mint(msg.sender, adId);\n    objectCount++;\n    tokenToNameMap[adId] = name;\n    tokenToUrlMap[adId] = url;\n    tokenToPriceMap[adId] = PRICE;\n    tokenToDescriptionMap[adId] = description;\n    tokenToImageUrlMap[adId] = imageurl;\n  }\n\n  function buyAd(uint adId, string url, string img) public payable onlyMintedTokens(adId) {\n    //require enough ether\n    uint256 askingPrice = getAskingPrice(adId);\n    require(msg.value >= askingPrice);\n\n    //transfer ad ownership\n    address previousOwner = ownerOf(adId);\n    address devAddress = getDev();\n\n    clearApprovalAndTransfer(previousOwner, msg.sender, adId);\n\n    //update price\n    tokenToPriceMap[adId] = askingPrice;\n    tokenToUrlMap[adId] = (url);\n    tokenToImageUrlMap[adId] = (img);\n\n    //TODO: take dev cut\n    uint256 devcut = getDevCut(adId);\n    uint256 pocut = getPoCut(adId);\n\n    //send ether to previous owner\n    previousOwner.transfer(pocut);\n//    devAddress.transfer(devcut);\n  }\n\n  function getDevCut(uint256 adId) public view onlyMintedTokens(adId) returns(uint256) {\n    uint256 askingPrice = tokenToPriceMap[adId];\n    return askingPrice * 33 / 100;\n  }\n\n  function getPoCut(uint256 adId) public view onlyMintedTokens(adId) returns(uint256) {\n    uint256 askingPrice = tokenToPriceMap[adId];\n    return askingPrice * 67 / 100;\n  }\n\n\n  function getCurrentPrice(uint256 adId) public view onlyMintedTokens(adId) returns(uint256) {\n    return tokenToPriceMap[adId];\n  }\n\n  function getAskingPrice(uint256 adId) public view onlyMintedTokens(adId) returns(uint256) {\n    uint256 lastPrice = tokenToPriceMap[adId];\n//    if (lastPrice <= 0.04 ether) {\n      return lastPrice * 2;\n//    }\n//    if (lastPrice <= 0.25 ether) {\n//      return lastPrice * 2 ;\n//    }\n//    if (lastPrice <= 0.50 ether) {\n//      return lastPrice * 2;\n//    }\n//    if (lastPrice > 0.50 ether) {\n//      return lastPrice * 2;\n//   }\n//    return lastPrice;\n  }\n\n  function getAd(uint256 adId) public view onlyMintedTokens(adId) returns(string, address, uint256, string, string, string) {\n    string name = tokenToNameMap[adId];\n    address owner = ownerOf(adId);\n    uint256 askingPrice = getAskingPrice(adId);\n    string url = tokenToUrlMap[adId];\n    string description = tokenToDescriptionMap[adId];\n    string imageurl = tokenToImageUrlMap[adId];\n    return (name, owner, askingPrice, url, description, imageurl);\n  }\n\n  function withdrawEther() external onlyOwner {\n    owner.transfer(this.balance);\n  }\n\n  modifier onlyMintedTokens(uint256 adId) {\n    require(tokenToPriceMap[adId] != 0);\n    _;\n  }\n}\n",
  "sourcePath": "/home/norm/EtherAds/contracts/EtherAds.sol",
  "compiler": {
    "name": "solc",
    "version": "0.4.18+commit.9cf6e910.Emscripten.clang"
  },
  "schemaVersion": "1.0.1",
  "updatedAt": "2018-03-04T04:00:22.188Z"
}