{
  "contractName": "EtherAds",
  "abi": [
    {
      "constant": false,
      "inputs": [
        {
          "name": "_to",
          "type": "address"
        },
        {
          "name": "_tokenId",
          "type": "uint256"
        }
      ],
      "name": "approve",
      "outputs": [],
      "payable": false,
      "stateMutability": "nonpayable",
      "type": "function"
    },
    {
      "constant": true,
      "inputs": [],
      "name": "getSymbol",
      "outputs": [
        {
          "name": "",
          "type": "string"
        }
      ],
      "payable": false,
      "stateMutability": "pure",
      "type": "function"
    },
    {
      "constant": true,
      "inputs": [],
      "name": "getName",
      "outputs": [
        {
          "name": "",
          "type": "string"
        }
      ],
      "payable": false,
      "stateMutability": "pure",
      "type": "function"
    },
    {
      "constant": true,
      "inputs": [],
      "name": "totalSupply",
      "outputs": [
        {
          "name": "",
          "type": "uint256"
        }
      ],
      "payable": false,
      "stateMutability": "view",
      "type": "function"
    },
    {
      "constant": true,
      "inputs": [],
      "name": "getObjectCount",
      "outputs": [
        {
          "name": "",
          "type": "uint256"
        }
      ],
      "payable": false,
      "stateMutability": "view",
      "type": "function"
    },
    {
      "constant": true,
      "inputs": [
        {
          "name": "_tokenId",
          "type": "uint256"
        }
      ],
      "name": "approvedFor",
      "outputs": [
        {
          "name": "",
          "type": "address"
        }
      ],
      "payable": false,
      "stateMutability": "view",
      "type": "function"
    },
    {
      "constant": true,
      "inputs": [
        {
          "name": "adId",
          "type": "uint256"
        }
      ],
      "name": "getAskingPrice",
      "outputs": [
        {
          "name": "",
          "type": "uint256"
        }
      ],
      "payable": false,
      "stateMutability": "view",
      "type": "function"
    },
    {
      "constant": false,
      "inputs": [
        {
          "name": "adId",
          "type": "uint256"
        },
        {
          "name": "url",
          "type": "string"
        },
        {
          "name": "img",
          "type": "string"
        }
      ],
      "name": "buyAd",
      "outputs": [],
      "payable": true,
      "stateMutability": "payable",
      "type": "function"
    },
    {
      "constant": true,
      "inputs": [
        {
          "name": "_owner",
          "type": "address"
        }
      ],
      "name": "tokensOf",
      "outputs": [
        {
          "name": "",
          "type": "uint256[]"
        }
      ],
      "payable": false,
      "stateMutability": "view",
      "type": "function"
    },
    {
      "constant": true,
      "inputs": [
        {
          "name": "_tokenId",
          "type": "uint256"
        }
      ],
      "name": "ownerOf",
      "outputs": [
        {
          "name": "",
          "type": "address"
        }
      ],
      "payable": false,
      "stateMutability": "view",
      "type": "function"
    },
    {
      "constant": true,
      "inputs": [
        {
          "name": "_owner",
          "type": "address"
        }
      ],
      "name": "balanceOf",
      "outputs": [
        {
          "name": "",
          "type": "uint256"
        }
      ],
      "payable": false,
      "stateMutability": "view",
      "type": "function"
    },
    {
      "constant": false,
      "inputs": [],
      "name": "withdrawEther",
      "outputs": [],
      "payable": false,
      "stateMutability": "nonpayable",
      "type": "function"
    },
    {
      "constant": true,
      "inputs": [
        {
          "name": "adId",
          "type": "uint256"
        }
      ],
      "name": "getAd",
      "outputs": [
        {
          "name": "",
          "type": "string"
        },
        {
          "name": "",
          "type": "address"
        },
        {
          "name": "",
          "type": "uint256"
        },
        {
          "name": "",
          "type": "string"
        },
        {
          "name": "",
          "type": "string"
        },
        {
          "name": "",
          "type": "string"
        }
      ],
      "payable": false,
      "stateMutability": "view",
      "type": "function"
    },
    {
      "constant": true,
      "inputs": [],
      "name": "PRICE",
      "outputs": [
        {
          "name": "",
          "type": "uint256"
        }
      ],
      "payable": false,
      "stateMutability": "view",
      "type": "function"
    },
    {
      "constant": true,
      "inputs": [],
      "name": "owner",
      "outputs": [
        {
          "name": "",
          "type": "address"
        }
      ],
      "payable": false,
      "stateMutability": "view",
      "type": "function"
    },
    {
      "constant": false,
      "inputs": [
        {
          "name": "adId",
          "type": "uint256"
        },
        {
          "name": "name",
          "type": "string"
        },
        {
          "name": "url",
          "type": "string"
        },
        {
          "name": "description",
          "type": "string"
        },
        {
          "name": "imageurl",
          "type": "string"
        }
      ],
      "name": "mintObject",
      "outputs": [],
      "payable": true,
      "stateMutability": "payable",
      "type": "function"
    },
    {
      "constant": true,
      "inputs": [],
      "name": "objectCount",
      "outputs": [
        {
          "name": "",
          "type": "uint256"
        }
      ],
      "payable": false,
      "stateMutability": "view",
      "type": "function"
    },
    {
      "constant": true,
      "inputs": [],
      "name": "NAME",
      "outputs": [
        {
          "name": "",
          "type": "string"
        }
      ],
      "payable": false,
      "stateMutability": "view",
      "type": "function"
    },
    {
      "constant": false,
      "inputs": [
        {
          "name": "_to",
          "type": "address"
        },
        {
          "name": "_tokenId",
          "type": "uint256"
        }
      ],
      "name": "transfer",
      "outputs": [],
      "payable": false,
      "stateMutability": "nonpayable",
      "type": "function"
    },
    {
      "constant": false,
      "inputs": [
        {
          "name": "_tokenId",
          "type": "uint256"
        }
      ],
      "name": "takeOwnership",
      "outputs": [],
      "payable": false,
      "stateMutability": "nonpayable",
      "type": "function"
    },
    {
      "constant": true,
      "inputs": [
        {
          "name": "adId",
          "type": "uint256"
        }
      ],
      "name": "getPoCut",
      "outputs": [
        {
          "name": "",
          "type": "uint256"
        }
      ],
      "payable": false,
      "stateMutability": "view",
      "type": "function"
    },
    {
      "constant": true,
      "inputs": [
        {
          "name": "adId",
          "type": "uint256"
        }
      ],
      "name": "getCurrentPrice",
      "outputs": [
        {
          "name": "",
          "type": "uint256"
        }
      ],
      "payable": false,
      "stateMutability": "view",
      "type": "function"
    },
    {
      "constant": true,
      "inputs": [
        {
          "name": "adId",
          "type": "uint256"
        }
      ],
      "name": "getDevCut",
      "outputs": [
        {
          "name": "",
          "type": "uint256"
        }
      ],
      "payable": false,
      "stateMutability": "view",
      "type": "function"
    },
    {
      "constant": false,
      "inputs": [
        {
          "name": "newOwner",
          "type": "address"
        }
      ],
      "name": "transferOwnership",
      "outputs": [],
      "payable": false,
      "stateMutability": "nonpayable",
      "type": "function"
    },
    {
      "constant": true,
      "inputs": [],
      "name": "SYMBOL",
      "outputs": [
        {
          "name": "",
          "type": "string"
        }
      ],
      "payable": false,
      "stateMutability": "view",
      "type": "function"
    },
    {
      "inputs": [],
      "payable": false,
      "stateMutability": "nonpayable",
      "type": "constructor"
    },
    {
      "anonymous": false,
      "inputs": [
        {
          "indexed": true,
          "name": "previousOwner",
          "type": "address"
        },
        {
          "indexed": true,
          "name": "newOwner",
          "type": "address"
        }
      ],
      "name": "OwnershipTransferred",
      "type": "event"
    },
    {
      "anonymous": false,
      "inputs": [
        {
          "indexed": true,
          "name": "_from",
          "type": "address"
        },
        {
          "indexed": true,
          "name": "_to",
          "type": "address"
        },
        {
          "indexed": false,
          "name": "_tokenId",
          "type": "uint256"
        }
      ],
      "name": "Transfer",
      "type": "event"
    },
    {
      "anonymous": false,
      "inputs": [
        {
          "indexed": true,
          "name": "_owner",
          "type": "address"
        },
        {
          "indexed": true,
          "name": "_approved",
          "type": "address"
        },
        {
          "indexed": false,
          "name": "_tokenId",
          "type": "uint256"
        }
      ],
      "name": "Approval",
      "type": "event"
    }
  ],
  "bytecode": "0x6060604052600060065534156200001557600080fd5b33600560006101000a81548173ffffffffffffffffffffffffffffffffffffffff021916908373ffffffffffffffffffffffffffffffffffffffff1602179055506200019b60016040805190810160405280600681526020017f434153494e4f00000000000000000000000000000000000000000000000000008152506040805190810160405280601681526020017f687474703a2f2f7777772e65746865726164732e636f000000000000000000008152506040805190810160405280600681526020017f636173696e6f0000000000000000000000000000000000000000000000000000815250608060405190810160405280604381526020017f68747470733a2f2f7777772e657468657265756d2e6f72672f696d616765732f81526020017f6c6f676f732f455448455245554d2d49434f4e5f426c61636b5f736d616c6c2e81526020017f706e67000000000000000000000000000000000000000000000000000000000081525062000d0e6401000000000262001550176401000000009004565b620002e060026040805190810160405280600381526020017f49434f00000000000000000000000000000000000000000000000000000000008152506040805190810160405280601681526020017f687474703a2f2f7777772e65746865726164732e636f000000000000000000008152506040805190810160405280600381526020017f69636f0000000000000000000000000000000000000000000000000000000000815250608060405190810160405280604381526020017f68747470733a2f2f7777772e657468657265756d2e6f72672f696d616765732f81526020017f6c6f676f732f455448455245554d2d49434f4e5f426c61636b5f736d616c6c2e81526020017f706e67000000000000000000000000000000000000000000000000000000000081525062000d0e6401000000000262001550176401000000009004565b6200042560036040805190810160405280600881526020017f45584348414e47450000000000000000000000000000000000000000000000008152506040805190810160405280601681526020017f687474703a2f2f7777772e65746865726164732e636f000000000000000000008152506040805190810160405280600881526020017f65786368616e6765000000000000000000000000000000000000000000000000815250608060405190810160405280604381526020017f68747470733a2f2f7777772e657468657265756d2e6f72672f696d616765732f81526020017f6c6f676f732f455448455245554d2d49434f4e5f426c61636b5f736d616c6c2e81526020017f706e67000000000000000000000000000000000000000000000000000000000081525062000d0e6401000000000262001550176401000000009004565b6200056a60046040805190810160405280600781526020017f424954434f494e000000000000000000000000000000000000000000000000008152506040805190810160405280601681526020017f687474703a2f2f7777772e65746865726164732e636f000000000000000000008152506040805190810160405280600781526020017f626974636f696e00000000000000000000000000000000000000000000000000815250608060405190810160405280604381526020017f68747470733a2f2f7777772e657468657265756d2e6f72672f696d616765732f81526020017f6c6f676f732f455448455245554d2d49434f4e5f426c61636b5f736d616c6c2e81526020017f706e67000000000000000000000000000000000000000000000000000000000081525062000d0e6401000000000262001550176401000000009004565b620006af60056040805190810160405280600881526020017f455448455245554d0000000000000000000000000000000000000000000000008152506040805190810160405280601681526020017f687474703a2f2f7777772e65746865726164732e636f000000000000000000008152506040805190810160405280600881526020017f657468657265756d000000000000000000000000000000000000000000000000815250608060405190810160405280604381526020017f68747470733a2f2f7777772e657468657265756d2e6f72672f696d616765732f81526020017f6c6f676f732f455448455245554d2d49434f4e5f426c61636b5f736d616c6c2e81526020017f706e67000000000000000000000000000000000000000000000000000000000081525062000d0e6401000000000262001550176401000000009004565b620007f460066040805190810160405280600781526020017f41554354494f4e000000000000000000000000000000000000000000000000008152506040805190810160405280601681526020017f687474703a2f2f7777772e65746865726164732e636f000000000000000000008152506040805190810160405280600781526020017f61756374696f6e00000000000000000000000000000000000000000000000000815250608060405190810160405280604381526020017f68747470733a2f2f7777772e657468657265756d2e6f72672f696d616765732f81526020017f6c6f676f732f455448455245554d2d49434f4e5f426c61636b5f736d616c6c2e81526020017f706e67000000000000000000000000000000000000000000000000000000000081525062000d0e6401000000000262001550176401000000009004565b6200093960076040805190810160405280600681526020017f57414c4c455400000000000000000000000000000000000000000000000000008152506040805190810160405280601681526020017f687474703a2f2f7777772e65746865726164732e636f000000000000000000008152506040805190810160405280600681526020017f77616c6c65740000000000000000000000000000000000000000000000000000815250608060405190810160405280604381526020017f68747470733a2f2f7777772e657468657265756d2e6f72672f696d616765732f81526020017f6c6f676f732f455448455245554d2d49434f4e5f426c61636b5f736d616c6c2e81526020017f706e67000000000000000000000000000000000000000000000000000000000081525062000d0e6401000000000262001550176401000000009004565b62000a7e60086040805190810160405280600681526020017f43525950544f00000000000000000000000000000000000000000000000000008152506040805190810160405280601681526020017f687474703a2f2f7777772e65746865726164732e636f000000000000000000008152506040805190810160405280600681526020017f63727970746f0000000000000000000000000000000000000000000000000000815250608060405190810160405280604381526020017f68747470733a2f2f7777772e657468657265756d2e6f72672f696d616765732f81526020017f6c6f676f732f455448455245554d2d49434f4e5f426c61636b5f736d616c6c2e81526020017f706e67000000000000000000000000000000000000000000000000000000000081525062000d0e6401000000000262001550176401000000009004565b62000bc360096040805190810160405280600581526020017f47414d45530000000000000000000000000000000000000000000000000000008152506040805190810160405280601681526020017f687474703a2f2f7777772e65746865726164732e636f000000000000000000008152506040805190810160405280600581526020017f67616d6573000000000000000000000000000000000000000000000000000000815250608060405190810160405280604381526020017f68747470733a2f2f7777772e657468657265756d2e6f72672f696d616765732f81526020017f6c6f676f732f455448455245554d2d49434f4e5f426c61636b5f736d616c6c2e81526020017f706e67000000000000000000000000000000000000000000000000000000000081525062000d0e6401000000000262001550176401000000009004565b62000d08600a6040805190810160405280600681526020017f544f4b454e5300000000000000000000000000000000000000000000000000008152506040805190810160405280601681526020017f687474703a2f2f7777772e65746865726164732e636f000000000000000000008152506040805190810160405280600681526020017f746f6b656e730000000000000000000000000000000000000000000000000000815250608060405190810160405280604381526020017f68747470733a2f2f7777772e657468657265756d2e6f72672f696d616765732f81526020017f6c6f676f732f455448455245554d2d49434f4e5f426c61636b5f736d616c6c2e81526020017f706e67000000000000000000000000000000000000000000000000000000000081525062000d0e6401000000000262001550176401000000009004565b620011f9565b600560009054906101000a900473ffffffffffffffffffffffffffffffffffffffff1673ffffffffffffffffffffffffffffffffffffffff163373ffffffffffffffffffffffffffffffffffffffff1614151562000d6b57600080fd5b62000d8b338662000e6b6401000000000262001b13176401000000009004565b6006600081548092919060010191905055508360086000878152602001908152602001600020908051906020019062000dc69291906200111b565b508260096000878152602001908152602001600020908051906020019062000df09291906200111b565b506601c6bf52634000600760008781526020019081526020016000208190555081600a6000878152602001908152602001600020908051906020019062000e399291906200111b565b5080600b6000878152602001908152602001600020908051906020019062000e639291906200111b565b505050505050565b600073ffffffffffffffffffffffffffffffffffffffff168273ffffffffffffffffffffffffffffffffffffffff161415151562000ea857600080fd5b62000ec8828262000f1c6401000000000262001f5f176401000000009004565b8173ffffffffffffffffffffffffffffffffffffffff1660007fddf252ad1be2c89b69c2b068fc378daa952ba7f163c4a11628f55a4df523b3ef836040518082815260200191505060405180910390a35050565b60008073ffffffffffffffffffffffffffffffffffffffff166001600084815260200190815260200160002060009054906101000a900473ffffffffffffffffffffffffffffffffffffffff1673ffffffffffffffffffffffffffffffffffffffff1614151562000f8c57600080fd5b826001600084815260200190815260200160002060006101000a81548173ffffffffffffffffffffffffffffffffffffffff021916908373ffffffffffffffffffffffffffffffffffffffff16021790555062000ffd83620010b064010000000002620010b0176401000000009004565b9050600360008473ffffffffffffffffffffffffffffffffffffffff1673ffffffffffffffffffffffffffffffffffffffff1681526020019081526020016000208054806001018281620010529190620011a2565b916000526020600020900160008490919091505550806004600084815260200190815260200160002081905550620010a56001600054620010fc64010000000002620020e3179091906401000000009004565b600081905550505050565b6000600360008373ffffffffffffffffffffffffffffffffffffffff1673ffffffffffffffffffffffffffffffffffffffff168152602001908152602001600020805490509050919050565b60008082840190508381101515156200111157fe5b8091505092915050565b828054600181600116156101000203166002900490600052602060002090601f016020900481019282601f106200115e57805160ff19168380011785556200118f565b828001600101855582156200118f579182015b828111156200118e57825182559160200191906001019062001171565b5b5090506200119e9190620011d1565b5090565b815481835581811511620011cc57818360005260206000209182019101620011cb9190620011d1565b5b505050565b620011f691905b80821115620011f2576000816000905550600101620011d8565b5090565b90565b61225280620012096000396000f300606060405260043610610149576000357c0100000000000000000000000000000000000000000000000000000000900463ffffffff168063095ea7b31461014e578063150704011461019057806317d7de7c1461021e57806318160ddd146102ac5780631a848cfb146102d55780632a6dd48f146102fe578063451ba24c146103615780634f26ef80146103985780635a3f2672146104365780636352211e146104c457806370a08231146105275780637362377b146105745780637ede1c07146105895780638d859f3e146107a35780638da5cb5b146107cc578063902e74f21461082157806396c5892c14610945578063a3f4df7e1461096e578063a9059cbb146109fc578063b2e6ceeb14610a3e578063c0dbed6d14610a61578063c55d0f5614610a98578063ec0d487b14610acf578063f2fde38b14610b06578063f76f8d7814610b3f575b600080fd5b341561015957600080fd5b61018e600480803573ffffffffffffffffffffffffffffffffffffffff16906020019091908035906020019091905050610bcd565b005b341561019b57600080fd5b6101a3610d60565b6040518080602001828103825283818151815260200191508051906020019080838360005b838110156101e35780820151818401526020810190506101c8565b50505050905090810190601f1680156102105780820380516001836020036101000a031916815260200191505b509250505060405180910390f35b341561022957600080fd5b610231610da3565b6040518080602001828103825283818151815260200191508051906020019080838360005b83811015610271578082015181840152602081019050610256565b50505050905090810190601f16801561029e5780820380516001836020036101000a031916815260200191505b509250505060405180910390f35b34156102b757600080fd5b6102bf610de6565b6040518082815260200191505060405180910390f35b34156102e057600080fd5b6102e8610def565b6040518082815260200191505060405180910390f35b341561030957600080fd5b61031f6004808035906020019091905050610df9565b604051808273ffffffffffffffffffffffffffffffffffffffff1673ffffffffffffffffffffffffffffffffffffffff16815260200191505060405180910390f35b341561036c57600080fd5b6103826004808035906020019091905050610e36565b6040518082815260200191505060405180910390f35b610434600480803590602001909190803590602001908201803590602001908080601f0160208091040260200160405190810160405280939291908181526020018383808284378201915050505050509190803590602001908201803590602001908080601f01602080910402602001604051908101604052809392919081815260200183838082843782019150505050505091905050610e80565b005b341561044157600080fd5b61046d600480803573ffffffffffffffffffffffffffffffffffffffff16906020019091905050610f95565b6040518080602001828103825283818151815260200191508051906020019060200280838360005b838110156104b0578082015181840152602081019050610495565b505050509050019250505060405180910390f35b34156104cf57600080fd5b6104e56004808035906020019091905050611032565b604051808273ffffffffffffffffffffffffffffffffffffffff1673ffffffffffffffffffffffffffffffffffffffff16815260200191505060405180910390f35b341561053257600080fd5b61055e600480803573ffffffffffffffffffffffffffffffffffffffff169060200190919050506110b0565b6040518082815260200191505060405180910390f35b341561057f57600080fd5b6105876110fc565b005b341561059457600080fd5b6105aa60048080359060200190919050506111d3565b60405180806020018773ffffffffffffffffffffffffffffffffffffffff1673ffffffffffffffffffffffffffffffffffffffff16815260200186815260200180602001806020018060200185810385528b818151815260200191508051906020019080838360005b8381101561062e578082015181840152602081019050610613565b50505050905090810190601f16801561065b5780820380516001836020036101000a031916815260200191505b50858103845288818151815260200191508051906020019080838360005b83811015610694578082015181840152602081019050610679565b50505050905090810190601f1680156106c15780820380516001836020036101000a031916815260200191505b50858103835287818151815260200191508051906020019080838360005b838110156106fa5780820151818401526020810190506106df565b50505050905090810190601f1680156107275780820380516001836020036101000a031916815260200191505b50858103825286818151815260200191508051906020019080838360005b83811015610760578082015181840152602081019050610745565b50505050905090810190601f16801561078d5780820380516001836020036101000a031916815260200191505b509a505050505050505050505060405180910390f35b34156107ae57600080fd5b6107b661151f565b6040518082815260200191505060405180910390f35b34156107d757600080fd5b6107df61152a565b604051808273ffffffffffffffffffffffffffffffffffffffff1673ffffffffffffffffffffffffffffffffffffffff16815260200191505060405180910390f35b610943600480803590602001909190803590602001908201803590602001908080601f0160208091040260200160405190810160405280939291908181526020018383808284378201915050505050509190803590602001908201803590602001908080601f0160208091040260200160405190810160405280939291908181526020018383808284378201915050505050509190803590602001908201803590602001908080601f0160208091040260200160405190810160405280939291908181526020018383808284378201915050505050509190803590602001908201803590602001908080601f01602080910402602001604051908101604052809392919081815260200183838082843782019150505050505091905050611550565b005b341561095057600080fd5b61095861168e565b6040518082815260200191505060405180910390f35b341561097957600080fd5b610981611694565b6040518080602001828103825283818151815260200191508051906020019080838360005b838110156109c15780820151818401526020810190506109a6565b50505050905090810190601f1680156109ee5780820380516001836020036101000a031916815260200191505b509250505060405180910390f35b3415610a0757600080fd5b610a3c600480803573ffffffffffffffffffffffffffffffffffffffff169060200190919080359060200190919050506116cd565b005b3415610a4957600080fd5b610a5f6004808035906020019091905050611720565b005b3415610a6c57600080fd5b610a82600480803590602001909190505061174b565b6040518082815260200191505060405180910390f35b3415610aa357600080fd5b610ab960048080359060200190919050506117a1565b6040518082815260200191505060405180910390f35b3415610ada57600080fd5b610af060048080359060200190919050506117e3565b6040518082815260200191505060405180910390f35b3415610b1157600080fd5b610b3d600480803573ffffffffffffffffffffffffffffffffffffffff16906020019091905050611839565b005b3415610b4a57600080fd5b610b52611991565b6040518080602001828103825283818151815260200191508051906020019080838360005b83811015610b92578082015181840152602081019050610b77565b50505050905090810190601f168015610bbf5780820380516001836020036101000a031916815260200191505b509250505060405180910390f35b6000813373ffffffffffffffffffffffffffffffffffffffff16610bf082611032565b73ffffffffffffffffffffffffffffffffffffffff16141515610c1257600080fd5b610c1b83611032565b91508173ffffffffffffffffffffffffffffffffffffffff168473ffffffffffffffffffffffffffffffffffffffff1614151515610c5857600080fd5b6000610c6384610df9565b73ffffffffffffffffffffffffffffffffffffffff16141580610c9d575060008473ffffffffffffffffffffffffffffffffffffffff1614155b15610d5a57836002600085815260200190815260200160002060006101000a81548173ffffffffffffffffffffffffffffffffffffffff021916908373ffffffffffffffffffffffffffffffffffffffff1602179055508373ffffffffffffffffffffffffffffffffffffffff168273ffffffffffffffffffffffffffffffffffffffff167f8c5be1e5ebec7d5bd14f71427d1e84f3dd0314c0f7b2291e5b200ac8c7c3b925856040518082815260200191505060405180910390a35b50505050565b610d68612101565b6040805190810160405280600381526020017f4541440000000000000000000000000000000000000000000000000000000000815250905090565b610dab612101565b6040805190810160405280600681526020017f4574684164730000000000000000000000000000000000000000000000000000815250905090565b60008054905090565b6000600654905090565b60006002600083815260200190815260200160002060009054906101000a900473ffffffffffffffffffffffffffffffffffffffff169050919050565b600080826000600760008381526020019081526020016000205414151515610e5d57600080fd5b600760008581526020019081526020016000205491506002820292505050919050565b6000806000856000600760008381526020019081526020016000205414151515610ea957600080fd5b610eb287610e36565b9350833410151515610ec357600080fd5b610ecc87611032565b9250610ed98333896119ca565b83600760008981526020019081526020016000208190555085600960008981526020019081526020016000209080519060200190610f18929190612115565b5084600b60008981526020019081526020016000209080519060200190610f40929190612115565b50610f4a8761174b565b91508273ffffffffffffffffffffffffffffffffffffffff166108fc839081150290604051600060405180830381858888f193505050501515610f8c57600080fd5b50505050505050565b610f9d612195565b600360008373ffffffffffffffffffffffffffffffffffffffff1673ffffffffffffffffffffffffffffffffffffffff16815260200190815260200160002080548060200260200160405190810160405280929190818152602001828054801561102657602002820191906000526020600020905b815481526020019060010190808311611012575b50505050509050919050565b6000806001600084815260200190815260200160002060009054906101000a900473ffffffffffffffffffffffffffffffffffffffff169050600073ffffffffffffffffffffffffffffffffffffffff168173ffffffffffffffffffffffffffffffffffffffff16141515156110a757600080fd5b80915050919050565b6000600360008373ffffffffffffffffffffffffffffffffffffffff1673ffffffffffffffffffffffffffffffffffffffff168152602001908152602001600020805490509050919050565b600560009054906101000a900473ffffffffffffffffffffffffffffffffffffffff1673ffffffffffffffffffffffffffffffffffffffff163373ffffffffffffffffffffffffffffffffffffffff1614151561115857600080fd5b600560009054906101000a900473ffffffffffffffffffffffffffffffffffffffff1673ffffffffffffffffffffffffffffffffffffffff166108fc3073ffffffffffffffffffffffffffffffffffffffff16319081150290604051600060405180830381858888f1935050505015156111d157600080fd5b565b6111db612101565b6000806111e6612101565b6111ee612101565b6111f6612101565b6000806000806000808c600060076000838152602001908152602001600020541415151561122357600080fd5b600860008f815260200190815260200160002096506112418e611032565b955061124c8e610e36565b9450600960008f81526020019081526020016000209350600a60008f81526020019081526020016000209250600b60008f81526020019081526020016000209150868686868686858054600181600116156101000203166002900480601f0160208091040260200160405190810160405280929190818152602001828054600181600116156101000203166002900480156113285780601f106112fd57610100808354040283529160200191611328565b820191906000526020600020905b81548152906001019060200180831161130b57829003601f168201915b50505050509550828054600181600116156101000203166002900480601f0160208091040260200160405190810160405280929190818152602001828054600181600116156101000203166002900480156113c45780601f10611399576101008083540402835291602001916113c4565b820191906000526020600020905b8154815290600101906020018083116113a757829003601f168201915b50505050509250818054600181600116156101000203166002900480601f0160208091040260200160405190810160405280929190818152602001828054600181600116156101000203166002900480156114605780601f1061143557610100808354040283529160200191611460565b820191906000526020600020905b81548152906001019060200180831161144357829003601f168201915b50505050509150808054600181600116156101000203166002900480601f0160208091040260200160405190810160405280929190818152602001828054600181600116156101000203166002900480156114fc5780601f106114d1576101008083540402835291602001916114fc565b820191906000526020600020905b8154815290600101906020018083116114df57829003601f168201915b505050505090509c509c509c509c509c509c505050505050505091939550919395565b6601c6bf5263400081565b600560009054906101000a900473ffffffffffffffffffffffffffffffffffffffff1681565b600560009054906101000a900473ffffffffffffffffffffffffffffffffffffffff1673ffffffffffffffffffffffffffffffffffffffff163373ffffffffffffffffffffffffffffffffffffffff161415156115ac57600080fd5b6115b63386611b13565b600660008154809291906001019190505550836008600087815260200190815260200160002090805190602001906115ef929190612115565b5082600960008781526020019081526020016000209080519060200190611617929190612115565b506601c6bf52634000600760008781526020019081526020016000208190555081600a6000878152602001908152602001600020908051906020019061165e929190612115565b5080600b60008781526020019081526020016000209080519060200190611686929190612115565b505050505050565b60065481565b6040805190810160405280600681526020017f457468416473000000000000000000000000000000000000000000000000000081525081565b803373ffffffffffffffffffffffffffffffffffffffff166116ee82611032565b73ffffffffffffffffffffffffffffffffffffffff1614151561171057600080fd5b61171b3384846119ca565b505050565b61172a3382611bad565b151561173557600080fd5b61174861174182611032565b33836119ca565b50565b60008082600060076000838152602001908152602001600020541415151561177257600080fd5b6007600085815260200190815260200160002054915060646043830281151561179757fe5b0492505050919050565b60008160006007600083815260200190815260200160002054141515156117c757600080fd5b6007600084815260200190815260200160002054915050919050565b60008082600060076000838152602001908152602001600020541415151561180a57600080fd5b6007600085815260200190815260200160002054915060646021830281151561182f57fe5b0492505050919050565b600560009054906101000a900473ffffffffffffffffffffffffffffffffffffffff1673ffffffffffffffffffffffffffffffffffffffff163373ffffffffffffffffffffffffffffffffffffffff1614151561189557600080fd5b600073ffffffffffffffffffffffffffffffffffffffff168173ffffffffffffffffffffffffffffffffffffffff16141515156118d157600080fd5b8073ffffffffffffffffffffffffffffffffffffffff16600560009054906101000a900473ffffffffffffffffffffffffffffffffffffffff1673ffffffffffffffffffffffffffffffffffffffff167f8be0079c531659141344cd1fd0a4f28419497f9722a3daafe3b4186f6b6457e060405160405180910390a380600560006101000a81548173ffffffffffffffffffffffffffffffffffffffff021916908373ffffffffffffffffffffffffffffffffffffffff16021790555050565b6040805190810160405280600381526020017f454144000000000000000000000000000000000000000000000000000000000081525081565b600073ffffffffffffffffffffffffffffffffffffffff168273ffffffffffffffffffffffffffffffffffffffff1614151515611a0657600080fd5b611a0f81611032565b73ffffffffffffffffffffffffffffffffffffffff168273ffffffffffffffffffffffffffffffffffffffff1614151515611a4957600080fd5b8273ffffffffffffffffffffffffffffffffffffffff16611a6982611032565b73ffffffffffffffffffffffffffffffffffffffff16141515611a8b57600080fd5b611a958382611bee565b611a9f8382611cd7565b611aa98282611f5f565b8173ffffffffffffffffffffffffffffffffffffffff168373ffffffffffffffffffffffffffffffffffffffff167fddf252ad1be2c89b69c2b068fc378daa952ba7f163c4a11628f55a4df523b3ef836040518082815260200191505060405180910390a3505050565b600073ffffffffffffffffffffffffffffffffffffffff168273ffffffffffffffffffffffffffffffffffffffff1614151515611b4f57600080fd5b611b598282611f5f565b8173ffffffffffffffffffffffffffffffffffffffff1660007fddf252ad1be2c89b69c2b068fc378daa952ba7f163c4a11628f55a4df523b3ef836040518082815260200191505060405180910390a35050565b60008273ffffffffffffffffffffffffffffffffffffffff16611bcf83610df9565b73ffffffffffffffffffffffffffffffffffffffff1614905092915050565b8173ffffffffffffffffffffffffffffffffffffffff16611c0e82611032565b73ffffffffffffffffffffffffffffffffffffffff16141515611c3057600080fd5b60006002600083815260200190815260200160002060006101000a81548173ffffffffffffffffffffffffffffffffffffffff021916908373ffffffffffffffffffffffffffffffffffffffff16021790555060008273ffffffffffffffffffffffffffffffffffffffff167f8c5be1e5ebec7d5bd14f71427d1e84f3dd0314c0f7b2291e5b200ac8c7c3b925836040518082815260200191505060405180910390a35050565b60008060008473ffffffffffffffffffffffffffffffffffffffff16611cfc85611032565b73ffffffffffffffffffffffffffffffffffffffff16141515611d1e57600080fd5b60046000858152602001908152602001600020549250611d506001611d42876110b0565b6120ca90919063ffffffff16565b9150600360008673ffffffffffffffffffffffffffffffffffffffff1673ffffffffffffffffffffffffffffffffffffffff16815260200190815260200160002082815481101515611d9e57fe5b906000526020600020900154905060006001600086815260200190815260200160002060006101000a81548173ffffffffffffffffffffffffffffffffffffffff021916908373ffffffffffffffffffffffffffffffffffffffff16021790555080600360008773ffffffffffffffffffffffffffffffffffffffff1673ffffffffffffffffffffffffffffffffffffffff16815260200190815260200160002084815481101515611e4c57fe5b9060005260206000209001819055506000600360008773ffffffffffffffffffffffffffffffffffffffff1673ffffffffffffffffffffffffffffffffffffffff16815260200190815260200160002083815481101515611ea957fe5b906000526020600020900181905550600360008673ffffffffffffffffffffffffffffffffffffffff1673ffffffffffffffffffffffffffffffffffffffff168152602001908152602001600020805480919060019003611f0a91906121a9565b5060006004600086815260200190815260200160002081905550826004600083815260200190815260200160002081905550611f5260016000546120ca90919063ffffffff16565b6000819055505050505050565b60008073ffffffffffffffffffffffffffffffffffffffff166001600084815260200190815260200160002060009054906101000a900473ffffffffffffffffffffffffffffffffffffffff1673ffffffffffffffffffffffffffffffffffffffff16141515611fce57600080fd5b826001600084815260200190815260200160002060006101000a81548173ffffffffffffffffffffffffffffffffffffffff021916908373ffffffffffffffffffffffffffffffffffffffff160217905550612029836110b0565b9050600360008473ffffffffffffffffffffffffffffffffffffffff1673ffffffffffffffffffffffffffffffffffffffff168152602001908152602001600020805480600101828161207c91906121d5565b9160005260206000209001600084909190915055508060046000848152602001908152602001600020819055506120bf60016000546120e390919063ffffffff16565b600081905550505050565b60008282111515156120d857fe5b818303905092915050565b60008082840190508381101515156120f757fe5b8091505092915050565b602060405190810160405280600081525090565b828054600181600116156101000203166002900490600052602060002090601f016020900481019282601f1061215657805160ff1916838001178555612184565b82800160010185558215612184579182015b82811115612183578251825591602001919060010190612168565b5b5090506121919190612201565b5090565b602060405190810160405280600081525090565b8154818355818115116121d0578183600052602060002091820191016121cf9190612201565b5b505050565b8154818355818115116121fc578183600052602060002091820191016121fb9190612201565b5b505050565b61222391905b8082111561221f576000816000905550600101612207565b5090565b905600a165627a7a72305820db058418ffe5fe6685eda31f2bc75d95a4eeeacdf6c0e3327a6dcab816857bef0029",
  "source": "pragma solidity ^0.4.18;\n\nimport 'zeppelin-solidity/contracts/token/ERC721/ERC721Token.sol';\nimport 'zeppelin-solidity/contracts/ownership/Ownable.sol';\n\ncontract EtherAds is ERC721Token, Ownable {\n  string constant public NAME = \"EthAds\";\n  string constant public SYMBOL = \"EAD\";\n  uint256 constant public PRICE = 0.0005 ether;\n  uint256 public objectCount = 0;\n\n  mapping(uint256 => uint256) tokenToPriceMap;\n  mapping(uint256 => string) tokenToNameMap;\n  mapping(uint256 => string) tokenToUrlMap;\n  mapping(uint256 => string) tokenToDescriptionMap;\n  mapping(uint256 => string) tokenToImageUrlMap;\n\n  Ad[] ads;\n\n  struct Ad {\n    string name;\n    string url;\n    string description;\n    string imageurl; \n  }\n\n  function EtherAds() public {\n    mintObject(1, \"CASINO\", \"http://www.etherads.co\", \"casino\", \"https://www.ethereum.org/images/logos/ETHEREUM-ICON_Black_small.png\");\n    mintObject(2, \"ICO\", \"http://www.etherads.co\", \"ico\", \"https://www.ethereum.org/images/logos/ETHEREUM-ICON_Black_small.png\");\n    mintObject(3, \"EXCHANGE\", \"http://www.etherads.co\", \"exchange\", \"https://www.ethereum.org/images/logos/ETHEREUM-ICON_Black_small.png\");\n    mintObject(4, \"BITCOIN\", \"http://www.etherads.co\", \"bitcoin\", \"https://www.ethereum.org/images/logos/ETHEREUM-ICON_Black_small.png\");\n    mintObject(5, \"ETHEREUM\", \"http://www.etherads.co\", \"ethereum\", \"https://www.ethereum.org/images/logos/ETHEREUM-ICON_Black_small.png\");\n    mintObject(6, \"AUCTION\", \"http://www.etherads.co\", \"auction\", \"https://www.ethereum.org/images/logos/ETHEREUM-ICON_Black_small.png\");\n    mintObject(7, \"WALLET\", \"http://www.etherads.co\", \"wallet\", \"https://www.ethereum.org/images/logos/ETHEREUM-ICON_Black_small.png\");\n    mintObject(8, \"CRYPTO\", \"http://www.etherads.co\", \"crypto\", \"https://www.ethereum.org/images/logos/ETHEREUM-ICON_Black_small.png\");\n    mintObject(9, \"GAMES\", \"http://www.etherads.co\", \"games\", \"https://www.ethereum.org/images/logos/ETHEREUM-ICON_Black_small.png\");\n    mintObject(10, \"TOKENS\", \"http://www.etherads.co\", \"tokens\", \"https://www.ethereum.org/images/logos/ETHEREUM-ICON_Black_small.png\");\n  }\n\n  function getName() public pure returns(string) {\n    return NAME;\n  }\n\n  function getSymbol() public pure returns(string) {\n    return SYMBOL;\n  }\n\n  function getObjectCount() public view returns (uint256) {\n    return objectCount;\n  }\n\n  function mintObject(uint256 adId, string name, string url, string description, string imageurl) public payable onlyOwner() {\n    _mint(msg.sender, adId);\n    objectCount++;\n    tokenToNameMap[adId] = name;\n    tokenToUrlMap[adId] = url;\n    tokenToPriceMap[adId] = PRICE;\n    tokenToDescriptionMap[adId] = description;\n    tokenToImageUrlMap[adId] = imageurl;\n  }\n\n  function buyAd(uint adId, string url, string img) public payable onlyMintedTokens(adId) {\n    //require enough ether\n    uint256 askingPrice = getAskingPrice(adId);\n    require(msg.value >= askingPrice);\n\n    //transfer ad ownership\n    address previousOwner = ownerOf(adId);\n\n    clearApprovalAndTransfer(previousOwner, msg.sender, adId);\n\n    //update price\n    tokenToPriceMap[adId] = askingPrice;\n    tokenToUrlMap[adId] = (url);\n    tokenToImageUrlMap[adId] = (img);\n\n    //TODO: take dev cut\n    uint256 pocut = getPoCut(adId);\n\n    //send ether to previous owner\n    previousOwner.transfer(pocut);\n  }\n\n  function getDevCut(uint256 adId) public view onlyMintedTokens(adId) returns(uint256) {\n    uint256 askingPrice = tokenToPriceMap[adId];\n    return askingPrice * 33 / 100;\n  }\n\n  function getPoCut(uint256 adId) public view onlyMintedTokens(adId) returns(uint256) {\n    uint256 askingPrice = tokenToPriceMap[adId];\n    return askingPrice * 67 / 100;\n  }\n\n  function getCurrentPrice(uint256 adId) public view onlyMintedTokens(adId) returns(uint256) {\n    return tokenToPriceMap[adId];\n  }\n\n  function getAskingPrice(uint256 adId) public view onlyMintedTokens(adId) returns(uint256) {\n    uint256 lastPrice = tokenToPriceMap[adId];\n//    if (lastPrice <= 0.04 ether) {\n      return lastPrice * 2;\n//    }\n//    if (lastPrice <= 0.25 ether) {\n//      return lastPrice * 2 ;\n//    }\n//    if (lastPrice <= 0.50 ether) {\n//      return lastPrice * 2;\n//    }\n//    if (lastPrice > 0.50 ether) {\n//      return lastPrice * 2;\n//   }\n//    return lastPrice;\n  }\n\n  function getAd(uint256 adId) public view onlyMintedTokens(adId) returns(string, address, uint256, string, string, string) {\n    string name = tokenToNameMap[adId];\n    address owner = ownerOf(adId);\n    uint256 askingPrice = getAskingPrice(adId);\n    string url = tokenToUrlMap[adId];\n    string description = tokenToDescriptionMap[adId];\n    string imageurl = tokenToImageUrlMap[adId];\n    return (name, owner, askingPrice, url, description, imageurl);\n  }\n\n  function withdrawEther() external onlyOwner {\n    owner.transfer(this.balance);\n  }\n\n  modifier onlyMintedTokens(uint256 adId) {\n    require(tokenToPriceMap[adId] != 0);\n    _;\n  }\n}\n",
  "sourcePath": "/home/norm/EtherAds/contracts/EtherAds.sol",
  "compiler": {
    "name": "solc",
    "version": "0.4.18+commit.9cf6e910.Emscripten.clang"
  },
  "schemaVersion": "1.0.1",
  "updatedAt": "2018-03-06T01:53:06.566Z"
}