{
  "contractName": "EtherAds",
  "abi": [
    {
      "constant": false,
      "inputs": [
        {
          "name": "adId",
          "type": "uint256"
        },
        {
          "name": "url",
          "type": "string"
        }
      ],
      "name": "buyAd",
      "outputs": [],
      "payable": true,
      "stateMutability": "payable",
      "type": "function"
    },
    {
      "constant": false,
      "inputs": [
        {
          "name": "_to",
          "type": "address"
        },
        {
          "name": "_tokenId",
          "type": "uint256"
        }
      ],
      "name": "approve",
      "outputs": [],
      "payable": false,
      "stateMutability": "nonpayable",
      "type": "function"
    },
    {
      "constant": true,
      "inputs": [],
      "name": "getSymbol",
      "outputs": [
        {
          "name": "",
          "type": "string"
        }
      ],
      "payable": false,
      "stateMutability": "pure",
      "type": "function"
    },
    {
      "constant": true,
      "inputs": [],
      "name": "getName",
      "outputs": [
        {
          "name": "",
          "type": "string"
        }
      ],
      "payable": false,
      "stateMutability": "pure",
      "type": "function"
    },
    {
      "constant": true,
      "inputs": [],
      "name": "totalSupply",
      "outputs": [
        {
          "name": "",
          "type": "uint256"
        }
      ],
      "payable": false,
      "stateMutability": "view",
      "type": "function"
    },
    {
      "constant": true,
      "inputs": [],
      "name": "getObjectCount",
      "outputs": [
        {
          "name": "",
          "type": "uint256"
        }
      ],
      "payable": false,
      "stateMutability": "view",
      "type": "function"
    },
    {
      "constant": true,
      "inputs": [
        {
          "name": "_tokenId",
          "type": "uint256"
        }
      ],
      "name": "approvedFor",
      "outputs": [
        {
          "name": "",
          "type": "address"
        }
      ],
      "payable": false,
      "stateMutability": "view",
      "type": "function"
    },
    {
      "constant": true,
      "inputs": [
        {
          "name": "adId",
          "type": "uint256"
        }
      ],
      "name": "getAskingPrice",
      "outputs": [
        {
          "name": "",
          "type": "uint256"
        }
      ],
      "payable": false,
      "stateMutability": "view",
      "type": "function"
    },
    {
      "constant": true,
      "inputs": [
        {
          "name": "_owner",
          "type": "address"
        }
      ],
      "name": "tokensOf",
      "outputs": [
        {
          "name": "",
          "type": "uint256[]"
        }
      ],
      "payable": false,
      "stateMutability": "view",
      "type": "function"
    },
    {
      "constant": true,
      "inputs": [
        {
          "name": "_tokenId",
          "type": "uint256"
        }
      ],
      "name": "ownerOf",
      "outputs": [
        {
          "name": "",
          "type": "address"
        }
      ],
      "payable": false,
      "stateMutability": "view",
      "type": "function"
    },
    {
      "constant": true,
      "inputs": [
        {
          "name": "_owner",
          "type": "address"
        }
      ],
      "name": "balanceOf",
      "outputs": [
        {
          "name": "",
          "type": "uint256"
        }
      ],
      "payable": false,
      "stateMutability": "view",
      "type": "function"
    },
    {
      "constant": true,
      "inputs": [
        {
          "name": "adId",
          "type": "uint256"
        }
      ],
      "name": "getAd",
      "outputs": [
        {
          "name": "",
          "type": "string"
        },
        {
          "name": "",
          "type": "address"
        },
        {
          "name": "",
          "type": "uint256"
        },
        {
          "name": "",
          "type": "string"
        }
      ],
      "payable": false,
      "stateMutability": "view",
      "type": "function"
    },
    {
      "constant": false,
      "inputs": [
        {
          "name": "adId",
          "type": "uint256"
        },
        {
          "name": "name",
          "type": "string"
        },
        {
          "name": "url",
          "type": "string"
        }
      ],
      "name": "mintObject",
      "outputs": [],
      "payable": true,
      "stateMutability": "payable",
      "type": "function"
    },
    {
      "constant": true,
      "inputs": [],
      "name": "PRICE",
      "outputs": [
        {
          "name": "",
          "type": "uint256"
        }
      ],
      "payable": false,
      "stateMutability": "view",
      "type": "function"
    },
    {
      "constant": true,
      "inputs": [],
      "name": "owner",
      "outputs": [
        {
          "name": "",
          "type": "address"
        }
      ],
      "payable": false,
      "stateMutability": "view",
      "type": "function"
    },
    {
      "constant": true,
      "inputs": [],
      "name": "objectCount",
      "outputs": [
        {
          "name": "",
          "type": "uint256"
        }
      ],
      "payable": false,
      "stateMutability": "view",
      "type": "function"
    },
    {
      "constant": true,
      "inputs": [],
      "name": "NAME",
      "outputs": [
        {
          "name": "",
          "type": "string"
        }
      ],
      "payable": false,
      "stateMutability": "view",
      "type": "function"
    },
    {
      "constant": false,
      "inputs": [
        {
          "name": "_to",
          "type": "address"
        },
        {
          "name": "_tokenId",
          "type": "uint256"
        }
      ],
      "name": "transfer",
      "outputs": [],
      "payable": false,
      "stateMutability": "nonpayable",
      "type": "function"
    },
    {
      "constant": false,
      "inputs": [
        {
          "name": "_tokenId",
          "type": "uint256"
        }
      ],
      "name": "takeOwnership",
      "outputs": [],
      "payable": false,
      "stateMutability": "nonpayable",
      "type": "function"
    },
    {
      "constant": true,
      "inputs": [
        {
          "name": "adId",
          "type": "uint256"
        }
      ],
      "name": "getCurrentPrice",
      "outputs": [
        {
          "name": "",
          "type": "uint256"
        }
      ],
      "payable": false,
      "stateMutability": "view",
      "type": "function"
    },
    {
      "constant": false,
      "inputs": [
        {
          "name": "newOwner",
          "type": "address"
        }
      ],
      "name": "transferOwnership",
      "outputs": [],
      "payable": false,
      "stateMutability": "nonpayable",
      "type": "function"
    },
    {
      "constant": true,
      "inputs": [],
      "name": "SYMBOL",
      "outputs": [
        {
          "name": "",
          "type": "string"
        }
      ],
      "payable": false,
      "stateMutability": "view",
      "type": "function"
    },
    {
      "inputs": [],
      "payable": false,
      "stateMutability": "nonpayable",
      "type": "constructor"
    },
    {
      "anonymous": false,
      "inputs": [
        {
          "indexed": true,
          "name": "previousOwner",
          "type": "address"
        },
        {
          "indexed": true,
          "name": "newOwner",
          "type": "address"
        }
      ],
      "name": "OwnershipTransferred",
      "type": "event"
    },
    {
      "anonymous": false,
      "inputs": [
        {
          "indexed": true,
          "name": "_from",
          "type": "address"
        },
        {
          "indexed": true,
          "name": "_to",
          "type": "address"
        },
        {
          "indexed": false,
          "name": "_tokenId",
          "type": "uint256"
        }
      ],
      "name": "Transfer",
      "type": "event"
    },
    {
      "anonymous": false,
      "inputs": [
        {
          "indexed": true,
          "name": "_owner",
          "type": "address"
        },
        {
          "indexed": true,
          "name": "_approved",
          "type": "address"
        },
        {
          "indexed": false,
          "name": "_tokenId",
          "type": "uint256"
        }
      ],
      "name": "Approval",
      "type": "event"
    }
  ],
  "bytecode": "0x6060604052600060065534156200001557600080fd5b33600560006101000a81548173ffffffffffffffffffffffffffffffffffffffff021916908373ffffffffffffffffffffffffffffffffffffffff160217905550620000e260016040805190810160405280600581526020017f41642023310000000000000000000000000000000000000000000000000000008152506040805190810160405280601681526020017f687474703a2f2f7777772e65746865726164732e636f00000000000000000000815250620004bc64010000000002620010dd176401000000009004565b6200016e60026040805190810160405280600581526020017f41642023320000000000000000000000000000000000000000000000000000008152506040805190810160405280601681526020017f687474703a2f2f7777772e65746865726164732e636f00000000000000000000815250620004bc64010000000002620010dd176401000000009004565b620001fa60036040805190810160405280600581526020017f41642023330000000000000000000000000000000000000000000000000000008152506040805190810160405280601681526020017f687474703a2f2f7777772e65746865726164732e636f00000000000000000000815250620004bc64010000000002620010dd176401000000009004565b6200028660046040805190810160405280600581526020017f41642023340000000000000000000000000000000000000000000000000000008152506040805190810160405280601681526020017f687474703a2f2f7777772e65746865726164732e636f00000000000000000000815250620004bc64010000000002620010dd176401000000009004565b6200031260056040805190810160405280600581526020017f41642023350000000000000000000000000000000000000000000000000000008152506040805190810160405280601681526020017f687474703a2f2f7777772e65746865726164732e636f00000000000000000000815250620004bc64010000000002620010dd176401000000009004565b6200039e60066040805190810160405280600581526020017f41642023360000000000000000000000000000000000000000000000000000008152506040805190810160405280601681526020017f687474703a2f2f7777772e65746865726164732e636f00000000000000000000815250620004bc64010000000002620010dd176401000000009004565b6200042a60076040805190810160405280600581526020017f41642023370000000000000000000000000000000000000000000000000000008152506040805190810160405280601681526020017f687474703a2f2f7777772e65746865726164732e636f00000000000000000000815250620004bc64010000000002620010dd176401000000009004565b620004b660086040805190810160405280600581526020017f41642023380000000000000000000000000000000000000000000000000000008152506040805190810160405280601681526020017f687474703a2f2f7777772e65746865726164732e636f00000000000000000000815250620004bc64010000000002620010dd176401000000009004565b62000951565b600560009054906101000a900473ffffffffffffffffffffffffffffffffffffffff1673ffffffffffffffffffffffffffffffffffffffff163373ffffffffffffffffffffffffffffffffffffffff161415156200051957600080fd5b620005393384620005c364010000000002620015d3176401000000009004565b600660008154809291906001019190505550816008600085815260200190815260200160002090805190602001906200057492919062000873565b50806009600085815260200190815260200160002090805190602001906200059e92919062000873565b506611c37937e080006007600085815260200190815260200160002081905550505050565b600073ffffffffffffffffffffffffffffffffffffffff168273ffffffffffffffffffffffffffffffffffffffff16141515156200060057600080fd5b620006208282620006746401000000000262001a1f176401000000009004565b8173ffffffffffffffffffffffffffffffffffffffff1660007fddf252ad1be2c89b69c2b068fc378daa952ba7f163c4a11628f55a4df523b3ef836040518082815260200191505060405180910390a35050565b60008073ffffffffffffffffffffffffffffffffffffffff166001600084815260200190815260200160002060009054906101000a900473ffffffffffffffffffffffffffffffffffffffff1673ffffffffffffffffffffffffffffffffffffffff16141515620006e457600080fd5b826001600084815260200190815260200160002060006101000a81548173ffffffffffffffffffffffffffffffffffffffff021916908373ffffffffffffffffffffffffffffffffffffffff1602179055506200075583620008086401000000000262000ec4176401000000009004565b9050600360008473ffffffffffffffffffffffffffffffffffffffff1673ffffffffffffffffffffffffffffffffffffffff1681526020019081526020016000208054806001018281620007aa9190620008fa565b916000526020600020900160008490919091505550806004600084815260200190815260200160002081905550620007fd6001600054620008546401000000000262001ba3179091906401000000009004565b600081905550505050565b6000600360008373ffffffffffffffffffffffffffffffffffffffff1673ffffffffffffffffffffffffffffffffffffffff168152602001908152602001600020805490509050919050565b60008082840190508381101515156200086957fe5b8091505092915050565b828054600181600116156101000203166002900490600052602060002090601f016020900481019282601f10620008b657805160ff1916838001178555620008e7565b82800160010185558215620008e7579182015b82811115620008e6578251825591602001919060010190620008c9565b5b509050620008f6919062000929565b5090565b815481835581811511620009245781836000526020600020918201910162000923919062000929565b5b505050565b6200094e91905b808211156200094a57600081600090555060010162000930565b5090565b90565b611d1280620009616000396000f300606060405260043610610128576000357c0100000000000000000000000000000000000000000000000000000000900463ffffffff16806303ceb0311461012d578063095ea7b31461018857806315070401146101ca57806317d7de7c1461025857806318160ddd146102e65780631a848cfb1461030f5780632a6dd48f14610338578063451ba24c1461039b5780635a3f2672146103d25780636352211e1461046057806370a08231146104c35780637ede1c071461051057806387b65c89146106525780638d859f3e146106f05780638da5cb5b1461071957806396c5892c1461076e578063a3f4df7e14610797578063a9059cbb14610825578063b2e6ceeb14610867578063c55d0f561461088a578063f2fde38b146108c1578063f76f8d78146108fa575b600080fd5b610186600480803590602001909190803590602001908201803590602001908080601f01602080910402602001604051908101604052809392919081815260200183838082843782019150505050505091905050610988565b005b341561019357600080fd5b6101c8600480803573ffffffffffffffffffffffffffffffffffffffff16906020019091908035906020019091905050610a66565b005b34156101d557600080fd5b6101dd610bf9565b6040518080602001828103825283818151815260200191508051906020019080838360005b8381101561021d578082015181840152602081019050610202565b50505050905090810190601f16801561024a5780820380516001836020036101000a031916815260200191505b509250505060405180910390f35b341561026357600080fd5b61026b610c3c565b6040518080602001828103825283818151815260200191508051906020019080838360005b838110156102ab578082015181840152602081019050610290565b50505050905090810190601f1680156102d85780820380516001836020036101000a031916815260200191505b509250505060405180910390f35b34156102f157600080fd5b6102f9610c7f565b6040518082815260200191505060405180910390f35b341561031a57600080fd5b610322610c88565b6040518082815260200191505060405180910390f35b341561034357600080fd5b6103596004808035906020019091905050610c92565b604051808273ffffffffffffffffffffffffffffffffffffffff1673ffffffffffffffffffffffffffffffffffffffff16815260200191505060405180910390f35b34156103a657600080fd5b6103bc6004808035906020019091905050610ccf565b6040518082815260200191505060405180910390f35b34156103dd57600080fd5b610409600480803573ffffffffffffffffffffffffffffffffffffffff16906020019091905050610da9565b6040518080602001828103825283818151815260200191508051906020019060200280838360005b8381101561044c578082015181840152602081019050610431565b505050509050019250505060405180910390f35b341561046b57600080fd5b6104816004808035906020019091905050610e46565b604051808273ffffffffffffffffffffffffffffffffffffffff1673ffffffffffffffffffffffffffffffffffffffff16815260200191505060405180910390f35b34156104ce57600080fd5b6104fa600480803573ffffffffffffffffffffffffffffffffffffffff16906020019091905050610ec4565b6040518082815260200191505060405180910390f35b341561051b57600080fd5b6105316004808035906020019091905050610f10565b60405180806020018573ffffffffffffffffffffffffffffffffffffffff1673ffffffffffffffffffffffffffffffffffffffff16815260200184815260200180602001838103835287818151815260200191508051906020019080838360005b838110156105ad578082015181840152602081019050610592565b50505050905090810190601f1680156105da5780820380516001836020036101000a031916815260200191505b50838103825284818151815260200191508051906020019080838360005b838110156106135780820151818401526020810190506105f8565b50505050905090810190601f1680156106405780820380516001836020036101000a031916815260200191505b50965050505050505060405180910390f35b6106ee600480803590602001909190803590602001908201803590602001908080601f0160208091040260200160405190810160405280939291908181526020018383808284378201915050505050509190803590602001908201803590602001908080601f016020809104026020016040519081016040528093929190818152602001838380828437820191505050505050919050506110dd565b005b34156106fb57600080fd5b6107036111c9565b6040518082815260200191505060405180910390f35b341561072457600080fd5b61072c6111d4565b604051808273ffffffffffffffffffffffffffffffffffffffff1673ffffffffffffffffffffffffffffffffffffffff16815260200191505060405180910390f35b341561077957600080fd5b6107816111fa565b6040518082815260200191505060405180910390f35b34156107a257600080fd5b6107aa611200565b6040518080602001828103825283818151815260200191508051906020019080838360005b838110156107ea5780820151818401526020810190506107cf565b50505050905090810190601f1680156108175780820380516001836020036101000a031916815260200191505b509250505060405180910390f35b341561083057600080fd5b610865600480803573ffffffffffffffffffffffffffffffffffffffff16906020019091908035906020019091905050611239565b005b341561087257600080fd5b610888600480803590602001909190505061128c565b005b341561089557600080fd5b6108ab60048080359060200190919050506112b7565b6040518082815260200191505060405180910390f35b34156108cc57600080fd5b6108f8600480803573ffffffffffffffffffffffffffffffffffffffff169060200190919050506112f9565b005b341561090557600080fd5b61090d611451565b6040518080602001828103825283818151815260200191508051906020019080838360005b8381101561094d578082015181840152602081019050610932565b50505050905090810190601f16801561097a5780820380516001836020036101000a031916815260200191505b509250505060405180910390f35b6000808360006007600083815260200190815260200160002054141515156109af57600080fd5b6109b885610ccf565b92508234101515156109c957600080fd5b6109d285610e46565b91506109df82338761148a565b82600760008781526020019081526020016000208190555083600960008781526020019081526020016000209080519060200190610a1e929190611bc1565b508173ffffffffffffffffffffffffffffffffffffffff166108fc349081150290604051600060405180830381858888f193505050501515610a5f57600080fd5b5050505050565b6000813373ffffffffffffffffffffffffffffffffffffffff16610a8982610e46565b73ffffffffffffffffffffffffffffffffffffffff16141515610aab57600080fd5b610ab483610e46565b91508173ffffffffffffffffffffffffffffffffffffffff168473ffffffffffffffffffffffffffffffffffffffff1614151515610af157600080fd5b6000610afc84610c92565b73ffffffffffffffffffffffffffffffffffffffff16141580610b36575060008473ffffffffffffffffffffffffffffffffffffffff1614155b15610bf357836002600085815260200190815260200160002060006101000a81548173ffffffffffffffffffffffffffffffffffffffff021916908373ffffffffffffffffffffffffffffffffffffffff1602179055508373ffffffffffffffffffffffffffffffffffffffff168273ffffffffffffffffffffffffffffffffffffffff167f8c5be1e5ebec7d5bd14f71427d1e84f3dd0314c0f7b2291e5b200ac8c7c3b925856040518082815260200191505060405180910390a35b50505050565b610c01611c41565b6040805190810160405280600381526020017f4541440000000000000000000000000000000000000000000000000000000000815250905090565b610c44611c41565b6040805190810160405280600681526020017f4574684164730000000000000000000000000000000000000000000000000000815250905090565b60008054905090565b6000600654905090565b60006002600083815260200190815260200160002060009054906101000a900473ffffffffffffffffffffffffffffffffffffffff169050919050565b600080826000600760008381526020019081526020016000205414151515610cf657600080fd5b60076000858152602001908152602001600020549150668e1bc9bf04000082111515610d2757600282029250610da2565b6703782dace9d9000082111515610d4f57606460af8302811515610d4757fe5b049250610da2565b6706f05b59d3b2000082111515610d7757606460968302811515610d6f57fe5b049250610da2565b6706f05b59d3b20000821115610d9e576064607d8302811515610d9657fe5b049250610da2565b8192505b5050919050565b610db1611c55565b600360008373ffffffffffffffffffffffffffffffffffffffff1673ffffffffffffffffffffffffffffffffffffffff168152602001908152602001600020805480602002602001604051908101604052809291908181526020018280548015610e3a57602002820191906000526020600020905b815481526020019060010190808311610e26575b50505050509050919050565b6000806001600084815260200190815260200160002060009054906101000a900473ffffffffffffffffffffffffffffffffffffffff169050600073ffffffffffffffffffffffffffffffffffffffff168173ffffffffffffffffffffffffffffffffffffffff1614151515610ebb57600080fd5b80915050919050565b6000600360008373ffffffffffffffffffffffffffffffffffffffff1673ffffffffffffffffffffffffffffffffffffffff168152602001908152602001600020805490509050919050565b610f18611c41565b600080610f23611c41565b600080600080886000600760008381526020019081526020016000205414151515610f4d57600080fd5b600860008b81526020019081526020016000209450610f6b8a610e46565b9350610f768a610ccf565b9250600960008b8152602001908152602001600020915084848484838054600181600116156101000203166002900480601f0160208091040260200160405190810160405280929190818152602001828054600181600116156101000203166002900480156110265780601f10610ffb57610100808354040283529160200191611026565b820191906000526020600020905b81548152906001019060200180831161100957829003601f168201915b50505050509350808054600181600116156101000203166002900480601f0160208091040260200160405190810160405280929190818152602001828054600181600116156101000203166002900480156110c25780601f10611097576101008083540402835291602001916110c2565b820191906000526020600020905b8154815290600101906020018083116110a557829003601f168201915b50505050509050985098509850985050505050509193509193565b600560009054906101000a900473ffffffffffffffffffffffffffffffffffffffff1673ffffffffffffffffffffffffffffffffffffffff163373ffffffffffffffffffffffffffffffffffffffff1614151561113957600080fd5b61114333846115d3565b6006600081548092919060010191905055508160086000858152602001908152602001600020908051906020019061117c929190611bc1565b50806009600085815260200190815260200160002090805190602001906111a4929190611bc1565b506611c37937e080006007600085815260200190815260200160002081905550505050565b6611c37937e0800081565b600560009054906101000a900473ffffffffffffffffffffffffffffffffffffffff1681565b60065481565b6040805190810160405280600681526020017f457468416473000000000000000000000000000000000000000000000000000081525081565b803373ffffffffffffffffffffffffffffffffffffffff1661125a82610e46565b73ffffffffffffffffffffffffffffffffffffffff1614151561127c57600080fd5b61128733848461148a565b505050565b611296338261166d565b15156112a157600080fd5b6112b46112ad82610e46565b338361148a565b50565b60008160006007600083815260200190815260200160002054141515156112dd57600080fd5b6007600084815260200190815260200160002054915050919050565b600560009054906101000a900473ffffffffffffffffffffffffffffffffffffffff1673ffffffffffffffffffffffffffffffffffffffff163373ffffffffffffffffffffffffffffffffffffffff1614151561135557600080fd5b600073ffffffffffffffffffffffffffffffffffffffff168173ffffffffffffffffffffffffffffffffffffffff161415151561139157600080fd5b8073ffffffffffffffffffffffffffffffffffffffff16600560009054906101000a900473ffffffffffffffffffffffffffffffffffffffff1673ffffffffffffffffffffffffffffffffffffffff167f8be0079c531659141344cd1fd0a4f28419497f9722a3daafe3b4186f6b6457e060405160405180910390a380600560006101000a81548173ffffffffffffffffffffffffffffffffffffffff021916908373ffffffffffffffffffffffffffffffffffffffff16021790555050565b6040805190810160405280600381526020017f454144000000000000000000000000000000000000000000000000000000000081525081565b600073ffffffffffffffffffffffffffffffffffffffff168273ffffffffffffffffffffffffffffffffffffffff16141515156114c657600080fd5b6114cf81610e46565b73ffffffffffffffffffffffffffffffffffffffff168273ffffffffffffffffffffffffffffffffffffffff161415151561150957600080fd5b8273ffffffffffffffffffffffffffffffffffffffff1661152982610e46565b73ffffffffffffffffffffffffffffffffffffffff1614151561154b57600080fd5b61155583826116ae565b61155f8382611797565b6115698282611a1f565b8173ffffffffffffffffffffffffffffffffffffffff168373ffffffffffffffffffffffffffffffffffffffff167fddf252ad1be2c89b69c2b068fc378daa952ba7f163c4a11628f55a4df523b3ef836040518082815260200191505060405180910390a3505050565b600073ffffffffffffffffffffffffffffffffffffffff168273ffffffffffffffffffffffffffffffffffffffff161415151561160f57600080fd5b6116198282611a1f565b8173ffffffffffffffffffffffffffffffffffffffff1660007fddf252ad1be2c89b69c2b068fc378daa952ba7f163c4a11628f55a4df523b3ef836040518082815260200191505060405180910390a35050565b60008273ffffffffffffffffffffffffffffffffffffffff1661168f83610c92565b73ffffffffffffffffffffffffffffffffffffffff1614905092915050565b8173ffffffffffffffffffffffffffffffffffffffff166116ce82610e46565b73ffffffffffffffffffffffffffffffffffffffff161415156116f057600080fd5b60006002600083815260200190815260200160002060006101000a81548173ffffffffffffffffffffffffffffffffffffffff021916908373ffffffffffffffffffffffffffffffffffffffff16021790555060008273ffffffffffffffffffffffffffffffffffffffff167f8c5be1e5ebec7d5bd14f71427d1e84f3dd0314c0f7b2291e5b200ac8c7c3b925836040518082815260200191505060405180910390a35050565b60008060008473ffffffffffffffffffffffffffffffffffffffff166117bc85610e46565b73ffffffffffffffffffffffffffffffffffffffff161415156117de57600080fd5b60046000858152602001908152602001600020549250611810600161180287610ec4565b611b8a90919063ffffffff16565b9150600360008673ffffffffffffffffffffffffffffffffffffffff1673ffffffffffffffffffffffffffffffffffffffff1681526020019081526020016000208281548110151561185e57fe5b906000526020600020900154905060006001600086815260200190815260200160002060006101000a81548173ffffffffffffffffffffffffffffffffffffffff021916908373ffffffffffffffffffffffffffffffffffffffff16021790555080600360008773ffffffffffffffffffffffffffffffffffffffff1673ffffffffffffffffffffffffffffffffffffffff1681526020019081526020016000208481548110151561190c57fe5b9060005260206000209001819055506000600360008773ffffffffffffffffffffffffffffffffffffffff1673ffffffffffffffffffffffffffffffffffffffff1681526020019081526020016000208381548110151561196957fe5b906000526020600020900181905550600360008673ffffffffffffffffffffffffffffffffffffffff1673ffffffffffffffffffffffffffffffffffffffff1681526020019081526020016000208054809190600190036119ca9190611c69565b5060006004600086815260200190815260200160002081905550826004600083815260200190815260200160002081905550611a126001600054611b8a90919063ffffffff16565b6000819055505050505050565b60008073ffffffffffffffffffffffffffffffffffffffff166001600084815260200190815260200160002060009054906101000a900473ffffffffffffffffffffffffffffffffffffffff1673ffffffffffffffffffffffffffffffffffffffff16141515611a8e57600080fd5b826001600084815260200190815260200160002060006101000a81548173ffffffffffffffffffffffffffffffffffffffff021916908373ffffffffffffffffffffffffffffffffffffffff160217905550611ae983610ec4565b9050600360008473ffffffffffffffffffffffffffffffffffffffff1673ffffffffffffffffffffffffffffffffffffffff1681526020019081526020016000208054806001018281611b3c9190611c95565b916000526020600020900160008490919091505550806004600084815260200190815260200160002081905550611b7f6001600054611ba390919063ffffffff16565b600081905550505050565b6000828211151515611b9857fe5b818303905092915050565b6000808284019050838110151515611bb757fe5b8091505092915050565b828054600181600116156101000203166002900490600052602060002090601f016020900481019282601f10611c0257805160ff1916838001178555611c30565b82800160010185558215611c30579182015b82811115611c2f578251825591602001919060010190611c14565b5b509050611c3d9190611cc1565b5090565b602060405190810160405280600081525090565b602060405190810160405280600081525090565b815481835581811511611c9057818360005260206000209182019101611c8f9190611cc1565b5b505050565b815481835581811511611cbc57818360005260206000209182019101611cbb9190611cc1565b5b505050565b611ce391905b80821115611cdf576000816000905550600101611cc7565b5090565b905600a165627a7a723058209c330c02540ea5fab03269d2a63518e14c50c434201827a28adf9a4e3ee4b7460029",
  "source": "pragma solidity ^0.4.18;\n\nimport 'zeppelin-solidity/contracts/token/ERC721/ERC721Token.sol';\nimport 'zeppelin-solidity/contracts/ownership/Ownable.sol';\n\ncontract EtherAds is ERC721Token, Ownable {\n  string constant public NAME = \"EthAds\";\n  string constant public SYMBOL = \"EAD\";\n  uint256 constant public PRICE = 0.005 ether;\n  uint256 public objectCount = 0;\n\n  mapping(uint256 => uint256) tokenToPriceMap;\n  mapping(uint256 => string) tokenToNameMap;\n  mapping(uint256 => string) tokenToUrlMap;\n\n  Ad[] ads;\n\n  struct Ad {\n    string name;\n    string url;\n  }\n\n  function EtherAds() public {\n    mintObject(1, \"Ad #1\", \"http://www.etherads.co\");\n    mintObject(2, \"Ad #2\", \"http://www.etherads.co\");\n    mintObject(3, \"Ad #3\", \"http://www.etherads.co\");\n    mintObject(4, \"Ad #4\", \"http://www.etherads.co\");\n    mintObject(5, \"Ad #5\", \"http://www.etherads.co\");\n    mintObject(6, \"Ad #6\", \"http://www.etherads.co\");\n    mintObject(7, \"Ad #7\", \"http://www.etherads.co\");\n    mintObject(8, \"Ad #8\", \"http://www.etherads.co\");\n  }\n\n  function getName() public pure returns(string) {\n    return NAME;\n  }\n\n  function getSymbol() public pure returns(string) {\n    return SYMBOL;\n  }\n\n  function getObjectCount() public view returns (uint256) {\n    return objectCount;\n  }\n\n  function mintObject(uint256 adId, string name, string url) public payable onlyOwner() {\n    _mint(msg.sender, adId);\n    objectCount++;\n    tokenToNameMap[adId] = name;\n    tokenToUrlMap[adId] = url;\n    tokenToPriceMap[adId] = PRICE;\n  }\n\n  function buyAd(uint adId, string url) public payable onlyMintedTokens(adId) {\n    //require enough ether\n    uint256 askingPrice = getAskingPrice(adId);\n    require(msg.value >= askingPrice);\n\n    //transfer ad ownership\n    address previousOwner = ownerOf(adId);\n    clearApprovalAndTransfer(previousOwner, msg.sender, adId);\n\n    //update price\n    tokenToPriceMap[adId] = askingPrice;\n    tokenToUrlMap[adId] = (url);\n\n    //TODO: take dev cut\n\n\n    //send ether to previous owner\n    previousOwner.transfer(msg.value);\n  }\n\n  function getCurrentPrice(uint256 adId) public view onlyMintedTokens(adId) returns(uint256) {\n    return tokenToPriceMap[adId];\n  }\n\n  function getAskingPrice(uint256 adId) public view onlyMintedTokens(adId) returns(uint256) {\n    uint256 lastPrice = tokenToPriceMap[adId];\n    if (lastPrice <= 0.04 ether) {\n      return lastPrice * 2;\n    }\n    if (lastPrice <= 0.25 ether) {\n      return lastPrice * 175 / 100;\n    }\n    if (lastPrice <= 0.50 ether) {\n      return lastPrice * 150 / 100;\n    }\n    if (lastPrice > 0.50 ether) {\n      return lastPrice * 125 / 100;\n    }\n    return lastPrice;\n  }\n\n  function getAd(uint256 adId) public view onlyMintedTokens(adId) returns(string, address, uint256, string) {\n    string name = tokenToNameMap[adId];\n    address owner = ownerOf(adId);\n    uint256 askingPrice = getAskingPrice(adId);\n    string url = tokenToUrlMap[adId];\n    return (name, owner, askingPrice, url);\n  }\n\n  modifier onlyMintedTokens(uint256 adId) {\n    require(tokenToPriceMap[adId] != 0);\n    _;\n  }\n}\n",
  "sourcePath": "/home/norm/EtherAds/contracts/EtherAds.sol",
  "compiler": {
    "name": "solc",
    "version": "0.4.18+commit.9cf6e910.Emscripten.clang"
  },
  "schemaVersion": "1.0.1",
  "updatedAt": "2018-02-26T03:02:57.287Z"
}