{
  "contractName": "PlanetsERC721",
  "abi": [
    {
      "constant": false,
      "inputs": [
        {
          "name": "_to",
          "type": "address"
        },
        {
          "name": "_tokenId",
          "type": "uint256"
        }
      ],
      "name": "approve",
      "outputs": [],
      "payable": false,
      "stateMutability": "nonpayable",
      "type": "function"
    },
    {
      "constant": true,
      "inputs": [],
      "name": "getSymbol",
      "outputs": [
        {
          "name": "",
          "type": "string"
        }
      ],
      "payable": false,
      "stateMutability": "pure",
      "type": "function"
    },
    {
      "constant": true,
      "inputs": [],
      "name": "getName",
      "outputs": [
        {
          "name": "",
          "type": "string"
        }
      ],
      "payable": false,
      "stateMutability": "pure",
      "type": "function"
    },
    {
      "constant": true,
      "inputs": [],
      "name": "totalSupply",
      "outputs": [
        {
          "name": "",
          "type": "uint256"
        }
      ],
      "payable": false,
      "stateMutability": "view",
      "type": "function"
    },
    {
      "constant": true,
      "inputs": [],
      "name": "getObjectCount",
      "outputs": [
        {
          "name": "",
          "type": "uint256"
        }
      ],
      "payable": false,
      "stateMutability": "view",
      "type": "function"
    },
    {
      "constant": true,
      "inputs": [
        {
          "name": "_tokenId",
          "type": "uint256"
        }
      ],
      "name": "approvedFor",
      "outputs": [
        {
          "name": "",
          "type": "address"
        }
      ],
      "payable": false,
      "stateMutability": "view",
      "type": "function"
    },
    {
      "constant": true,
      "inputs": [
        {
          "name": "planetId",
          "type": "uint256"
        }
      ],
      "name": "getPlanet",
      "outputs": [
        {
          "name": "",
          "type": "string"
        },
        {
          "name": "",
          "type": "address"
        },
        {
          "name": "",
          "type": "uint256"
        }
      ],
      "payable": false,
      "stateMutability": "view",
      "type": "function"
    },
    {
      "constant": true,
      "inputs": [
        {
          "name": "planetId",
          "type": "uint256"
        }
      ],
      "name": "getAskingPrice",
      "outputs": [
        {
          "name": "",
          "type": "uint256"
        }
      ],
      "payable": false,
      "stateMutability": "view",
      "type": "function"
    },
    {
      "constant": true,
      "inputs": [
        {
          "name": "_owner",
          "type": "address"
        }
      ],
      "name": "tokensOf",
      "outputs": [
        {
          "name": "",
          "type": "uint256[]"
        }
      ],
      "payable": false,
      "stateMutability": "view",
      "type": "function"
    },
    {
      "constant": true,
      "inputs": [
        {
          "name": "_tokenId",
          "type": "uint256"
        }
      ],
      "name": "ownerOf",
      "outputs": [
        {
          "name": "",
          "type": "address"
        }
      ],
      "payable": false,
      "stateMutability": "view",
      "type": "function"
    },
    {
      "constant": true,
      "inputs": [
        {
          "name": "_owner",
          "type": "address"
        }
      ],
      "name": "balanceOf",
      "outputs": [
        {
          "name": "",
          "type": "uint256"
        }
      ],
      "payable": false,
      "stateMutability": "view",
      "type": "function"
    },
    {
      "constant": false,
      "inputs": [
        {
          "name": "planetId",
          "type": "uint256"
        },
        {
          "name": "name",
          "type": "string"
        }
      ],
      "name": "mintObject",
      "outputs": [],
      "payable": true,
      "stateMutability": "payable",
      "type": "function"
    },
    {
      "constant": true,
      "inputs": [],
      "name": "PRICE",
      "outputs": [
        {
          "name": "",
          "type": "uint256"
        }
      ],
      "payable": false,
      "stateMutability": "view",
      "type": "function"
    },
    {
      "constant": true,
      "inputs": [],
      "name": "owner",
      "outputs": [
        {
          "name": "",
          "type": "address"
        }
      ],
      "payable": false,
      "stateMutability": "view",
      "type": "function"
    },
    {
      "constant": true,
      "inputs": [],
      "name": "objectCount",
      "outputs": [
        {
          "name": "",
          "type": "uint256"
        }
      ],
      "payable": false,
      "stateMutability": "view",
      "type": "function"
    },
    {
      "constant": true,
      "inputs": [],
      "name": "NAME",
      "outputs": [
        {
          "name": "",
          "type": "string"
        }
      ],
      "payable": false,
      "stateMutability": "view",
      "type": "function"
    },
    {
      "constant": false,
      "inputs": [
        {
          "name": "_to",
          "type": "address"
        },
        {
          "name": "_tokenId",
          "type": "uint256"
        }
      ],
      "name": "transfer",
      "outputs": [],
      "payable": false,
      "stateMutability": "nonpayable",
      "type": "function"
    },
    {
      "constant": false,
      "inputs": [
        {
          "name": "_tokenId",
          "type": "uint256"
        }
      ],
      "name": "takeOwnership",
      "outputs": [],
      "payable": false,
      "stateMutability": "nonpayable",
      "type": "function"
    },
    {
      "constant": true,
      "inputs": [
        {
          "name": "planetId",
          "type": "uint256"
        }
      ],
      "name": "getCurrentPrice",
      "outputs": [
        {
          "name": "",
          "type": "uint256"
        }
      ],
      "payable": false,
      "stateMutability": "view",
      "type": "function"
    },
    {
      "constant": false,
      "inputs": [
        {
          "name": "planetId",
          "type": "uint256"
        }
      ],
      "name": "buyPlanet",
      "outputs": [],
      "payable": true,
      "stateMutability": "payable",
      "type": "function"
    },
    {
      "constant": false,
      "inputs": [
        {
          "name": "newOwner",
          "type": "address"
        }
      ],
      "name": "transferOwnership",
      "outputs": [],
      "payable": false,
      "stateMutability": "nonpayable",
      "type": "function"
    },
    {
      "constant": true,
      "inputs": [],
      "name": "SYMBOL",
      "outputs": [
        {
          "name": "",
          "type": "string"
        }
      ],
      "payable": false,
      "stateMutability": "view",
      "type": "function"
    },
    {
      "inputs": [],
      "payable": false,
      "stateMutability": "nonpayable",
      "type": "constructor"
    },
    {
      "anonymous": false,
      "inputs": [
        {
          "indexed": true,
          "name": "previousOwner",
          "type": "address"
        },
        {
          "indexed": true,
          "name": "newOwner",
          "type": "address"
        }
      ],
      "name": "OwnershipTransferred",
      "type": "event"
    },
    {
      "anonymous": false,
      "inputs": [
        {
          "indexed": true,
          "name": "_from",
          "type": "address"
        },
        {
          "indexed": true,
          "name": "_to",
          "type": "address"
        },
        {
          "indexed": false,
          "name": "_tokenId",
          "type": "uint256"
        }
      ],
      "name": "Transfer",
      "type": "event"
    },
    {
      "anonymous": false,
      "inputs": [
        {
          "indexed": true,
          "name": "_owner",
          "type": "address"
        },
        {
          "indexed": true,
          "name": "_approved",
          "type": "address"
        },
        {
          "indexed": false,
          "name": "_tokenId",
          "type": "uint256"
        }
      ],
      "name": "Approval",
      "type": "event"
    }
  ],
  "bytecode": "0x6060604052600060065534156200001557600080fd5b33600560006101000a81548173ffffffffffffffffffffffffffffffffffffffff021916908373ffffffffffffffffffffffffffffffffffffffff160217905550620000ac60016040805190810160405280600781526020017f4d657263757279000000000000000000000000000000000000000000000000008152506200030c6401000000000262000e4f176401000000009004565b6200010260026040805190810160405280600581526020017f56656e75730000000000000000000000000000000000000000000000000000008152506200030c6401000000000262000e4f176401000000009004565b6200015860036040805190810160405280600581526020017f45617274680000000000000000000000000000000000000000000000000000008152506200030c6401000000000262000e4f176401000000009004565b620001ae60046040805190810160405280600481526020017f4d617273000000000000000000000000000000000000000000000000000000008152506200030c6401000000000262000e4f176401000000009004565b6200020460056040805190810160405280600781526020017f4a757069746572000000000000000000000000000000000000000000000000008152506200030c6401000000000262000e4f176401000000009004565b6200025a60066040805190810160405280600681526020017f53617475726e00000000000000000000000000000000000000000000000000008152506200030c6401000000000262000e4f176401000000009004565b620002b060076040805190810160405280600681526020017f5572616e757300000000000000000000000000000000000000000000000000008152506200030c6401000000000262000e4f176401000000009004565b6200030660086040805190810160405280600781526020017f4e657074756e65000000000000000000000000000000000000000000000000008152506200030c6401000000000262000e4f176401000000009004565b62000776565b600560009054906101000a900473ffffffffffffffffffffffffffffffffffffffff1673ffffffffffffffffffffffffffffffffffffffff163373ffffffffffffffffffffffffffffffffffffffff161415156200036957600080fd5b620003893383620003e86401000000000262001288176401000000009004565b60066000815480929190600101919050555080600860008481526020019081526020016000209080519060200190620003c492919062000698565b506611c37937e0800060076000848152602001908152602001600020819055505050565b600073ffffffffffffffffffffffffffffffffffffffff168273ffffffffffffffffffffffffffffffffffffffff16141515156200042557600080fd5b6200044582826200049964010000000002620014ac176401000000009004565b8173ffffffffffffffffffffffffffffffffffffffff1660007fddf252ad1be2c89b69c2b068fc378daa952ba7f163c4a11628f55a4df523b3ef836040518082815260200191505060405180910390a35050565b60008073ffffffffffffffffffffffffffffffffffffffff166001600084815260200190815260200160002060009054906101000a900473ffffffffffffffffffffffffffffffffffffffff1673ffffffffffffffffffffffffffffffffffffffff161415156200050957600080fd5b826001600084815260200190815260200160002060006101000a81548173ffffffffffffffffffffffffffffffffffffffff021916908373ffffffffffffffffffffffffffffffffffffffff1602179055506200057a836200062d6401000000000262000e03176401000000009004565b9050600360008473ffffffffffffffffffffffffffffffffffffffff1673ffffffffffffffffffffffffffffffffffffffff1681526020019081526020016000208054806001018281620005cf91906200071f565b916000526020600020900160008490919091505550806004600084815260200190815260200160002081905550620006226001600054620006796401000000000262001988179091906401000000009004565b600081905550505050565b6000600360008373ffffffffffffffffffffffffffffffffffffffff1673ffffffffffffffffffffffffffffffffffffffff168152602001908152602001600020805490509050919050565b60008082840190508381101515156200068e57fe5b8091505092915050565b828054600181600116156101000203166002900490600052602060002090601f016020900481019282601f10620006db57805160ff19168380011785556200070c565b828001600101855582156200070c579182015b828111156200070b578251825591602001919060010190620006ee565b5b5090506200071b91906200074e565b5090565b81548183558181151162000749578183600052602060002091820191016200074891906200074e565b5b505050565b6200077391905b808211156200076f57600081600090555060010162000755565b5090565b90565b611b1080620007866000396000f300606060405260043610610128576000357c0100000000000000000000000000000000000000000000000000000000900463ffffffff168063095ea7b31461012d578063150704011461016f57806317d7de7c146101fd57806318160ddd1461028b5780631a848cfb146102b45780632a6dd48f146102dd57806334efcb8e14610340578063451ba24c146104165780635a3f26721461044d5780636352211e146104db57806370a082311461053e578063879e9b961461058b5780638d859f3e146105e65780638da5cb5b1461060f57806396c5892c14610664578063a3f4df7e1461068d578063a9059cbb1461071b578063b2e6ceeb1461075d578063c55d0f5614610780578063db45a30f146107b7578063f2fde38b146107cf578063f76f8d7814610808575b600080fd5b341561013857600080fd5b61016d600480803573ffffffffffffffffffffffffffffffffffffffff16906020019091908035906020019091905050610896565b005b341561017a57600080fd5b610182610a29565b6040518080602001828103825283818151815260200191508051906020019080838360005b838110156101c25780820151818401526020810190506101a7565b50505050905090810190601f1680156101ef5780820380516001836020036101000a031916815260200191505b509250505060405180910390f35b341561020857600080fd5b610210610a6c565b6040518080602001828103825283818151815260200191508051906020019080838360005b83811015610250578082015181840152602081019050610235565b50505050905090810190601f16801561027d5780820380516001836020036101000a031916815260200191505b509250505060405180910390f35b341561029657600080fd5b61029e610aaf565b6040518082815260200191505060405180910390f35b34156102bf57600080fd5b6102c7610ab8565b6040518082815260200191505060405180910390f35b34156102e857600080fd5b6102fe6004808035906020019091905050610ac2565b604051808273ffffffffffffffffffffffffffffffffffffffff1673ffffffffffffffffffffffffffffffffffffffff16815260200191505060405180910390f35b341561034b57600080fd5b6103616004808035906020019091905050610aff565b60405180806020018473ffffffffffffffffffffffffffffffffffffffff1673ffffffffffffffffffffffffffffffffffffffff168152602001838152602001828103825285818151815260200191508051906020019080838360005b838110156103d95780820151818401526020810190506103be565b50505050905090810190601f1680156104065780820380516001836020036101000a031916815260200191505b5094505050505060405180910390f35b341561042157600080fd5b6104376004808035906020019091905050610c0e565b6040518082815260200191505060405180910390f35b341561045857600080fd5b610484600480803573ffffffffffffffffffffffffffffffffffffffff16906020019091905050610ce8565b6040518080602001828103825283818151815260200191508051906020019060200280838360005b838110156104c75780820151818401526020810190506104ac565b505050509050019250505060405180910390f35b34156104e657600080fd5b6104fc6004808035906020019091905050610d85565b604051808273ffffffffffffffffffffffffffffffffffffffff1673ffffffffffffffffffffffffffffffffffffffff16815260200191505060405180910390f35b341561054957600080fd5b610575600480803573ffffffffffffffffffffffffffffffffffffffff16906020019091905050610e03565b6040518082815260200191505060405180910390f35b6105e4600480803590602001909190803590602001908201803590602001908080601f01602080910402602001604051908101604052809392919081815260200183838082843782019150505050505091905050610e4f565b005b34156105f157600080fd5b6105f9610f12565b6040518082815260200191505060405180910390f35b341561061a57600080fd5b610622610f1d565b604051808273ffffffffffffffffffffffffffffffffffffffff1673ffffffffffffffffffffffffffffffffffffffff16815260200191505060405180910390f35b341561066f57600080fd5b610677610f43565b6040518082815260200191505060405180910390f35b341561069857600080fd5b6106a0610f49565b6040518080602001828103825283818151815260200191508051906020019080838360005b838110156106e05780820151818401526020810190506106c5565b50505050905090810190601f16801561070d5780820380516001836020036101000a031916815260200191505b509250505060405180910390f35b341561072657600080fd5b61075b600480803573ffffffffffffffffffffffffffffffffffffffff16906020019091908035906020019091905050610f82565b005b341561076857600080fd5b61077e6004808035906020019091905050610fd5565b005b341561078b57600080fd5b6107a16004808035906020019091905050611000565b6040518082815260200191505060405180910390f35b6107cd6004808035906020019091905050611042565b005b34156107da57600080fd5b610806600480803573ffffffffffffffffffffffffffffffffffffffff169060200190919050506110f7565b005b341561081357600080fd5b61081b61124f565b6040518080602001828103825283818151815260200191508051906020019080838360005b8381101561085b578082015181840152602081019050610840565b50505050905090810190601f1680156108885780820380516001836020036101000a031916815260200191505b509250505060405180910390f35b6000813373ffffffffffffffffffffffffffffffffffffffff166108b982610d85565b73ffffffffffffffffffffffffffffffffffffffff161415156108db57600080fd5b6108e483610d85565b91508173ffffffffffffffffffffffffffffffffffffffff168473ffffffffffffffffffffffffffffffffffffffff161415151561092157600080fd5b600061092c84610ac2565b73ffffffffffffffffffffffffffffffffffffffff16141580610966575060008473ffffffffffffffffffffffffffffffffffffffff1614155b15610a2357836002600085815260200190815260200160002060006101000a81548173ffffffffffffffffffffffffffffffffffffffff021916908373ffffffffffffffffffffffffffffffffffffffff1602179055508373ffffffffffffffffffffffffffffffffffffffff168273ffffffffffffffffffffffffffffffffffffffff167f8c5be1e5ebec7d5bd14f71427d1e84f3dd0314c0f7b2291e5b200ac8c7c3b925856040518082815260200191505060405180910390a35b50505050565b610a316119bf565b6040805190810160405280600181526020017f5000000000000000000000000000000000000000000000000000000000000000815250905090565b610a746119bf565b6040805190810160405280600781526020017f504c414e45545300000000000000000000000000000000000000000000000000815250905090565b60008054905090565b6000600654905090565b60006002600083815260200190815260200160002060009054906101000a900473ffffffffffffffffffffffffffffffffffffffff169050919050565b610b076119bf565b6000806000806000866000600760008381526020019081526020016000205414151515610b3357600080fd5b600860008981526020019081526020016000209350610b5188610d85565b9250610b5c88610c0e565b9150838383828054600181600116156101000203166002900480601f016020809104026020016040519081016040528092919081815260200182805460018160011615610100020316600290048015610bf65780601f10610bcb57610100808354040283529160200191610bf6565b820191906000526020600020905b815481529060010190602001808311610bd957829003601f168201915b50505050509250965096509650505050509193909250565b600080826000600760008381526020019081526020016000205414151515610c3557600080fd5b60076000858152602001908152602001600020549150668e1bc9bf04000082111515610c6657600282029250610ce1565b6703782dace9d9000082111515610c8e57606460af8302811515610c8657fe5b049250610ce1565b6706f05b59d3b2000082111515610cb657606460968302811515610cae57fe5b049250610ce1565b6706f05b59d3b20000821115610cdd576064607d8302811515610cd557fe5b049250610ce1565b8192505b5050919050565b610cf06119d3565b600360008373ffffffffffffffffffffffffffffffffffffffff1673ffffffffffffffffffffffffffffffffffffffff168152602001908152602001600020805480602002602001604051908101604052809291908181526020018280548015610d7957602002820191906000526020600020905b815481526020019060010190808311610d65575b50505050509050919050565b6000806001600084815260200190815260200160002060009054906101000a900473ffffffffffffffffffffffffffffffffffffffff169050600073ffffffffffffffffffffffffffffffffffffffff168173ffffffffffffffffffffffffffffffffffffffff1614151515610dfa57600080fd5b80915050919050565b6000600360008373ffffffffffffffffffffffffffffffffffffffff1673ffffffffffffffffffffffffffffffffffffffff168152602001908152602001600020805490509050919050565b600560009054906101000a900473ffffffffffffffffffffffffffffffffffffffff1673ffffffffffffffffffffffffffffffffffffffff163373ffffffffffffffffffffffffffffffffffffffff16141515610eab57600080fd5b610eb53383611288565b60066000815480929190600101919050555080600860008481526020019081526020016000209080519060200190610eee9291906119e7565b506611c37937e0800060076000848152602001908152602001600020819055505050565b6611c37937e0800081565b600560009054906101000a900473ffffffffffffffffffffffffffffffffffffffff1681565b60065481565b6040805190810160405280600781526020017f504c414e4554530000000000000000000000000000000000000000000000000081525081565b803373ffffffffffffffffffffffffffffffffffffffff16610fa382610d85565b73ffffffffffffffffffffffffffffffffffffffff16141515610fc557600080fd5b610fd0338484611322565b505050565b610fdf338261146b565b1515610fea57600080fd5b610ffd610ff682610d85565b3383611322565b50565b600081600060076000838152602001908152602001600020541415151561102657600080fd5b6007600084815260200190815260200160002054915050919050565b60008082600060076000838152602001908152602001600020541415151561106957600080fd5b61107284610c0e565b925082341015151561108357600080fd5b61108c84610d85565b9150611099823386611322565b8260076000868152602001908152602001600020819055508173ffffffffffffffffffffffffffffffffffffffff166108fc349081150290604051600060405180830381858888f1935050505015156110f157600080fd5b50505050565b600560009054906101000a900473ffffffffffffffffffffffffffffffffffffffff1673ffffffffffffffffffffffffffffffffffffffff163373ffffffffffffffffffffffffffffffffffffffff1614151561115357600080fd5b600073ffffffffffffffffffffffffffffffffffffffff168173ffffffffffffffffffffffffffffffffffffffff161415151561118f57600080fd5b8073ffffffffffffffffffffffffffffffffffffffff16600560009054906101000a900473ffffffffffffffffffffffffffffffffffffffff1673ffffffffffffffffffffffffffffffffffffffff167f8be0079c531659141344cd1fd0a4f28419497f9722a3daafe3b4186f6b6457e060405160405180910390a380600560006101000a81548173ffffffffffffffffffffffffffffffffffffffff021916908373ffffffffffffffffffffffffffffffffffffffff16021790555050565b6040805190810160405280600181526020017f500000000000000000000000000000000000000000000000000000000000000081525081565b600073ffffffffffffffffffffffffffffffffffffffff168273ffffffffffffffffffffffffffffffffffffffff16141515156112c457600080fd5b6112ce82826114ac565b8173ffffffffffffffffffffffffffffffffffffffff1660007fddf252ad1be2c89b69c2b068fc378daa952ba7f163c4a11628f55a4df523b3ef836040518082815260200191505060405180910390a35050565b600073ffffffffffffffffffffffffffffffffffffffff168273ffffffffffffffffffffffffffffffffffffffff161415151561135e57600080fd5b61136781610d85565b73ffffffffffffffffffffffffffffffffffffffff168273ffffffffffffffffffffffffffffffffffffffff16141515156113a157600080fd5b8273ffffffffffffffffffffffffffffffffffffffff166113c182610d85565b73ffffffffffffffffffffffffffffffffffffffff161415156113e357600080fd5b6113ed8382611617565b6113f78382611700565b61140182826114ac565b8173ffffffffffffffffffffffffffffffffffffffff168373ffffffffffffffffffffffffffffffffffffffff167fddf252ad1be2c89b69c2b068fc378daa952ba7f163c4a11628f55a4df523b3ef836040518082815260200191505060405180910390a3505050565b60008273ffffffffffffffffffffffffffffffffffffffff1661148d83610ac2565b73ffffffffffffffffffffffffffffffffffffffff1614905092915050565b60008073ffffffffffffffffffffffffffffffffffffffff166001600084815260200190815260200160002060009054906101000a900473ffffffffffffffffffffffffffffffffffffffff1673ffffffffffffffffffffffffffffffffffffffff1614151561151b57600080fd5b826001600084815260200190815260200160002060006101000a81548173ffffffffffffffffffffffffffffffffffffffff021916908373ffffffffffffffffffffffffffffffffffffffff16021790555061157683610e03565b9050600360008473ffffffffffffffffffffffffffffffffffffffff1673ffffffffffffffffffffffffffffffffffffffff16815260200190815260200160002080548060010182816115c99190611a67565b91600052602060002090016000849091909150555080600460008481526020019081526020016000208190555061160c600160005461198890919063ffffffff16565b600081905550505050565b8173ffffffffffffffffffffffffffffffffffffffff1661163782610d85565b73ffffffffffffffffffffffffffffffffffffffff1614151561165957600080fd5b60006002600083815260200190815260200160002060006101000a81548173ffffffffffffffffffffffffffffffffffffffff021916908373ffffffffffffffffffffffffffffffffffffffff16021790555060008273ffffffffffffffffffffffffffffffffffffffff167f8c5be1e5ebec7d5bd14f71427d1e84f3dd0314c0f7b2291e5b200ac8c7c3b925836040518082815260200191505060405180910390a35050565b60008060008473ffffffffffffffffffffffffffffffffffffffff1661172585610d85565b73ffffffffffffffffffffffffffffffffffffffff1614151561174757600080fd5b60046000858152602001908152602001600020549250611779600161176b87610e03565b6119a690919063ffffffff16565b9150600360008673ffffffffffffffffffffffffffffffffffffffff1673ffffffffffffffffffffffffffffffffffffffff168152602001908152602001600020828154811015156117c757fe5b906000526020600020900154905060006001600086815260200190815260200160002060006101000a81548173ffffffffffffffffffffffffffffffffffffffff021916908373ffffffffffffffffffffffffffffffffffffffff16021790555080600360008773ffffffffffffffffffffffffffffffffffffffff1673ffffffffffffffffffffffffffffffffffffffff1681526020019081526020016000208481548110151561187557fe5b9060005260206000209001819055506000600360008773ffffffffffffffffffffffffffffffffffffffff1673ffffffffffffffffffffffffffffffffffffffff168152602001908152602001600020838154811015156118d257fe5b906000526020600020900181905550600360008673ffffffffffffffffffffffffffffffffffffffff1673ffffffffffffffffffffffffffffffffffffffff1681526020019081526020016000208054809190600190036119339190611a93565b506000600460008681526020019081526020016000208190555082600460008381526020019081526020016000208190555061197b60016000546119a690919063ffffffff16565b6000819055505050505050565b600080828401905083811015151561199c57fe5b8091505092915050565b60008282111515156119b457fe5b818303905092915050565b602060405190810160405280600081525090565b602060405190810160405280600081525090565b828054600181600116156101000203166002900490600052602060002090601f016020900481019282601f10611a2857805160ff1916838001178555611a56565b82800160010185558215611a56579182015b82811115611a55578251825591602001919060010190611a3a565b5b509050611a639190611abf565b5090565b815481835581811511611a8e57818360005260206000209182019101611a8d9190611abf565b5b505050565b815481835581811511611aba57818360005260206000209182019101611ab99190611abf565b5b505050565b611ae191905b80821115611add576000816000905550600101611ac5565b5090565b905600a165627a7a72305820de4ea93a28a1b02dd1a11a5770fa2fe9c4e4b1b92a67f5ed81ffa50238863fcf0029",
  "source": "pragma solidity ^0.4.18;\n\nimport 'zeppelin-solidity/contracts/token/ERC721/ERC721Token.sol';\nimport 'zeppelin-solidity/contracts/ownership/Ownable.sol';\n\ncontract PlanetsERC721 is ERC721Token, Ownable {\n  string constant public NAME = \"PLANETS\";\n  string constant public SYMBOL = \"P\";\n  uint256 constant public PRICE = 0.005 ether;\n  uint256 public objectCount = 0;\n\n  mapping(uint256 => uint256) tokenToPriceMap;\n  mapping(uint256 => string) tokenToNameMap;\n  Planet[] planets;\n\n  struct Planet {\n    string name;\n  }\n\n  function PlanetsERC721() public {\n    mintObject(1, \"Mercury\");\n    mintObject(2, \"Venus\");\n    mintObject(3, \"Earth\");\n    mintObject(4, \"Mars\");\n    mintObject(5, \"Jupiter\");\n    mintObject(6, \"Saturn\");\n    mintObject(7, \"Uranus\");\n    mintObject(8, \"Neptune\");\n  }\n\n  function getName() public pure returns(string) {\n    return NAME;\n  }\n\n  function getSymbol() public pure returns(string) {\n    return SYMBOL;\n  }\n\n  function getObjectCount() public view returns (uint256) {\n    return objectCount;\n  }\n\n  function mintObject(uint256 planetId, string name) public payable onlyOwner() {\n    _mint(msg.sender, planetId);\n    objectCount++;\n    tokenToNameMap[planetId] = name;\n    tokenToPriceMap[planetId] = PRICE;\n  }\n\n  function buyPlanet(uint planetId) public payable onlyMintedTokens(planetId) {\n    //require enough ether\n    uint256 askingPrice = getAskingPrice(planetId);\n    require(msg.value >= askingPrice);\n\n    //transfer planet ownership\n    address previousOwner = ownerOf(planetId);\n    clearApprovalAndTransfer(previousOwner, msg.sender, planetId);\n\n    //update price\n    tokenToPriceMap[planetId] = askingPrice;\n\n    //TODO: take dev cut\n\n\n    //send ether to previous owner\n    previousOwner.transfer(msg.value);\n  }\n\n  function getCurrentPrice(uint256 planetId) public view onlyMintedTokens(planetId) returns(uint256) {\n    return tokenToPriceMap[planetId];\n  }\n\n  function getAskingPrice(uint256 planetId) public view onlyMintedTokens(planetId) returns(uint256) {\n    uint256 lastPrice = tokenToPriceMap[planetId];\n    if (lastPrice <= 0.04 ether) {\n      return lastPrice * 2;\n    }\n    if (lastPrice <= 0.25 ether) {\n      return lastPrice * 175 / 100;\n    }\n    if (lastPrice <= 0.50 ether) {\n      return lastPrice * 150 / 100;\n    }\n    if (lastPrice > 0.50 ether) {\n      return lastPrice * 125 / 100;\n    }\n    return lastPrice;\n  }\n\n  function getPlanet(uint256 planetId) public view onlyMintedTokens(planetId) returns(string, address, uint256) {\n    string name = tokenToNameMap[planetId];\n    address owner = ownerOf(planetId);\n    uint256 askingPrice = getAskingPrice(planetId);\n    return (name, owner, askingPrice);\n  }\n\n  modifier onlyMintedTokens(uint256 planetId) {\n    require(tokenToPriceMap[planetId] != 0);\n    _;\n  }\n}\n",
  "sourcePath": "/home/norm/EtherAds/contracts/PlanetsERC721.sol",
  "compiler": {
    "name": "solc",
    "version": "0.4.18+commit.9cf6e910.Emscripten.clang"
  },
  "schemaVersion": "1.0.1",
  "updatedAt": "2018-02-25T14:45:38.200Z"
}