{
  "contractName": "EtherAds",
  "abi": [
    {
      "constant": false,
      "inputs": [
        {
          "name": "_to",
          "type": "address"
        },
        {
          "name": "_tokenId",
          "type": "uint256"
        }
      ],
      "name": "approve",
      "outputs": [],
      "payable": false,
      "stateMutability": "nonpayable",
      "type": "function"
    },
    {
      "constant": false,
      "inputs": [
        {
          "name": "adId",
          "type": "uint256"
        },
        {
          "name": "name",
          "type": "string"
        },
        {
          "name": "url",
          "type": "string"
        },
        {
          "name": "imageurl",
          "type": "string"
        }
      ],
      "name": "mintObject",
      "outputs": [],
      "payable": true,
      "stateMutability": "payable",
      "type": "function"
    },
    {
      "constant": true,
      "inputs": [],
      "name": "getSymbol",
      "outputs": [
        {
          "name": "",
          "type": "string"
        }
      ],
      "payable": false,
      "stateMutability": "pure",
      "type": "function"
    },
    {
      "constant": true,
      "inputs": [],
      "name": "getName",
      "outputs": [
        {
          "name": "",
          "type": "string"
        }
      ],
      "payable": false,
      "stateMutability": "pure",
      "type": "function"
    },
    {
      "constant": true,
      "inputs": [],
      "name": "totalSupply",
      "outputs": [
        {
          "name": "",
          "type": "uint256"
        }
      ],
      "payable": false,
      "stateMutability": "view",
      "type": "function"
    },
    {
      "constant": true,
      "inputs": [],
      "name": "getObjectCount",
      "outputs": [
        {
          "name": "",
          "type": "uint256"
        }
      ],
      "payable": false,
      "stateMutability": "view",
      "type": "function"
    },
    {
      "constant": true,
      "inputs": [
        {
          "name": "_tokenId",
          "type": "uint256"
        }
      ],
      "name": "approvedFor",
      "outputs": [
        {
          "name": "",
          "type": "address"
        }
      ],
      "payable": false,
      "stateMutability": "view",
      "type": "function"
    },
    {
      "constant": true,
      "inputs": [
        {
          "name": "adId",
          "type": "uint256"
        }
      ],
      "name": "getAskingPrice",
      "outputs": [
        {
          "name": "",
          "type": "uint256"
        }
      ],
      "payable": false,
      "stateMutability": "view",
      "type": "function"
    },
    {
      "constant": false,
      "inputs": [
        {
          "name": "adId",
          "type": "uint256"
        },
        {
          "name": "url",
          "type": "string"
        },
        {
          "name": "img",
          "type": "string"
        }
      ],
      "name": "buyAd",
      "outputs": [],
      "payable": true,
      "stateMutability": "payable",
      "type": "function"
    },
    {
      "constant": true,
      "inputs": [
        {
          "name": "_owner",
          "type": "address"
        }
      ],
      "name": "tokensOf",
      "outputs": [
        {
          "name": "",
          "type": "uint256[]"
        }
      ],
      "payable": false,
      "stateMutability": "view",
      "type": "function"
    },
    {
      "constant": true,
      "inputs": [
        {
          "name": "_tokenId",
          "type": "uint256"
        }
      ],
      "name": "ownerOf",
      "outputs": [
        {
          "name": "",
          "type": "address"
        }
      ],
      "payable": false,
      "stateMutability": "view",
      "type": "function"
    },
    {
      "constant": true,
      "inputs": [
        {
          "name": "_owner",
          "type": "address"
        }
      ],
      "name": "balanceOf",
      "outputs": [
        {
          "name": "",
          "type": "uint256"
        }
      ],
      "payable": false,
      "stateMutability": "view",
      "type": "function"
    },
    {
      "constant": false,
      "inputs": [],
      "name": "withdrawEther",
      "outputs": [],
      "payable": false,
      "stateMutability": "nonpayable",
      "type": "function"
    },
    {
      "constant": true,
      "inputs": [
        {
          "name": "adId",
          "type": "uint256"
        }
      ],
      "name": "getAd",
      "outputs": [
        {
          "name": "",
          "type": "string"
        },
        {
          "name": "",
          "type": "address"
        },
        {
          "name": "",
          "type": "uint256"
        },
        {
          "name": "",
          "type": "string"
        },
        {
          "name": "",
          "type": "string"
        }
      ],
      "payable": false,
      "stateMutability": "view",
      "type": "function"
    },
    {
      "constant": true,
      "inputs": [],
      "name": "PRICE",
      "outputs": [
        {
          "name": "",
          "type": "uint256"
        }
      ],
      "payable": false,
      "stateMutability": "view",
      "type": "function"
    },
    {
      "constant": true,
      "inputs": [],
      "name": "owner",
      "outputs": [
        {
          "name": "",
          "type": "address"
        }
      ],
      "payable": false,
      "stateMutability": "view",
      "type": "function"
    },
    {
      "constant": true,
      "inputs": [],
      "name": "objectCount",
      "outputs": [
        {
          "name": "",
          "type": "uint256"
        }
      ],
      "payable": false,
      "stateMutability": "view",
      "type": "function"
    },
    {
      "constant": true,
      "inputs": [],
      "name": "NAME",
      "outputs": [
        {
          "name": "",
          "type": "string"
        }
      ],
      "payable": false,
      "stateMutability": "view",
      "type": "function"
    },
    {
      "constant": false,
      "inputs": [
        {
          "name": "_to",
          "type": "address"
        },
        {
          "name": "_tokenId",
          "type": "uint256"
        }
      ],
      "name": "transfer",
      "outputs": [],
      "payable": false,
      "stateMutability": "nonpayable",
      "type": "function"
    },
    {
      "constant": false,
      "inputs": [
        {
          "name": "_tokenId",
          "type": "uint256"
        }
      ],
      "name": "takeOwnership",
      "outputs": [],
      "payable": false,
      "stateMutability": "nonpayable",
      "type": "function"
    },
    {
      "constant": true,
      "inputs": [
        {
          "name": "adId",
          "type": "uint256"
        }
      ],
      "name": "getPoCut",
      "outputs": [
        {
          "name": "",
          "type": "uint256"
        }
      ],
      "payable": false,
      "stateMutability": "view",
      "type": "function"
    },
    {
      "constant": true,
      "inputs": [
        {
          "name": "adId",
          "type": "uint256"
        }
      ],
      "name": "getCurrentPrice",
      "outputs": [
        {
          "name": "",
          "type": "uint256"
        }
      ],
      "payable": false,
      "stateMutability": "view",
      "type": "function"
    },
    {
      "constant": true,
      "inputs": [
        {
          "name": "adId",
          "type": "uint256"
        }
      ],
      "name": "getDevCut",
      "outputs": [
        {
          "name": "",
          "type": "uint256"
        }
      ],
      "payable": false,
      "stateMutability": "view",
      "type": "function"
    },
    {
      "constant": false,
      "inputs": [
        {
          "name": "newOwner",
          "type": "address"
        }
      ],
      "name": "transferOwnership",
      "outputs": [],
      "payable": false,
      "stateMutability": "nonpayable",
      "type": "function"
    },
    {
      "constant": true,
      "inputs": [],
      "name": "SYMBOL",
      "outputs": [
        {
          "name": "",
          "type": "string"
        }
      ],
      "payable": false,
      "stateMutability": "view",
      "type": "function"
    },
    {
      "inputs": [],
      "payable": false,
      "stateMutability": "nonpayable",
      "type": "constructor"
    },
    {
      "anonymous": false,
      "inputs": [
        {
          "indexed": true,
          "name": "previousOwner",
          "type": "address"
        },
        {
          "indexed": true,
          "name": "newOwner",
          "type": "address"
        }
      ],
      "name": "OwnershipTransferred",
      "type": "event"
    },
    {
      "anonymous": false,
      "inputs": [
        {
          "indexed": true,
          "name": "_from",
          "type": "address"
        },
        {
          "indexed": true,
          "name": "_to",
          "type": "address"
        },
        {
          "indexed": false,
          "name": "_tokenId",
          "type": "uint256"
        }
      ],
      "name": "Transfer",
      "type": "event"
    },
    {
      "anonymous": false,
      "inputs": [
        {
          "indexed": true,
          "name": "_owner",
          "type": "address"
        },
        {
          "indexed": true,
          "name": "_approved",
          "type": "address"
        },
        {
          "indexed": false,
          "name": "_tokenId",
          "type": "uint256"
        }
      ],
      "name": "Approval",
      "type": "event"
    }
  ],
  "bytecode": "0x6060604052600060065534156200001557600080fd5b33600560006101000a81548173ffffffffffffffffffffffffffffffffffffffff021916908373ffffffffffffffffffffffffffffffffffffffff1602179055506200016560016040805190810160405280600881526020017f455448455245554d0000000000000000000000000000000000000000000000008152506040805190810160405280601681526020017f687474703a2f2f7777772e65746865726164732e636f00000000000000000000815250608060405190810160405280604b81526020017f68747470733a2f2f676174657761792e697066732e696f2f697066732f516d5881526020017f6f61464232747358613459574e4552517379706e787551553834447a3473773181526020017f6a444236444763477752480000000000000000000000000000000000000000008152506200016b6401000000000262000cb1176401000000009004565b6200062b565b600560009054906101000a900473ffffffffffffffffffffffffffffffffffffffff1673ffffffffffffffffffffffffffffffffffffffff163373ffffffffffffffffffffffffffffffffffffffff16141515620001c857600080fd5b620001e833856200029d6401000000000262001834176401000000009004565b60066000815480929190600101919050555082600860008681526020019081526020016000209080519060200190620002239291906200054d565b50816009600086815260200190815260200160002090805190602001906200024d9291906200054d565b506601c6bf52634000600760008681526020019081526020016000208190555080600a60008681526020019081526020016000209080519060200190620002969291906200054d565b5050505050565b600073ffffffffffffffffffffffffffffffffffffffff168273ffffffffffffffffffffffffffffffffffffffff1614151515620002da57600080fd5b620002fa82826200034e6401000000000262001a58176401000000009004565b8173ffffffffffffffffffffffffffffffffffffffff1660007fddf252ad1be2c89b69c2b068fc378daa952ba7f163c4a11628f55a4df523b3ef836040518082815260200191505060405180910390a35050565b60008073ffffffffffffffffffffffffffffffffffffffff166001600084815260200190815260200160002060009054906101000a900473ffffffffffffffffffffffffffffffffffffffff1673ffffffffffffffffffffffffffffffffffffffff16141515620003be57600080fd5b826001600084815260200190815260200160002060006101000a81548173ffffffffffffffffffffffffffffffffffffffff021916908373ffffffffffffffffffffffffffffffffffffffff1602179055506200042f83620004e26401000000000262001116176401000000009004565b9050600360008473ffffffffffffffffffffffffffffffffffffffff1673ffffffffffffffffffffffffffffffffffffffff1681526020019081526020016000208054806001018281620004849190620005d4565b916000526020600020900160008490919091505550806004600084815260200190815260200160002081905550620004d760016000546200052e6401000000000262001f34179091906401000000009004565b600081905550505050565b6000600360008373ffffffffffffffffffffffffffffffffffffffff1673ffffffffffffffffffffffffffffffffffffffff168152602001908152602001600020805490509050919050565b60008082840190508381101515156200054357fe5b8091505092915050565b828054600181600116156101000203166002900490600052602060002090601f016020900481019282601f106200059057805160ff1916838001178555620005c1565b82800160010185558215620005c1579182015b82811115620005c0578251825591602001919060010190620005a3565b5b509050620005d0919062000603565b5090565b815481835581811511620005fe57818360005260206000209182019101620005fd919062000603565b5b505050565b6200062891905b80821115620006245760008160009055506001016200060a565b5090565b90565b6120bc806200063b6000396000f300606060405260043610610149576000357c0100000000000000000000000000000000000000000000000000000000900463ffffffff168063095ea7b31461014e5780630ef73d3814610190578063150704011461027157806317d7de7c146102ff57806318160ddd1461038d5780631a848cfb146103b65780632a6dd48f146103df578063451ba24c146104425780634f26ef80146104795780635a3f2672146105175780636352211e146105a557806370a08231146106085780637362377b146106555780637ede1c071461066a5780638d859f3e146108185780638da5cb5b1461084157806396c5892c14610896578063a3f4df7e146108bf578063a9059cbb1461094d578063b2e6ceeb1461098f578063c0dbed6d146109b2578063c55d0f56146109e9578063ec0d487b14610a20578063f2fde38b14610a57578063f76f8d7814610a90575b600080fd5b341561015957600080fd5b61018e600480803573ffffffffffffffffffffffffffffffffffffffff16906020019091908035906020019091905050610b1e565b005b61026f600480803590602001909190803590602001908201803590602001908080601f0160208091040260200160405190810160405280939291908181526020018383808284378201915050505050509190803590602001908201803590602001908080601f0160208091040260200160405190810160405280939291908181526020018383808284378201915050505050509190803590602001908201803590602001908080601f01602080910402602001604051908101604052809392919081815260200183838082843782019150505050505091905050610cb1565b005b341561027c57600080fd5b610284610dc6565b6040518080602001828103825283818151815260200191508051906020019080838360005b838110156102c45780820151818401526020810190506102a9565b50505050905090810190601f1680156102f15780820380516001836020036101000a031916815260200191505b509250505060405180910390f35b341561030a57600080fd5b610312610e09565b6040518080602001828103825283818151815260200191508051906020019080838360005b83811015610352578082015181840152602081019050610337565b50505050905090810190601f16801561037f5780820380516001836020036101000a031916815260200191505b509250505060405180910390f35b341561039857600080fd5b6103a0610e4c565b6040518082815260200191505060405180910390f35b34156103c157600080fd5b6103c9610e55565b6040518082815260200191505060405180910390f35b34156103ea57600080fd5b6104006004808035906020019091905050610e5f565b604051808273ffffffffffffffffffffffffffffffffffffffff1673ffffffffffffffffffffffffffffffffffffffff16815260200191505060405180910390f35b341561044d57600080fd5b6104636004808035906020019091905050610e9c565b6040518082815260200191505060405180910390f35b610515600480803590602001909190803590602001908201803590602001908080601f0160208091040260200160405190810160405280939291908181526020018383808284378201915050505050509190803590602001908201803590602001908080601f01602080910402602001604051908101604052809392919081815260200183838082843782019150505050505091905050610ee6565b005b341561052257600080fd5b61054e600480803573ffffffffffffffffffffffffffffffffffffffff16906020019091905050610ffb565b6040518080602001828103825283818151815260200191508051906020019060200280838360005b83811015610591578082015181840152602081019050610576565b505050509050019250505060405180910390f35b34156105b057600080fd5b6105c66004808035906020019091905050611098565b604051808273ffffffffffffffffffffffffffffffffffffffff1673ffffffffffffffffffffffffffffffffffffffff16815260200191505060405180910390f35b341561061357600080fd5b61063f600480803573ffffffffffffffffffffffffffffffffffffffff16906020019091905050611116565b6040518082815260200191505060405180910390f35b341561066057600080fd5b610668611162565b005b341561067557600080fd5b61068b6004808035906020019091905050611239565b60405180806020018673ffffffffffffffffffffffffffffffffffffffff1673ffffffffffffffffffffffffffffffffffffffff1681526020018581526020018060200180602001848103845289818151815260200191508051906020019080838360005b8381101561070b5780820151818401526020810190506106f0565b50505050905090810190601f1680156107385780820380516001836020036101000a031916815260200191505b50848103835286818151815260200191508051906020019080838360005b83811015610771578082015181840152602081019050610756565b50505050905090810190601f16801561079e5780820380516001836020036101000a031916815260200191505b50848103825285818151815260200191508051906020019080838360005b838110156107d75780820151818401526020810190506107bc565b50505050905090810190601f1680156108045780820380516001836020036101000a031916815260200191505b509850505050505050505060405180910390f35b341561082357600080fd5b61082b6114c7565b6040518082815260200191505060405180910390f35b341561084c57600080fd5b6108546114d2565b604051808273ffffffffffffffffffffffffffffffffffffffff1673ffffffffffffffffffffffffffffffffffffffff16815260200191505060405180910390f35b34156108a157600080fd5b6108a96114f8565b6040518082815260200191505060405180910390f35b34156108ca57600080fd5b6108d26114fe565b6040518080602001828103825283818151815260200191508051906020019080838360005b838110156109125780820151818401526020810190506108f7565b50505050905090810190601f16801561093f5780820380516001836020036101000a031916815260200191505b509250505060405180910390f35b341561095857600080fd5b61098d600480803573ffffffffffffffffffffffffffffffffffffffff16906020019091908035906020019091905050611537565b005b341561099a57600080fd5b6109b0600480803590602001909190505061158a565b005b34156109bd57600080fd5b6109d360048080359060200190919050506115b5565b6040518082815260200191505060405180910390f35b34156109f457600080fd5b610a0a600480803590602001909190505061160b565b6040518082815260200191505060405180910390f35b3415610a2b57600080fd5b610a41600480803590602001909190505061164d565b6040518082815260200191505060405180910390f35b3415610a6257600080fd5b610a8e600480803573ffffffffffffffffffffffffffffffffffffffff169060200190919050506116a3565b005b3415610a9b57600080fd5b610aa36117fb565b6040518080602001828103825283818151815260200191508051906020019080838360005b83811015610ae3578082015181840152602081019050610ac8565b50505050905090810190601f168015610b105780820380516001836020036101000a031916815260200191505b509250505060405180910390f35b6000813373ffffffffffffffffffffffffffffffffffffffff16610b4182611098565b73ffffffffffffffffffffffffffffffffffffffff16141515610b6357600080fd5b610b6c83611098565b91508173ffffffffffffffffffffffffffffffffffffffff168473ffffffffffffffffffffffffffffffffffffffff1614151515610ba957600080fd5b6000610bb484610e5f565b73ffffffffffffffffffffffffffffffffffffffff16141580610bee575060008473ffffffffffffffffffffffffffffffffffffffff1614155b15610cab57836002600085815260200190815260200160002060006101000a81548173ffffffffffffffffffffffffffffffffffffffff021916908373ffffffffffffffffffffffffffffffffffffffff1602179055508373ffffffffffffffffffffffffffffffffffffffff168273ffffffffffffffffffffffffffffffffffffffff167f8c5be1e5ebec7d5bd14f71427d1e84f3dd0314c0f7b2291e5b200ac8c7c3b925856040518082815260200191505060405180910390a35b50505050565b600560009054906101000a900473ffffffffffffffffffffffffffffffffffffffff1673ffffffffffffffffffffffffffffffffffffffff163373ffffffffffffffffffffffffffffffffffffffff16141515610d0d57600080fd5b610d173385611834565b60066000815480929190600101919050555082600860008681526020019081526020016000209080519060200190610d50929190611f6b565b5081600960008681526020019081526020016000209080519060200190610d78929190611f6b565b506601c6bf52634000600760008681526020019081526020016000208190555080600a60008681526020019081526020016000209080519060200190610dbf929190611f6b565b5050505050565b610dce611feb565b6040805190810160405280600381526020017f4541440000000000000000000000000000000000000000000000000000000000815250905090565b610e11611feb565b6040805190810160405280600681526020017f4574684164730000000000000000000000000000000000000000000000000000815250905090565b60008054905090565b6000600654905090565b60006002600083815260200190815260200160002060009054906101000a900473ffffffffffffffffffffffffffffffffffffffff169050919050565b600080826000600760008381526020019081526020016000205414151515610ec357600080fd5b600760008581526020019081526020016000205491506002820292505050919050565b6000806000856000600760008381526020019081526020016000205414151515610f0f57600080fd5b610f1887610e9c565b9350833410151515610f2957600080fd5b610f3287611098565b9250610f3f8333896118ce565b83600760008981526020019081526020016000208190555085600960008981526020019081526020016000209080519060200190610f7e929190611f6b565b5084600a60008981526020019081526020016000209080519060200190610fa6929190611f6b565b50610fb0876115b5565b91508273ffffffffffffffffffffffffffffffffffffffff166108fc839081150290604051600060405180830381858888f193505050501515610ff257600080fd5b50505050505050565b611003611fff565b600360008373ffffffffffffffffffffffffffffffffffffffff1673ffffffffffffffffffffffffffffffffffffffff16815260200190815260200160002080548060200260200160405190810160405280929190818152602001828054801561108c57602002820191906000526020600020905b815481526020019060010190808311611078575b50505050509050919050565b6000806001600084815260200190815260200160002060009054906101000a900473ffffffffffffffffffffffffffffffffffffffff169050600073ffffffffffffffffffffffffffffffffffffffff168173ffffffffffffffffffffffffffffffffffffffff161415151561110d57600080fd5b80915050919050565b6000600360008373ffffffffffffffffffffffffffffffffffffffff1673ffffffffffffffffffffffffffffffffffffffff168152602001908152602001600020805490509050919050565b600560009054906101000a900473ffffffffffffffffffffffffffffffffffffffff1673ffffffffffffffffffffffffffffffffffffffff163373ffffffffffffffffffffffffffffffffffffffff161415156111be57600080fd5b600560009054906101000a900473ffffffffffffffffffffffffffffffffffffffff1673ffffffffffffffffffffffffffffffffffffffff166108fc3073ffffffffffffffffffffffffffffffffffffffff16319081150290604051600060405180830381858888f19350505050151561123757600080fd5b565b611241611feb565b60008061124c611feb565b611254611feb565b60008060008060008a600060076000838152602001908152602001600020541415151561128057600080fd5b600860008d8152602001908152602001600020955061129e8c611098565b94506112a98c610e9c565b9350600960008d81526020019081526020016000209250600a60008d815260200190815260200160002091508585858585848054600181600116156101000203166002900480601f01602080910402602001604051908101604052809291908181526020018280546001816001161561010002031660029004801561136f5780601f106113445761010080835404028352916020019161136f565b820191906000526020600020905b81548152906001019060200180831161135257829003601f168201915b50505050509450818054600181600116156101000203166002900480601f01602080910402602001604051908101604052809291908181526020018280546001816001161561010002031660029004801561140b5780601f106113e05761010080835404028352916020019161140b565b820191906000526020600020905b8154815290600101906020018083116113ee57829003601f168201915b50505050509150808054600181600116156101000203166002900480601f0160208091040260200160405190810160405280929190818152602001828054600181600116156101000203166002900480156114a75780601f1061147c576101008083540402835291602001916114a7565b820191906000526020600020905b81548152906001019060200180831161148a57829003601f168201915b505050505090509a509a509a509a509a5050505050505091939590929450565b6601c6bf5263400081565b600560009054906101000a900473ffffffffffffffffffffffffffffffffffffffff1681565b60065481565b6040805190810160405280600681526020017f457468416473000000000000000000000000000000000000000000000000000081525081565b803373ffffffffffffffffffffffffffffffffffffffff1661155882611098565b73ffffffffffffffffffffffffffffffffffffffff1614151561157a57600080fd5b6115853384846118ce565b505050565b6115943382611a17565b151561159f57600080fd5b6115b26115ab82611098565b33836118ce565b50565b6000808260006007600083815260200190815260200160002054141515156115dc57600080fd5b6007600085815260200190815260200160002054915060646043830281151561160157fe5b0492505050919050565b600081600060076000838152602001908152602001600020541415151561163157600080fd5b6007600084815260200190815260200160002054915050919050565b60008082600060076000838152602001908152602001600020541415151561167457600080fd5b6007600085815260200190815260200160002054915060646021830281151561169957fe5b0492505050919050565b600560009054906101000a900473ffffffffffffffffffffffffffffffffffffffff1673ffffffffffffffffffffffffffffffffffffffff163373ffffffffffffffffffffffffffffffffffffffff161415156116ff57600080fd5b600073ffffffffffffffffffffffffffffffffffffffff168173ffffffffffffffffffffffffffffffffffffffff161415151561173b57600080fd5b8073ffffffffffffffffffffffffffffffffffffffff16600560009054906101000a900473ffffffffffffffffffffffffffffffffffffffff1673ffffffffffffffffffffffffffffffffffffffff167f8be0079c531659141344cd1fd0a4f28419497f9722a3daafe3b4186f6b6457e060405160405180910390a380600560006101000a81548173ffffffffffffffffffffffffffffffffffffffff021916908373ffffffffffffffffffffffffffffffffffffffff16021790555050565b6040805190810160405280600381526020017f454144000000000000000000000000000000000000000000000000000000000081525081565b600073ffffffffffffffffffffffffffffffffffffffff168273ffffffffffffffffffffffffffffffffffffffff161415151561187057600080fd5b61187a8282611a58565b8173ffffffffffffffffffffffffffffffffffffffff1660007fddf252ad1be2c89b69c2b068fc378daa952ba7f163c4a11628f55a4df523b3ef836040518082815260200191505060405180910390a35050565b600073ffffffffffffffffffffffffffffffffffffffff168273ffffffffffffffffffffffffffffffffffffffff161415151561190a57600080fd5b61191381611098565b73ffffffffffffffffffffffffffffffffffffffff168273ffffffffffffffffffffffffffffffffffffffff161415151561194d57600080fd5b8273ffffffffffffffffffffffffffffffffffffffff1661196d82611098565b73ffffffffffffffffffffffffffffffffffffffff1614151561198f57600080fd5b6119998382611bc3565b6119a38382611cac565b6119ad8282611a58565b8173ffffffffffffffffffffffffffffffffffffffff168373ffffffffffffffffffffffffffffffffffffffff167fddf252ad1be2c89b69c2b068fc378daa952ba7f163c4a11628f55a4df523b3ef836040518082815260200191505060405180910390a3505050565b60008273ffffffffffffffffffffffffffffffffffffffff16611a3983610e5f565b73ffffffffffffffffffffffffffffffffffffffff1614905092915050565b60008073ffffffffffffffffffffffffffffffffffffffff166001600084815260200190815260200160002060009054906101000a900473ffffffffffffffffffffffffffffffffffffffff1673ffffffffffffffffffffffffffffffffffffffff16141515611ac757600080fd5b826001600084815260200190815260200160002060006101000a81548173ffffffffffffffffffffffffffffffffffffffff021916908373ffffffffffffffffffffffffffffffffffffffff160217905550611b2283611116565b9050600360008473ffffffffffffffffffffffffffffffffffffffff1673ffffffffffffffffffffffffffffffffffffffff1681526020019081526020016000208054806001018281611b759190612013565b916000526020600020900160008490919091505550806004600084815260200190815260200160002081905550611bb86001600054611f3490919063ffffffff16565b600081905550505050565b8173ffffffffffffffffffffffffffffffffffffffff16611be382611098565b73ffffffffffffffffffffffffffffffffffffffff16141515611c0557600080fd5b60006002600083815260200190815260200160002060006101000a81548173ffffffffffffffffffffffffffffffffffffffff021916908373ffffffffffffffffffffffffffffffffffffffff16021790555060008273ffffffffffffffffffffffffffffffffffffffff167f8c5be1e5ebec7d5bd14f71427d1e84f3dd0314c0f7b2291e5b200ac8c7c3b925836040518082815260200191505060405180910390a35050565b60008060008473ffffffffffffffffffffffffffffffffffffffff16611cd185611098565b73ffffffffffffffffffffffffffffffffffffffff16141515611cf357600080fd5b60046000858152602001908152602001600020549250611d256001611d1787611116565b611f5290919063ffffffff16565b9150600360008673ffffffffffffffffffffffffffffffffffffffff1673ffffffffffffffffffffffffffffffffffffffff16815260200190815260200160002082815481101515611d7357fe5b906000526020600020900154905060006001600086815260200190815260200160002060006101000a81548173ffffffffffffffffffffffffffffffffffffffff021916908373ffffffffffffffffffffffffffffffffffffffff16021790555080600360008773ffffffffffffffffffffffffffffffffffffffff1673ffffffffffffffffffffffffffffffffffffffff16815260200190815260200160002084815481101515611e2157fe5b9060005260206000209001819055506000600360008773ffffffffffffffffffffffffffffffffffffffff1673ffffffffffffffffffffffffffffffffffffffff16815260200190815260200160002083815481101515611e7e57fe5b906000526020600020900181905550600360008673ffffffffffffffffffffffffffffffffffffffff1673ffffffffffffffffffffffffffffffffffffffff168152602001908152602001600020805480919060019003611edf919061203f565b5060006004600086815260200190815260200160002081905550826004600083815260200190815260200160002081905550611f276001600054611f5290919063ffffffff16565b6000819055505050505050565b6000808284019050838110151515611f4857fe5b8091505092915050565b6000828211151515611f6057fe5b818303905092915050565b828054600181600116156101000203166002900490600052602060002090601f016020900481019282601f10611fac57805160ff1916838001178555611fda565b82800160010185558215611fda579182015b82811115611fd9578251825591602001919060010190611fbe565b5b509050611fe7919061206b565b5090565b602060405190810160405280600081525090565b602060405190810160405280600081525090565b81548183558181151161203a57818360005260206000209182019101612039919061206b565b5b505050565b81548183558181151161206657818360005260206000209182019101612065919061206b565b5b505050565b61208d91905b80821115612089576000816000905550600101612071565b5090565b905600a165627a7a723058200dfd83ff5b20b5b9ed5a43361d47e4797a890d2d80329b611a3d40c769f9deb70029",
  "source": "pragma solidity ^0.4.18;\n\nimport 'zeppelin-solidity/contracts/token/ERC721/ERC721Token.sol';\nimport 'zeppelin-solidity/contracts/ownership/Ownable.sol';\nimport './usingOraclize.sol';\n\ncontract EtherAds is ERC721Token, Ownable {\n  string constant public NAME = \"EthAds\";\n  string constant public SYMBOL = \"EAD\";\n  uint256 constant public PRICE = 0.0005 ether;\n  uint256 public objectCount = 0;\n\n  mapping(uint256 => uint256) tokenToPriceMap;\n  mapping(uint256 => string) tokenToNameMap;\n  mapping(uint256 => string) tokenToUrlMap;\n  mapping(uint256 => string) tokenToImageUrlMap;\n\n  Ad[] ads;\n\n  struct Ad {\n    string name;\n    string url;\n    string imageurl; \n  }\n\n  function EtherAds() public {\n    mintObject(1, \"ETHEREUM\", \"http://www.etherads.co\", \"https://gateway.ipfs.io/ipfs/QmXoaFB2tsXa4YWNERQsypnxuQU84Dz4sw1jDB6DGcGwRH\");\n//    mintObject(2, \"ICO\", \"http://www.etherads.co\", \"https://www.ethereum.org/images/logos/ETHEREUM-ICON_Black_small.png\");\n//    mintObject(3, \"EXCHANGE\", \"http://www.etherads.co\", \"https://www.ethereum.org/images/logos/ETHEREUM-ICON_Black_small.png\");//\n//    mintObject(4, \"BITCOIN\", \"http://www.etherads.co\", \"https://www.ethereum.org/images/logos/ETHEREUM-ICON_Black_small.png\");\n//    mintObject(5, \"CASINO\", \"http://www.etherads.co\", \"https://www.ethereum.org/images/logos/ETHEREUM-ICON_Black_small.png\");\n//    mintObject(6, \"AUCTION\", \"http://www.etherads.co\", \"https://www.ethereum.org/images/logos/ETHEREUM-ICON_Black_small.png\");\n//    mintObject(7, \"WALLET\", \"http://www.etherads.co\", \"https://www.ethereum.org/images/logos/ETHEREUM-ICON_Black_small.png\");\n//    mintObject(8, \"CRYPTO\", \"http://www.etherads.co\", \"https://www.ethereum.org/images/logos/ETHEREUM-ICON_Black_small.png\");\n//    mintObject(9, \"GAMES\", \"http://www.etherads.co\", \"https://www.ethereum.org/images/logos/ETHEREUM-ICON_Black_small.png\");\n//    mintObject(10, \"TOKENS\", \"http://www.etherads.co\", \"https://www.ethereum.org/images/logos/ETHEREUM-ICON_Black_small.png\");\n  }\n\n  function getName() public pure returns(string) {\n    return NAME;\n  }\n\n  function getSymbol() public pure returns(string) {\n    return SYMBOL;\n  }\n\n  function getObjectCount() public view returns (uint256) {\n    return objectCount;\n  }\n\n  function mintObject(uint256 adId, string name, string url, string imageurl) public payable onlyOwner() {\n    _mint(msg.sender, adId);\n    objectCount++;\n    tokenToNameMap[adId] = name;\n    tokenToUrlMap[adId] = url;\n    tokenToPriceMap[adId] = PRICE;\n    tokenToImageUrlMap[adId] = imageurl;\n  }\n\n  function buyAd(uint adId, string url, string img) public payable onlyMintedTokens(adId) {\n    //require enough ether\n    uint256 askingPrice = getAskingPrice(adId);\n    require(msg.value >= askingPrice);\n\n    //transfer ad ownership\n    address previousOwner = ownerOf(adId);\n\n    clearApprovalAndTransfer(previousOwner, msg.sender, adId);\n\n    //update price\n    tokenToPriceMap[adId] = askingPrice;\n    tokenToUrlMap[adId] = (url);\n    tokenToImageUrlMap[adId] = (img);\n\n    //TODO: take dev cut\n    uint256 pocut = getPoCut(adId);\n\n    //send ether to previous owner\n    previousOwner.transfer(pocut);\n  }\n\n  function getDevCut(uint256 adId) public view onlyMintedTokens(adId) returns(uint256) {\n    uint256 askingPrice = tokenToPriceMap[adId];\n    return askingPrice * 33 / 100;\n  }\n\n  function getPoCut(uint256 adId) public view onlyMintedTokens(adId) returns(uint256) {\n    uint256 askingPrice = tokenToPriceMap[adId];\n    return askingPrice * 67 / 100;\n  }\n\n  function getCurrentPrice(uint256 adId) public view onlyMintedTokens(adId) returns(uint256) {\n    return tokenToPriceMap[adId];\n  }\n\n  function getAskingPrice(uint256 adId) public view onlyMintedTokens(adId) returns(uint256) {\n    uint256 lastPrice = tokenToPriceMap[adId];\n      return lastPrice * 2;\n  }\n\n  function getAd(uint256 adId) public view onlyMintedTokens(adId) returns(string, address, uint256, string, string) {\n    string name = tokenToNameMap[adId];\n    address owner = ownerOf(adId);\n    uint256 askingPrice = getAskingPrice(adId);\n    string url = tokenToUrlMap[adId];\n    string imageurl = tokenToImageUrlMap[adId];\n    return (name, owner, askingPrice, url, imageurl);\n  }\n\n  function withdrawEther() external onlyOwner {\n    owner.transfer(this.balance);\n  }\n\n  modifier onlyMintedTokens(uint256 adId) {\n    require(tokenToPriceMap[adId] != 0);\n    _;\n  }\n}\n",
  "sourcePath": "/home/norm/EtherAds/contracts/EtherAds.sol",
  "compiler": {
    "name": "solc",
    "version": "0.4.18+commit.9cf6e910.Emscripten.clang"
  },
  "schemaVersion": "1.0.1",
  "updatedAt": "2018-03-08T03:39:52.105Z"
}