{
  "contractName": "EtherAds",
  "abi": [
    {
      "constant": false,
      "inputs": [
        {
          "name": "adId",
          "type": "uint256"
        },
        {
          "name": "url",
          "type": "string"
        }
      ],
      "name": "buyAd",
      "outputs": [],
      "payable": true,
      "stateMutability": "payable",
      "type": "function"
    },
    {
      "constant": false,
      "inputs": [
        {
          "name": "_to",
          "type": "address"
        },
        {
          "name": "_tokenId",
          "type": "uint256"
        }
      ],
      "name": "approve",
      "outputs": [],
      "payable": false,
      "stateMutability": "nonpayable",
      "type": "function"
    },
    {
      "constant": true,
      "inputs": [],
      "name": "getSymbol",
      "outputs": [
        {
          "name": "",
          "type": "string"
        }
      ],
      "payable": false,
      "stateMutability": "pure",
      "type": "function"
    },
    {
      "constant": true,
      "inputs": [],
      "name": "getName",
      "outputs": [
        {
          "name": "",
          "type": "string"
        }
      ],
      "payable": false,
      "stateMutability": "pure",
      "type": "function"
    },
    {
      "constant": true,
      "inputs": [],
      "name": "totalSupply",
      "outputs": [
        {
          "name": "",
          "type": "uint256"
        }
      ],
      "payable": false,
      "stateMutability": "view",
      "type": "function"
    },
    {
      "constant": true,
      "inputs": [],
      "name": "getObjectCount",
      "outputs": [
        {
          "name": "",
          "type": "uint256"
        }
      ],
      "payable": false,
      "stateMutability": "view",
      "type": "function"
    },
    {
      "constant": true,
      "inputs": [
        {
          "name": "_tokenId",
          "type": "uint256"
        }
      ],
      "name": "approvedFor",
      "outputs": [
        {
          "name": "",
          "type": "address"
        }
      ],
      "payable": false,
      "stateMutability": "view",
      "type": "function"
    },
    {
      "constant": true,
      "inputs": [
        {
          "name": "adId",
          "type": "uint256"
        }
      ],
      "name": "getAskingPrice",
      "outputs": [
        {
          "name": "",
          "type": "uint256"
        }
      ],
      "payable": false,
      "stateMutability": "view",
      "type": "function"
    },
    {
      "constant": true,
      "inputs": [
        {
          "name": "_owner",
          "type": "address"
        }
      ],
      "name": "tokensOf",
      "outputs": [
        {
          "name": "",
          "type": "uint256[]"
        }
      ],
      "payable": false,
      "stateMutability": "view",
      "type": "function"
    },
    {
      "constant": true,
      "inputs": [
        {
          "name": "_tokenId",
          "type": "uint256"
        }
      ],
      "name": "ownerOf",
      "outputs": [
        {
          "name": "",
          "type": "address"
        }
      ],
      "payable": false,
      "stateMutability": "view",
      "type": "function"
    },
    {
      "constant": true,
      "inputs": [
        {
          "name": "_owner",
          "type": "address"
        }
      ],
      "name": "balanceOf",
      "outputs": [
        {
          "name": "",
          "type": "uint256"
        }
      ],
      "payable": false,
      "stateMutability": "view",
      "type": "function"
    },
    {
      "constant": true,
      "inputs": [
        {
          "name": "adId",
          "type": "uint256"
        }
      ],
      "name": "getAd",
      "outputs": [
        {
          "name": "",
          "type": "string"
        },
        {
          "name": "",
          "type": "address"
        },
        {
          "name": "",
          "type": "uint256"
        },
        {
          "name": "",
          "type": "string"
        },
        {
          "name": "",
          "type": "string"
        },
        {
          "name": "",
          "type": "string"
        }
      ],
      "payable": false,
      "stateMutability": "view",
      "type": "function"
    },
    {
      "constant": true,
      "inputs": [],
      "name": "PRICE",
      "outputs": [
        {
          "name": "",
          "type": "uint256"
        }
      ],
      "payable": false,
      "stateMutability": "view",
      "type": "function"
    },
    {
      "constant": true,
      "inputs": [],
      "name": "owner",
      "outputs": [
        {
          "name": "",
          "type": "address"
        }
      ],
      "payable": false,
      "stateMutability": "view",
      "type": "function"
    },
    {
      "constant": false,
      "inputs": [
        {
          "name": "adId",
          "type": "uint256"
        },
        {
          "name": "name",
          "type": "string"
        },
        {
          "name": "url",
          "type": "string"
        },
        {
          "name": "description",
          "type": "string"
        },
        {
          "name": "imageurl",
          "type": "string"
        }
      ],
      "name": "mintObject",
      "outputs": [],
      "payable": true,
      "stateMutability": "payable",
      "type": "function"
    },
    {
      "constant": true,
      "inputs": [],
      "name": "objectCount",
      "outputs": [
        {
          "name": "",
          "type": "uint256"
        }
      ],
      "payable": false,
      "stateMutability": "view",
      "type": "function"
    },
    {
      "constant": true,
      "inputs": [],
      "name": "NAME",
      "outputs": [
        {
          "name": "",
          "type": "string"
        }
      ],
      "payable": false,
      "stateMutability": "view",
      "type": "function"
    },
    {
      "constant": false,
      "inputs": [
        {
          "name": "_to",
          "type": "address"
        },
        {
          "name": "_tokenId",
          "type": "uint256"
        }
      ],
      "name": "transfer",
      "outputs": [],
      "payable": false,
      "stateMutability": "nonpayable",
      "type": "function"
    },
    {
      "constant": false,
      "inputs": [
        {
          "name": "_tokenId",
          "type": "uint256"
        }
      ],
      "name": "takeOwnership",
      "outputs": [],
      "payable": false,
      "stateMutability": "nonpayable",
      "type": "function"
    },
    {
      "constant": true,
      "inputs": [
        {
          "name": "adId",
          "type": "uint256"
        }
      ],
      "name": "getCurrentPrice",
      "outputs": [
        {
          "name": "",
          "type": "uint256"
        }
      ],
      "payable": false,
      "stateMutability": "view",
      "type": "function"
    },
    {
      "constant": false,
      "inputs": [
        {
          "name": "newOwner",
          "type": "address"
        }
      ],
      "name": "transferOwnership",
      "outputs": [],
      "payable": false,
      "stateMutability": "nonpayable",
      "type": "function"
    },
    {
      "constant": true,
      "inputs": [],
      "name": "SYMBOL",
      "outputs": [
        {
          "name": "",
          "type": "string"
        }
      ],
      "payable": false,
      "stateMutability": "view",
      "type": "function"
    },
    {
      "inputs": [],
      "payable": false,
      "stateMutability": "nonpayable",
      "type": "constructor"
    },
    {
      "anonymous": false,
      "inputs": [
        {
          "indexed": true,
          "name": "previousOwner",
          "type": "address"
        },
        {
          "indexed": true,
          "name": "newOwner",
          "type": "address"
        }
      ],
      "name": "OwnershipTransferred",
      "type": "event"
    },
    {
      "anonymous": false,
      "inputs": [
        {
          "indexed": true,
          "name": "_from",
          "type": "address"
        },
        {
          "indexed": true,
          "name": "_to",
          "type": "address"
        },
        {
          "indexed": false,
          "name": "_tokenId",
          "type": "uint256"
        }
      ],
      "name": "Transfer",
      "type": "event"
    },
    {
      "anonymous": false,
      "inputs": [
        {
          "indexed": true,
          "name": "_owner",
          "type": "address"
        },
        {
          "indexed": true,
          "name": "_approved",
          "type": "address"
        },
        {
          "indexed": false,
          "name": "_tokenId",
          "type": "uint256"
        }
      ],
      "name": "Approval",
      "type": "event"
    }
  ],
  "bytecode": "0x6060604052600060065534156200001557600080fd5b33600560006101000a81548173ffffffffffffffffffffffffffffffffffffffff021916908373ffffffffffffffffffffffffffffffffffffffff1602179055506200019b60016040805190810160405280600681526020017f434153494e4f00000000000000000000000000000000000000000000000000008152506040805190810160405280601681526020017f687474703a2f2f7777772e65746865726164732e636f000000000000000000008152506040805190810160405280600681526020017f636173696e6f0000000000000000000000000000000000000000000000000000815250608060405190810160405280604381526020017f68747470733a2f2f7777772e657468657265756d2e6f72672f696d616765732f81526020017f6c6f676f732f455448455245554d2d49434f4e5f426c61636b5f736d616c6c2e81526020017f706e67000000000000000000000000000000000000000000000000000000000081525062000a84640100000000026200135b176401000000009004565b620002e060026040805190810160405280600381526020017f49434f00000000000000000000000000000000000000000000000000000000008152506040805190810160405280601681526020017f687474703a2f2f7777772e65746865726164732e636f000000000000000000008152506040805190810160405280600381526020017f69636f0000000000000000000000000000000000000000000000000000000000815250608060405190810160405280604381526020017f68747470733a2f2f7777772e657468657265756d2e6f72672f696d616765732f81526020017f6c6f676f732f455448455245554d2d49434f4e5f426c61636b5f736d616c6c2e81526020017f706e67000000000000000000000000000000000000000000000000000000000081525062000a84640100000000026200135b176401000000009004565b6200042560036040805190810160405280600381526020017f53455800000000000000000000000000000000000000000000000000000000008152506040805190810160405280601681526020017f687474703a2f2f7777772e65746865726164732e636f000000000000000000008152506040805190810160405280600381526020017f7365780000000000000000000000000000000000000000000000000000000000815250608060405190810160405280604381526020017f68747470733a2f2f7777772e657468657265756d2e6f72672f696d616765732f81526020017f6c6f676f732f455448455245554d2d49434f4e5f426c61636b5f736d616c6c2e81526020017f706e67000000000000000000000000000000000000000000000000000000000081525062000a84640100000000026200135b176401000000009004565b6200056a60046040805190810160405280600781526020017f424954434f494e000000000000000000000000000000000000000000000000008152506040805190810160405280601681526020017f687474703a2f2f7777772e65746865726164732e636f000000000000000000008152506040805190810160405280600781526020017f626974636f696e00000000000000000000000000000000000000000000000000815250608060405190810160405280604381526020017f68747470733a2f2f7777772e657468657265756d2e6f72672f696d616765732f81526020017f6c6f676f732f455448455245554d2d49434f4e5f426c61636b5f736d616c6c2e81526020017f706e67000000000000000000000000000000000000000000000000000000000081525062000a84640100000000026200135b176401000000009004565b620006af60056040805190810160405280600881526020017f455448455245554d0000000000000000000000000000000000000000000000008152506040805190810160405280601681526020017f687474703a2f2f7777772e65746865726164732e636f000000000000000000008152506040805190810160405280600881526020017f657468657265756d000000000000000000000000000000000000000000000000815250608060405190810160405280604381526020017f68747470733a2f2f7777772e657468657265756d2e6f72672f696d616765732f81526020017f6c6f676f732f455448455245554d2d49434f4e5f426c61636b5f736d616c6c2e81526020017f706e67000000000000000000000000000000000000000000000000000000000081525062000a84640100000000026200135b176401000000009004565b620007f460066040805190810160405280600781526020017f41554354494f4e000000000000000000000000000000000000000000000000008152506040805190810160405280601681526020017f687474703a2f2f7777772e65746865726164732e636f000000000000000000008152506040805190810160405280600781526020017f61756374696f6e00000000000000000000000000000000000000000000000000815250608060405190810160405280604381526020017f68747470733a2f2f7777772e657468657265756d2e6f72672f696d616765732f81526020017f6c6f676f732f455448455245554d2d49434f4e5f426c61636b5f736d616c6c2e81526020017f706e67000000000000000000000000000000000000000000000000000000000081525062000a84640100000000026200135b176401000000009004565b6200093960076040805190810160405280600681526020017f57414c4c455400000000000000000000000000000000000000000000000000008152506040805190810160405280601681526020017f687474703a2f2f7777772e65746865726164732e636f000000000000000000008152506040805190810160405280600681526020017f77616c6c65740000000000000000000000000000000000000000000000000000815250608060405190810160405280604381526020017f68747470733a2f2f7777772e657468657265756d2e6f72672f696d616765732f81526020017f6c6f676f732f455448455245554d2d49434f4e5f426c61636b5f736d616c6c2e81526020017f706e67000000000000000000000000000000000000000000000000000000000081525062000a84640100000000026200135b176401000000009004565b62000a7e60086040805190810160405280600681526020017f43525950544f00000000000000000000000000000000000000000000000000008152506040805190810160405280601681526020017f687474703a2f2f7777772e65746865726164732e636f000000000000000000008152506040805190810160405280600681526020017f63727970746f0000000000000000000000000000000000000000000000000000815250608060405190810160405280604381526020017f68747470733a2f2f7777772e657468657265756d2e6f72672f696d616765732f81526020017f6c6f676f732f455448455245554d2d49434f4e5f426c61636b5f736d616c6c2e81526020017f706e67000000000000000000000000000000000000000000000000000000000081525062000a84640100000000026200135b176401000000009004565b62000f6f565b600560009054906101000a900473ffffffffffffffffffffffffffffffffffffffff1673ffffffffffffffffffffffffffffffffffffffff163373ffffffffffffffffffffffffffffffffffffffff1614151562000ae157600080fd5b62000b01338662000be16401000000000262001872176401000000009004565b6006600081548092919060010191905055508360086000878152602001908152602001600020908051906020019062000b3c92919062000e91565b508260096000878152602001908152602001600020908051906020019062000b6692919062000e91565b506611c37937e08000600760008781526020019081526020016000208190555081600a6000878152602001908152602001600020908051906020019062000baf92919062000e91565b5080600b6000878152602001908152602001600020908051906020019062000bd992919062000e91565b505050505050565b600073ffffffffffffffffffffffffffffffffffffffff168273ffffffffffffffffffffffffffffffffffffffff161415151562000c1e57600080fd5b62000c3e828262000c926401000000000262001cbe176401000000009004565b8173ffffffffffffffffffffffffffffffffffffffff1660007fddf252ad1be2c89b69c2b068fc378daa952ba7f163c4a11628f55a4df523b3ef836040518082815260200191505060405180910390a35050565b60008073ffffffffffffffffffffffffffffffffffffffff166001600084815260200190815260200160002060009054906101000a900473ffffffffffffffffffffffffffffffffffffffff1673ffffffffffffffffffffffffffffffffffffffff1614151562000d0257600080fd5b826001600084815260200190815260200160002060006101000a81548173ffffffffffffffffffffffffffffffffffffffff021916908373ffffffffffffffffffffffffffffffffffffffff16021790555062000d738362000e266401000000000262000f92176401000000009004565b9050600360008473ffffffffffffffffffffffffffffffffffffffff1673ffffffffffffffffffffffffffffffffffffffff168152602001908152602001600020805480600101828162000dc8919062000f18565b91600052602060002090016000849091909150555080600460008481526020019081526020016000208190555062000e1b600160005462000e726401000000000262001e42179091906401000000009004565b600081905550505050565b6000600360008373ffffffffffffffffffffffffffffffffffffffff1673ffffffffffffffffffffffffffffffffffffffff168152602001908152602001600020805490509050919050565b600080828401905083811015151562000e8757fe5b8091505092915050565b828054600181600116156101000203166002900490600052602060002090601f016020900481019282601f1062000ed457805160ff191683800117855562000f05565b8280016001018555821562000f05579182015b8281111562000f0457825182559160200191906001019062000ee7565b5b50905062000f14919062000f47565b5090565b81548183558181151162000f425781836000526020600020918201910162000f41919062000f47565b5b505050565b62000f6c91905b8082111562000f6857600081600090555060010162000f4e565b5090565b90565b611fb18062000f7f6000396000f300606060405260043610610128576000357c0100000000000000000000000000000000000000000000000000000000900463ffffffff16806303ceb0311461012d578063095ea7b31461018857806315070401146101ca57806317d7de7c1461025857806318160ddd146102e65780631a848cfb1461030f5780632a6dd48f14610338578063451ba24c1461039b5780635a3f2672146103d25780636352211e1461046057806370a08231146104c35780637ede1c07146105105780638d859f3e1461072a5780638da5cb5b14610753578063902e74f2146107a857806396c5892c146108cc578063a3f4df7e146108f5578063a9059cbb14610983578063b2e6ceeb146109c5578063c55d0f56146109e8578063f2fde38b14610a1f578063f76f8d7814610a58575b600080fd5b610186600480803590602001909190803590602001908201803590602001908080601f01602080910402602001604051908101604052809392919081815260200183838082843782019150505050505091905050610ae6565b005b341561019357600080fd5b6101c8600480803573ffffffffffffffffffffffffffffffffffffffff16906020019091908035906020019091905050610bc4565b005b34156101d557600080fd5b6101dd610d57565b6040518080602001828103825283818151815260200191508051906020019080838360005b8381101561021d578082015181840152602081019050610202565b50505050905090810190601f16801561024a5780820380516001836020036101000a031916815260200191505b509250505060405180910390f35b341561026357600080fd5b61026b610d9a565b6040518080602001828103825283818151815260200191508051906020019080838360005b838110156102ab578082015181840152602081019050610290565b50505050905090810190601f1680156102d85780820380516001836020036101000a031916815260200191505b509250505060405180910390f35b34156102f157600080fd5b6102f9610ddd565b6040518082815260200191505060405180910390f35b341561031a57600080fd5b610322610de6565b6040518082815260200191505060405180910390f35b341561034357600080fd5b6103596004808035906020019091905050610df0565b604051808273ffffffffffffffffffffffffffffffffffffffff1673ffffffffffffffffffffffffffffffffffffffff16815260200191505060405180910390f35b34156103a657600080fd5b6103bc6004808035906020019091905050610e2d565b6040518082815260200191505060405180910390f35b34156103dd57600080fd5b610409600480803573ffffffffffffffffffffffffffffffffffffffff16906020019091905050610e77565b6040518080602001828103825283818151815260200191508051906020019060200280838360005b8381101561044c578082015181840152602081019050610431565b505050509050019250505060405180910390f35b341561046b57600080fd5b6104816004808035906020019091905050610f14565b604051808273ffffffffffffffffffffffffffffffffffffffff1673ffffffffffffffffffffffffffffffffffffffff16815260200191505060405180910390f35b34156104ce57600080fd5b6104fa600480803573ffffffffffffffffffffffffffffffffffffffff16906020019091905050610f92565b6040518082815260200191505060405180910390f35b341561051b57600080fd5b6105316004808035906020019091905050610fde565b60405180806020018773ffffffffffffffffffffffffffffffffffffffff1673ffffffffffffffffffffffffffffffffffffffff16815260200186815260200180602001806020018060200185810385528b818151815260200191508051906020019080838360005b838110156105b557808201518184015260208101905061059a565b50505050905090810190601f1680156105e25780820380516001836020036101000a031916815260200191505b50858103845288818151815260200191508051906020019080838360005b8381101561061b578082015181840152602081019050610600565b50505050905090810190601f1680156106485780820380516001836020036101000a031916815260200191505b50858103835287818151815260200191508051906020019080838360005b83811015610681578082015181840152602081019050610666565b50505050905090810190601f1680156106ae5780820380516001836020036101000a031916815260200191505b50858103825286818151815260200191508051906020019080838360005b838110156106e75780820151818401526020810190506106cc565b50505050905090810190601f1680156107145780820380516001836020036101000a031916815260200191505b509a505050505050505050505060405180910390f35b341561073557600080fd5b61073d61132a565b6040518082815260200191505060405180910390f35b341561075e57600080fd5b610766611335565b604051808273ffffffffffffffffffffffffffffffffffffffff1673ffffffffffffffffffffffffffffffffffffffff16815260200191505060405180910390f35b6108ca600480803590602001909190803590602001908201803590602001908080601f0160208091040260200160405190810160405280939291908181526020018383808284378201915050505050509190803590602001908201803590602001908080601f0160208091040260200160405190810160405280939291908181526020018383808284378201915050505050509190803590602001908201803590602001908080601f0160208091040260200160405190810160405280939291908181526020018383808284378201915050505050509190803590602001908201803590602001908080601f0160208091040260200160405190810160405280939291908181526020018383808284378201915050505050509190505061135b565b005b34156108d757600080fd5b6108df611499565b6040518082815260200191505060405180910390f35b341561090057600080fd5b61090861149f565b6040518080602001828103825283818151815260200191508051906020019080838360005b8381101561094857808201518184015260208101905061092d565b50505050905090810190601f1680156109755780820380516001836020036101000a031916815260200191505b509250505060405180910390f35b341561098e57600080fd5b6109c3600480803573ffffffffffffffffffffffffffffffffffffffff169060200190919080359060200190919050506114d8565b005b34156109d057600080fd5b6109e6600480803590602001909190505061152b565b005b34156109f357600080fd5b610a096004808035906020019091905050611556565b6040518082815260200191505060405180910390f35b3415610a2a57600080fd5b610a56600480803573ffffffffffffffffffffffffffffffffffffffff16906020019091905050611598565b005b3415610a6357600080fd5b610a6b6116f0565b6040518080602001828103825283818151815260200191508051906020019080838360005b83811015610aab578082015181840152602081019050610a90565b50505050905090810190601f168015610ad85780820380516001836020036101000a031916815260200191505b509250505060405180910390f35b600080836000600760008381526020019081526020016000205414151515610b0d57600080fd5b610b1685610e2d565b9250823410151515610b2757600080fd5b610b3085610f14565b9150610b3d823387611729565b82600760008781526020019081526020016000208190555083600960008781526020019081526020016000209080519060200190610b7c929190611e60565b508173ffffffffffffffffffffffffffffffffffffffff166108fc349081150290604051600060405180830381858888f193505050501515610bbd57600080fd5b5050505050565b6000813373ffffffffffffffffffffffffffffffffffffffff16610be782610f14565b73ffffffffffffffffffffffffffffffffffffffff16141515610c0957600080fd5b610c1283610f14565b91508173ffffffffffffffffffffffffffffffffffffffff168473ffffffffffffffffffffffffffffffffffffffff1614151515610c4f57600080fd5b6000610c5a84610df0565b73ffffffffffffffffffffffffffffffffffffffff16141580610c94575060008473ffffffffffffffffffffffffffffffffffffffff1614155b15610d5157836002600085815260200190815260200160002060006101000a81548173ffffffffffffffffffffffffffffffffffffffff021916908373ffffffffffffffffffffffffffffffffffffffff1602179055508373ffffffffffffffffffffffffffffffffffffffff168273ffffffffffffffffffffffffffffffffffffffff167f8c5be1e5ebec7d5bd14f71427d1e84f3dd0314c0f7b2291e5b200ac8c7c3b925856040518082815260200191505060405180910390a35b50505050565b610d5f611ee0565b6040805190810160405280600381526020017f4541440000000000000000000000000000000000000000000000000000000000815250905090565b610da2611ee0565b6040805190810160405280600681526020017f4574684164730000000000000000000000000000000000000000000000000000815250905090565b60008054905090565b6000600654905090565b60006002600083815260200190815260200160002060009054906101000a900473ffffffffffffffffffffffffffffffffffffffff169050919050565b600080826000600760008381526020019081526020016000205414151515610e5457600080fd5b600760008581526020019081526020016000205491506002820292505050919050565b610e7f611ef4565b600360008373ffffffffffffffffffffffffffffffffffffffff1673ffffffffffffffffffffffffffffffffffffffff168152602001908152602001600020805480602002602001604051908101604052809291908181526020018280548015610f0857602002820191906000526020600020905b815481526020019060010190808311610ef4575b50505050509050919050565b6000806001600084815260200190815260200160002060009054906101000a900473ffffffffffffffffffffffffffffffffffffffff169050600073ffffffffffffffffffffffffffffffffffffffff168173ffffffffffffffffffffffffffffffffffffffff1614151515610f8957600080fd5b80915050919050565b6000600360008373ffffffffffffffffffffffffffffffffffffffff1673ffffffffffffffffffffffffffffffffffffffff168152602001908152602001600020805490509050919050565b610fe6611ee0565b600080610ff1611ee0565b610ff9611ee0565b611001611ee0565b6000806000806000808c600060076000838152602001908152602001600020541415151561102e57600080fd5b600860008f8152602001908152602001600020965061104c8e610f14565b95506110578e610e2d565b9450600960008f81526020019081526020016000209350600a60008f81526020019081526020016000209250600b60008f81526020019081526020016000209150868686868686858054600181600116156101000203166002900480601f0160208091040260200160405190810160405280929190818152602001828054600181600116156101000203166002900480156111335780601f1061110857610100808354040283529160200191611133565b820191906000526020600020905b81548152906001019060200180831161111657829003601f168201915b50505050509550828054600181600116156101000203166002900480601f0160208091040260200160405190810160405280929190818152602001828054600181600116156101000203166002900480156111cf5780601f106111a4576101008083540402835291602001916111cf565b820191906000526020600020905b8154815290600101906020018083116111b257829003601f168201915b50505050509250818054600181600116156101000203166002900480601f01602080910402602001604051908101604052809291908181526020018280546001816001161561010002031660029004801561126b5780601f106112405761010080835404028352916020019161126b565b820191906000526020600020905b81548152906001019060200180831161124e57829003601f168201915b50505050509150808054600181600116156101000203166002900480601f0160208091040260200160405190810160405280929190818152602001828054600181600116156101000203166002900480156113075780601f106112dc57610100808354040283529160200191611307565b820191906000526020600020905b8154815290600101906020018083116112ea57829003601f168201915b505050505090509c509c509c509c509c509c505050505050505091939550919395565b6611c37937e0800081565b600560009054906101000a900473ffffffffffffffffffffffffffffffffffffffff1681565b600560009054906101000a900473ffffffffffffffffffffffffffffffffffffffff1673ffffffffffffffffffffffffffffffffffffffff163373ffffffffffffffffffffffffffffffffffffffff161415156113b757600080fd5b6113c13386611872565b600660008154809291906001019190505550836008600087815260200190815260200160002090805190602001906113fa929190611e60565b5082600960008781526020019081526020016000209080519060200190611422929190611e60565b506611c37937e08000600760008781526020019081526020016000208190555081600a60008781526020019081526020016000209080519060200190611469929190611e60565b5080600b60008781526020019081526020016000209080519060200190611491929190611e60565b505050505050565b60065481565b6040805190810160405280600681526020017f457468416473000000000000000000000000000000000000000000000000000081525081565b803373ffffffffffffffffffffffffffffffffffffffff166114f982610f14565b73ffffffffffffffffffffffffffffffffffffffff1614151561151b57600080fd5b611526338484611729565b505050565b611535338261190c565b151561154057600080fd5b61155361154c82610f14565b3383611729565b50565b600081600060076000838152602001908152602001600020541415151561157c57600080fd5b6007600084815260200190815260200160002054915050919050565b600560009054906101000a900473ffffffffffffffffffffffffffffffffffffffff1673ffffffffffffffffffffffffffffffffffffffff163373ffffffffffffffffffffffffffffffffffffffff161415156115f457600080fd5b600073ffffffffffffffffffffffffffffffffffffffff168173ffffffffffffffffffffffffffffffffffffffff161415151561163057600080fd5b8073ffffffffffffffffffffffffffffffffffffffff16600560009054906101000a900473ffffffffffffffffffffffffffffffffffffffff1673ffffffffffffffffffffffffffffffffffffffff167f8be0079c531659141344cd1fd0a4f28419497f9722a3daafe3b4186f6b6457e060405160405180910390a380600560006101000a81548173ffffffffffffffffffffffffffffffffffffffff021916908373ffffffffffffffffffffffffffffffffffffffff16021790555050565b6040805190810160405280600381526020017f454144000000000000000000000000000000000000000000000000000000000081525081565b600073ffffffffffffffffffffffffffffffffffffffff168273ffffffffffffffffffffffffffffffffffffffff161415151561176557600080fd5b61176e81610f14565b73ffffffffffffffffffffffffffffffffffffffff168273ffffffffffffffffffffffffffffffffffffffff16141515156117a857600080fd5b8273ffffffffffffffffffffffffffffffffffffffff166117c882610f14565b73ffffffffffffffffffffffffffffffffffffffff161415156117ea57600080fd5b6117f4838261194d565b6117fe8382611a36565b6118088282611cbe565b8173ffffffffffffffffffffffffffffffffffffffff168373ffffffffffffffffffffffffffffffffffffffff167fddf252ad1be2c89b69c2b068fc378daa952ba7f163c4a11628f55a4df523b3ef836040518082815260200191505060405180910390a3505050565b600073ffffffffffffffffffffffffffffffffffffffff168273ffffffffffffffffffffffffffffffffffffffff16141515156118ae57600080fd5b6118b88282611cbe565b8173ffffffffffffffffffffffffffffffffffffffff1660007fddf252ad1be2c89b69c2b068fc378daa952ba7f163c4a11628f55a4df523b3ef836040518082815260200191505060405180910390a35050565b60008273ffffffffffffffffffffffffffffffffffffffff1661192e83610df0565b73ffffffffffffffffffffffffffffffffffffffff1614905092915050565b8173ffffffffffffffffffffffffffffffffffffffff1661196d82610f14565b73ffffffffffffffffffffffffffffffffffffffff1614151561198f57600080fd5b60006002600083815260200190815260200160002060006101000a81548173ffffffffffffffffffffffffffffffffffffffff021916908373ffffffffffffffffffffffffffffffffffffffff16021790555060008273ffffffffffffffffffffffffffffffffffffffff167f8c5be1e5ebec7d5bd14f71427d1e84f3dd0314c0f7b2291e5b200ac8c7c3b925836040518082815260200191505060405180910390a35050565b60008060008473ffffffffffffffffffffffffffffffffffffffff16611a5b85610f14565b73ffffffffffffffffffffffffffffffffffffffff16141515611a7d57600080fd5b60046000858152602001908152602001600020549250611aaf6001611aa187610f92565b611e2990919063ffffffff16565b9150600360008673ffffffffffffffffffffffffffffffffffffffff1673ffffffffffffffffffffffffffffffffffffffff16815260200190815260200160002082815481101515611afd57fe5b906000526020600020900154905060006001600086815260200190815260200160002060006101000a81548173ffffffffffffffffffffffffffffffffffffffff021916908373ffffffffffffffffffffffffffffffffffffffff16021790555080600360008773ffffffffffffffffffffffffffffffffffffffff1673ffffffffffffffffffffffffffffffffffffffff16815260200190815260200160002084815481101515611bab57fe5b9060005260206000209001819055506000600360008773ffffffffffffffffffffffffffffffffffffffff1673ffffffffffffffffffffffffffffffffffffffff16815260200190815260200160002083815481101515611c0857fe5b906000526020600020900181905550600360008673ffffffffffffffffffffffffffffffffffffffff1673ffffffffffffffffffffffffffffffffffffffff168152602001908152602001600020805480919060019003611c699190611f08565b5060006004600086815260200190815260200160002081905550826004600083815260200190815260200160002081905550611cb16001600054611e2990919063ffffffff16565b6000819055505050505050565b60008073ffffffffffffffffffffffffffffffffffffffff166001600084815260200190815260200160002060009054906101000a900473ffffffffffffffffffffffffffffffffffffffff1673ffffffffffffffffffffffffffffffffffffffff16141515611d2d57600080fd5b826001600084815260200190815260200160002060006101000a81548173ffffffffffffffffffffffffffffffffffffffff021916908373ffffffffffffffffffffffffffffffffffffffff160217905550611d8883610f92565b9050600360008473ffffffffffffffffffffffffffffffffffffffff1673ffffffffffffffffffffffffffffffffffffffff1681526020019081526020016000208054806001018281611ddb9190611f34565b916000526020600020900160008490919091505550806004600084815260200190815260200160002081905550611e1e6001600054611e4290919063ffffffff16565b600081905550505050565b6000828211151515611e3757fe5b818303905092915050565b6000808284019050838110151515611e5657fe5b8091505092915050565b828054600181600116156101000203166002900490600052602060002090601f016020900481019282601f10611ea157805160ff1916838001178555611ecf565b82800160010185558215611ecf579182015b82811115611ece578251825591602001919060010190611eb3565b5b509050611edc9190611f60565b5090565b602060405190810160405280600081525090565b602060405190810160405280600081525090565b815481835581811511611f2f57818360005260206000209182019101611f2e9190611f60565b5b505050565b815481835581811511611f5b57818360005260206000209182019101611f5a9190611f60565b5b505050565b611f8291905b80821115611f7e576000816000905550600101611f66565b5090565b905600a165627a7a7230582026f1e4b64d46691f9f2ffa702f5c84fe21488953ba03d6063277d1ec67c59bee0029",
  "source": "pragma solidity ^0.4.18;\n\nimport 'zeppelin-solidity/contracts/token/ERC721/ERC721Token.sol';\nimport 'zeppelin-solidity/contracts/ownership/Ownable.sol';\n\ncontract EtherAds is ERC721Token, Ownable {\n  string constant public NAME = \"EthAds\";\n  string constant public SYMBOL = \"EAD\";\n  uint256 constant public PRICE = 0.005 ether;\n  uint256 public objectCount = 0;\n\n  mapping(uint256 => uint256) tokenToPriceMap;\n  mapping(uint256 => string) tokenToNameMap;\n  mapping(uint256 => string) tokenToUrlMap;\n  mapping(uint256 => string) tokenToDescriptionMap;\n  mapping(uint256 => string) tokenToImageUrlMap;\n\n  Ad[] ads;\n\n  struct Ad {\n    string name;\n    string url;\n    string description;\n    string imageurl;\n  }\n\n  function EtherAds() public {\n    mintObject(1, \"CASINO\", \"http://www.etherads.co\", \"casino\", \"https://www.ethereum.org/images/logos/ETHEREUM-ICON_Black_small.png\");\n    mintObject(2, \"ICO\", \"http://www.etherads.co\", \"ico\", \"https://www.ethereum.org/images/logos/ETHEREUM-ICON_Black_small.png\");\n    mintObject(3, \"SEX\", \"http://www.etherads.co\", \"sex\", \"https://www.ethereum.org/images/logos/ETHEREUM-ICON_Black_small.png\");\n    mintObject(4, \"BITCOIN\", \"http://www.etherads.co\", \"bitcoin\", \"https://www.ethereum.org/images/logos/ETHEREUM-ICON_Black_small.png\");\n    mintObject(5, \"ETHEREUM\", \"http://www.etherads.co\", \"ethereum\", \"https://www.ethereum.org/images/logos/ETHEREUM-ICON_Black_small.png\");\n    mintObject(6, \"AUCTION\", \"http://www.etherads.co\", \"auction\", \"https://www.ethereum.org/images/logos/ETHEREUM-ICON_Black_small.png\");\n    mintObject(7, \"WALLET\", \"http://www.etherads.co\", \"wallet\", \"https://www.ethereum.org/images/logos/ETHEREUM-ICON_Black_small.png\");\n    mintObject(8, \"CRYPTO\", \"http://www.etherads.co\", \"crypto\", \"https://www.ethereum.org/images/logos/ETHEREUM-ICON_Black_small.png\");\n  }\n\n  function getName() public pure returns(string) {\n    return NAME;\n  }\n\n  function getSymbol() public pure returns(string) {\n    return SYMBOL;\n  }\n\n  function getObjectCount() public view returns (uint256) {\n    return objectCount;\n  }\n\n  function mintObject(uint256 adId, string name, string url, string description, string imageurl) public payable onlyOwner() {\n    _mint(msg.sender, adId);\n    objectCount++;\n    tokenToNameMap[adId] = name;\n    tokenToUrlMap[adId] = url;\n    tokenToPriceMap[adId] = PRICE;\n    tokenToDescriptionMap[adId] = description;\n    tokenToImageUrlMap[adId] = imageurl;\n  }\n\n  function buyAd(uint adId, string url) public payable onlyMintedTokens(adId) {\n    //require enough ether\n    uint256 askingPrice = getAskingPrice(adId);\n    require(msg.value >= askingPrice);\n\n    //transfer ad ownership\n    address previousOwner = ownerOf(adId);\n    clearApprovalAndTransfer(previousOwner, msg.sender, adId);\n\n    //update price\n    tokenToPriceMap[adId] = askingPrice;\n    tokenToUrlMap[adId] = (url);\n\n    //TODO: take dev cut\n\n\n    //send ether to previous owner\n    previousOwner.transfer(msg.value);\n  }\n\n  function getCurrentPrice(uint256 adId) public view onlyMintedTokens(adId) returns(uint256) {\n    return tokenToPriceMap[adId];\n  }\n\n  function getAskingPrice(uint256 adId) public view onlyMintedTokens(adId) returns(uint256) {\n    uint256 lastPrice = tokenToPriceMap[adId];\n//    if (lastPrice <= 0.04 ether) {\n      return lastPrice * 2;\n//    }\n//    if (lastPrice <= 0.25 ether) {\n//      return lastPrice * 2 ;\n//    }\n//    if (lastPrice <= 0.50 ether) {\n//      return lastPrice * 2;\n//    }\n//    if (lastPrice > 0.50 ether) {\n//      return lastPrice * 2;\n//   }\n//    return lastPrice;\n  }\n\n  function getAd(uint256 adId) public view onlyMintedTokens(adId) returns(string, address, uint256, string, string, string) {\n    string name = tokenToNameMap[adId];\n    address owner = ownerOf(adId);\n    uint256 askingPrice = getAskingPrice(adId);\n    string url = tokenToUrlMap[adId];\n    string description = tokenToDescriptionMap[adId];\n    string imageurl = tokenToImageUrlMap[adId];\n    return (name, owner, askingPrice, url, description, imageurl);\n  }\n\n  modifier onlyMintedTokens(uint256 adId) {\n    require(tokenToPriceMap[adId] != 0);\n    _;\n  }\n}\n",
  "sourcePath": "/home/norm/EtherAds/contracts/EtherAds.sol",
  "compiler": {
    "name": "solc",
    "version": "0.4.18+commit.9cf6e910.Emscripten.clang"
  },
  "schemaVersion": "1.0.1",
  "updatedAt": "2018-03-02T03:34:06.521Z"
}